:100000000C9434000C9451000C9451000C94510049
:100010000C9451000C9451000C9451000C9451001C
:100020000C9451000C9451000C9451000C9451000C
:100030000C9451000C9451000C9451000C945100FC
:100040000C9451000C9451000C9420010C9451001C
:100050000C9450010C9451000C9451000C945100DC
:100060000C9451000C94510011241FBECFEFD8E026
:10007000DEBFCDBF11E0A0E0B1E0E2E4FCE002C0F1
:1000800005900D92AC39B107D9F712E0ACE9B1E0B7
:1000900001C01D92A437B107E1F70E9492000C94B1
:1000A0001F060C940000CF92DF92EF92FF920F9305
:1000B0001F93CF93DF937B01EC0100E010E080E021
:1000C000C82E81E0D82E1EC000D000D000D0EDB7E1
:1000D000FEB73196ADB7BEB71296DC92CE921197AD
:1000E000D383C2838881848315820E9421030F5F9A
:1000F0001F4F21978DB79EB706960FB6F8949EBFF7
:100100000FBE8DBF0E151F05FCF282E191E00E942B
:100110003603DF91CF911F910F91FF90EF90DF9009
:10012000CF900895DF93CF9300D00F92CDB7DEB775
:1001300060E071EE80E090E00E94DF0081E489835E
:10014000CE0101969B838A8300D000D08FE191E09D
:10015000EDB7FEB792838183CE01029694838383A9
:100160000E942103ADB7BEB711968BE391E0EDB7C6
:10017000FEB792838183EA81FB81808112968C9302
:10018000129713961C920E9421030F900F900F90CC
:100190000F9086E591E00E9436038BE791E00E9484
:1001A00036038FEF98E060E170E00E94530080E03A
:1001B00090E00F900F900F90CF91DF9108958F9264
:1001C000AF92CF92EF920F93F89420E034E244EF95
:1001D00050E000E0E8E0EE2ECC24C394AA2488246A
:1001E0000E94960178940F91EF90CF90AF908F90EE
:1001F000089580E28093C0001092C10086E0809351
:10020000C2000895EF92FF920F931F937B018C0120
:1002100084E0EE0CFF1C001F111F8A95D1F7CA0164
:10022000B901A80197010E94F80221503040309393
:10023000C5002093C4001F910F91FF90EF90089587
:100240001F920F920FB60F9211242F933F934F934B
:100250005F936F937F938F939F93AF93BF93EF932E
:10026000FF938091C0009091C0006091C60084FD12
:1002700006C094FD04C084E292E00E946502FF91F2
:10028000EF91BF91AF919F918F917F916F915F910E
:100290004F913F912F910F900FBE0F901F90189587
:1002A0001F920F920FB60F9211242F933F934F93EB
:1002B0005F936F937F938F939F93AF93BF93EF93CE
:1002C000FF9380916C02882369F00E94600288236A
:1002D00039F08CE192E00E94B7028093C60005C01D
:1002E00010926C0281E080936D02FF91EF91BF91BB
:1002F000AF919F918F917F916F915F914F913F91BE
:100300002F910F900FBE0F901F90189580916D0246
:100310008823E1F381E080936C028CE192E00E94FB
:10032000B7028093C60010926D0208954F925F92BB
:100330006F927F928F929F92AF92BF92CF92EF92E5
:100340000F931F93DF93CF93CDB7DEB74B015C01C3
:1003500029013A011E2D0C2DF8948DE891E090931F
:100360007102809370028091C100877F8093C100E9
:100370008091C1008F7E8093C1008091C1008F7BEE
:100380008093C1008091C1008F778093C100C50127
:10039000B4010E9402018E2D8550843018F52E2D57
:1003A00030E02550304021FF04C08091C2008460BD
:1003B00003C08091C2008B7F8093C2008091C200F5
:1003C00022FF04C08091C200806103C08091C200FE
:1003D0008F7E8093C2008091C2008091C1008F7E89
:1003E0008093C100193079F48091C20084608093B9
:1003F000C2008091C20080618093C2008091C100E0
:1004000080618093C100802F8150823030F48091D0
:10041000C2008093C2008091C200C501B401A30153
:1004200092010E94020184E292E06CE272E040E4F8
:100430000E9493028CE192E06CE971E040E80E9436
:1004400093028091C10088608093C1008091C100B7
:1004500080618093C1008091C10080648093C1005D
:100460008091C10080688093C10010926C0281E08D
:1004700080936D027894CF91DF911F910F91EF904F
:10048000CF90BF90AF909F908F907F906F905F9034
:100490004F9008951F93182F8A3019F48DE00E9411
:1004A0004A02812F0E945A020E94860180E090E059
:1004B0001F910895682F8CE192E00E94E402089554
:1004C0008CE192E00E94F2020895DC0113964D91B6
:1004D0005C91149712968C91129790E001974817AF
:1004E000590718F020E030E003C09A012F5F3F4F1A
:1004F00015968D919C9116972817390711F480E075
:100500000895ED91FC911197E40FF51F6083149607
:100510003C932E93139717968C9117978F5F17968E
:100520008C9381E00895FC01423058F0009749F027
:100530006115710531F07183608342830E94A302CB
:10054000089580E00895FC01009711F480E008957B
:1005500014821382168215821782428180819181D2
:1005600060E070E050E00E941A0381E00895DC0131
:1005700015962D913C91169713968D919C911497F9
:100580008217930711F4E0E01DC0ED91FC911197E3
:10059000E20FF31FE08112968C91129790E0019781
:1005A0002817390718F080E090E002C0C9010196D1
:1005B00016969C938E93159717968C91179781504A
:1005C00017968C938E2F08951F939C0180916C0237
:1005D0008823E1F71FB7F894C9010E9465021FBF85
:1005E0001F910895FC018FB7F8948FBF87810895FC
:1005F000A1E21A2EAA1BBB1BFD010DC0AA1FBB1F27
:10060000EE1FFF1FA217B307E407F50720F0A21B98
:10061000B30BE40BF50B661F771F881F991F1A9405
:1006200069F760957095809590959B01AC01BD012F
:10063000CF010895DC0101C06D9341505040E0F7B7
:100640000895A0E0B0E0E7E2F3E00C94F805FE01C5
:100650003596619171918091700290917102AF0114
:100660000E946B032096E2E00C9414060F931F93F4
:10067000CF93DF938C01E0917002F091710283813E
:1006800081FF21C0C0E0D0E00DC0E0917002F09188
:10069000710220853185BF01F9010995892B11F07F
:1006A000CFEFDFEFF80181918F01882371F7E0919F
:1006B0007002F0917102208531858AE0BF01F90155
:1006C0000995892B11F0CFEFDFEFCE01DF91CF91AC
:1006D0001F910F910895ABE0B0E0E1E7F3E00C94D7
:1006E000E8053C012B015A01FC0117821682838127
:1006F00081FD03C06FEF7FEFC6C19AE0892E1E0116
:100700000894211C311CF3012381F20123FD859102
:1007100023FF81912F01882309F4B2C1853239F476
:1007200023FD859123FF81912F01853229F490E0EB
:10073000B3010E945E05E7CF982FFF24EE24992491
:10074000FFE1FF15D0F09B3269F09C3228F4903223
:1007500059F0933291F40EC09D3249F0903369F410
:1007600041E024C052E0F52A84E0F82A28C098E04D
:10077000F92A25C0E0E1FE2A22C0F7FC29C0892F12
:1007800080538A3070F4F6FE05C0989C902C11249A
:10079000980E15C0E89CE02C1124E80EF0E2FF2A28
:1007A0000EC09E3229F4F6FC6BC140E4F42A07C067
:1007B0009C3619F450E8F52A02C0983649F4F20143
:1007C00023FD959123FF91912F01992309F0B8CF33
:1007D000892F8554833018F08052833038F444E0F8
:1007E00050E0A40EB51E5FE359830FC0933631F07D
:1007F000933779F0933509F056C020C0F501808118
:10080000898342E050E0A40EB51E610101E010E0D2
:1008100012C0F501C080D180F6FC03C06FEF7FEFFE
:1008200002C0692D70E042E050E0A40EB51EC60182
:100830000E9453058C015FE7F52214C0F501C080CA
:10084000D180F6FC03C06FEF7FEF02C0692D70E02E
:1008500042E050E0A40EB51EC6010E9448058C017E
:1008600050E8F52AF3FE07C01AC080E290E0B30119
:100870000E945E05EA948E2D90E008171907A8F3F0
:100880000EC0F601F7FC8591F7FE81916F0190E0B3
:10089000B3010E945E05E110EA9401501040011579
:1008A000110579F7EAC0943611F0993669F5F7FE2B
:1008B00008C0F501208131814281538184E090E0BC
:1008C0000AC0F501808191819C01442737FD409544
:1008D000542F82E090E0A80EB91E9FE6F92257FF40
:1008E00009C050954095309521953F4F4F4F5F4F30
:1008F000E0E8FE2ACA01B901A1012AE030E00E9425
:100900008A05D82ED21840C0953729F41F2D1F7E96
:100910002AE030E01DC01F2D197F9F3661F090370F
:1009200020F4983509F0ACC00FC0903739F09837F3
:1009300009F0A6C004C028E030E00AC0106114FD30
:10094000146020E130E004C014FD166020E132E0C4
:1009500017FF08C0F501608171818281938144E0B5
:1009600050E008C0F50180819181BC0180E090E0F9
:1009700042E050E0A40EB51EA1010E948A05D82EC7
:10098000D2188FE7F82EF122F6FE0BC05EEFF522AB
:10099000D91438F4F4FE07C0F2FC05C08FEEF8223B
:1009A00002C01D2D01C0192DF4FE0DC0FE01ED0D7C
:1009B000F11D8081803319F499EEF92208C01F5F80
:1009C000F2FE05C003C08F2D867809F01F5F0F2D42
:1009D000F3FC14C0F0FE0FC01E1510F09D2C0BC0D0
:1009E0009D2C9E0C911A1E2D06C080E290E0B30152
:1009F0000E945E051F5F1E15C0F304C01E1510F493
:100A0000E11A01C0EE2404FF0FC080E390E0B301BF
:100A10000E945E0502FF1DC001FD03C088E790E053
:100A20000EC088E590E00BC0802F867891F001FF22
:100A300002C08BE201C080E2F7FC8DE290E0B301DE
:100A40000E945E0506C080E390E0B3010E945E054F
:100A50009A94D914C0F3DA94F101ED0DF11D80815F
:100A600090E0B3010E945E05DD20A9F706C080E298
:100A700090E0B3010E945E05EA94EE20C1F743CEF8
:100A8000F30166817781CB012B96E2E10C94040699
:100A9000FC010590615070400110D8F78095909549
:100AA0008E0F9F1F0895FC0161507040019001104E
:100AB000D8F7809590958E0F9F1F08950F931F93E1
:100AC000CF93DF938C01EB018B8181FF1BC082FFF1
:100AD0000DC02E813F818C819D812817390764F4D8
:100AE000E881F9810193F983E88306C0E885F985F7
:100AF000802F0995892B31F48E819F8101969F83E8
:100B00008E8302C00FEF1FEFC801DF91CF911F91BD
:100B10000F910895FA01AA27283051F1203181F16F
:100B2000E8946F936E7F6E5F7F4F8F4F9F4FAF4FF5
:100B3000B1E03ED0B4E03CD0670F781F891F9A1F08
:100B4000A11D680F791F8A1F911DA11D6A0F711DBC
:100B5000811D911DA11D20D009F468943F912AE0C8
:100B6000269F11243019305D3193DEF6CF010895B0
:100B7000462F4770405D4193B3E00FD0C9F7F6CFE1
:100B8000462F4F70405D4A3318F0495D31FD4052A9
:100B9000419302D0A9F7EACFB4E0A695979587953F
:100BA00077956795BA95C9F700976105710508951E
:100BB0009B01AC010A2E06945795479537952795CA
:100BC000BA95C9F7620F731F841F951FA01D089562
:100BD0002F923F924F925F926F927F928F929F924D
:100BE000AF92BF92CF92DF92EF92FF920F931F933B
:100BF000CF93DF93CDB7DEB7CA1BDB0B0FB6F894EC
:100C0000DEBF0FBECDBF09942A88398848885F842B
:100C10006E847D848C849B84AA84B984C884DF809C
:100C2000EE80FD800C811B81AA81B981CE0FD11D80
:100C30000FB6F894DEBF0FBECDBFED010895F89456
:020C4000FFCFE4
:100C42002025702020202020202030782530327866
:100C52000A007072696E746D79426C6F636B00503A
:100C62006F696E746572207020616464726573735B
:100C72003A202670203D2025700A00506F696E745C
:100C82007320746F20636F6E74656E74202A7020F7
:100C92003D2025630A000A436F6E74656E74206FEF
:100CA2006620746F70203136206D656D6F72792009
:100CB2006C6F636174696F6E733A0041646472654C
:100CC2007373202020436F6E74656E740000000001
:0C0CD20002000000004A020000000000C8
:00000001FF
