:100000000C942E000C944B000C944B000C944B0061
:100010000C944B000C944B000C944B000C944B0034
:100020000C944B000C944B000C944B000C944B0024
:100030000C944B000C94A4010C944B000C94D40130
:100040000C944B000C944B000C944B000C944B0004
:100050000C944B000C944B000C944B0011241FBECD
:10006000CFEFD4E0DEBFCDBF13E0A0E0B1E0E2E02F
:10007000FEE002C005900D92AC34B107D9F714E050
:10008000ACE4B3E001C01D92A432B107E1F70E94D5
:100090004D000C94FF060C9400000F931F93DF9308
:1000A000CF93CDB7DEB7C554D0400FB6F894DEBFBE
:1000B0000FBECDBF60E071EE80E090E00E941501C0
:1000C00000D080E091E0ADB7BEB712969C938E93BE
:1000D00011970E94320183E191E0EDB7FEB7928360
:1000E00081830E9432018CE491E0ADB7BEB71296D5
:1000F0009C938E9311970E94320186E891E0EDB7B0
:10010000FEB7928381830E94320181EC91E0ADB70A
:10011000BEB712969C938E9311970E9432018CEF7A
:1001200091E0EDB7FEB7928381830E94320187E3AD
:1001300092E0ADB7BEB712969C938E9311970E9432
:10014000320182E792E0EDB7FEB7928381830E948D
:10015000320100D08DEA92E0ADB7BEB712969C9303
:100160008E93119781E490E014969C938E9313974D
:100170000E94320181EC92E0EDB7FEB79283818359
:1001800082E290E0948383830E9432018FED92E0BB
:10019000ADB7BEB712969C938E93119782E291E110
:1001A00014969C938E9313970E943201DE01119650
:1001B000E9E3F3E085E001900D928150E1F700D092
:1001C00000D0EDB7FEB7319684E093E0ADB7BEB78F
:1001D00012969C938E93119785E190E0938382838E
:1001E000CE010196958384838CEB97E09783868379
:1001F0000E9432011F82EDB7FEB738960FB6F89411
:10020000FEBF0FBEEDBF8E010A5F1F4F0E9412019D
:100210008823E1F30E942F018E83C80161E00E94D0
:100220004001F4CF0E94EC0208958F92AF92CF92DA
:10023000EF920F93F89420E834E84EE150E000E0AC
:10024000E8E0EE2ECC24C394AA2488240E941A024B
:1002500078940F91EF90CF90AF908F9008950E9477
:10026000F1020895DF93CF93CDB7DEB7FE01359647
:1002700081919191BF010E944104CF91DF91089536
:10028000EF92FF920F931F93CF93DF937C01C0E017
:10029000D0E0062F10E007C0F701EC0FFD1F8081B2
:1002A0000E94F6022196C017D107B4F30E940A02F9
:1002B000DF91CF911F910F91FF90EF90089580E211
:1002C0008093C0001092C10086E08093C200089520
:1002D000EF92FF920F931F937B018C0184E0EE0C51
:1002E000FF1C001F111F8A95D1F7CA01B901A8018F
:1002F00097010E941804215030403093C50020938C
:10030000C4001F910F91FF90EF90089581118F5FAE
:10031000982F80FF04C08091C200806103C080914B
:10032000C2008F7E8093C2008091C20091FF04C002
:100330008091C200806203C08091C2008F7D809353
:10034000C2008091C20008951F920F920FB60F92C3
:1003500011242F933F934F935F936F937F938F93CA
:100360009F93AF93BF93EF93FF938091C0009091C1
:10037000C0006091C60084FD06C092FD04C084EDFB
:1003800093E00E947D03FF91EF91BF91AF919F9108
:100390008F917F916F915F914F913F912F910F902E
:1003A0000FBE0F901F9018951F920F920FB60F92CD
:1003B00011242F933F934F935F936F937F938F936A
:1003C0009F93AF93BF93EF93FF9380911C04882377
:1003D00069F00E94FC02882339F08CEC93E00E94C3
:1003E000BB038093C60005C010921C0481E080937B
:1003F0001D04FF91EF91BF91AF919F918F917F91DC
:100400006F915F914F913F912F910F900FBE0F9081
:100410001F90189580911D048823E1F381E080935B
:100420001C048CEC93E00E94BB038093C6001092E6
:100430001D0408952F923F924F925F926F927F9288
:100440008F929F92AF92CF92EF920F931F93DF9371
:10045000CF93CDB7DEB73B014C0119012A011E2D08
:100460000C2DF8948EE393E0909321048093200464
:100470008091C100877F8093C1008091C1008F7EF1
:100480008093C1008091C1008F7B8093C1008091D7
:10049000C1008F778093C100C401B3010E9468013D
:1004A0008E2D8550843018F52E2D30E025503040AB
:1004B00020FF04C08091C200826003C08091C2000E
:1004C0008D7F8093C2008091C20021FF04C0809183
:1004D000C200846003C08091C2008B7F8093C20001
:1004E0008091C2008091C1008B7F8093C100193040
:1004F00079F48091C20082608093C2008091C20032
:1005000084608093C2008091C10084608093C100A8
:10051000802F8150823068F4013021F08091C20038
:10052000886003C08091C200877F8093C200809161
:10053000C2008A2D0E948601C401B301A20191016B
:100540000E9468010E94580384ED93E06CED73E013
:1005500040E40E94AB038CEC93E06CE473E040E871
:100560000E94AB038091C10088608093C10080919C
:10057000C10080618093C1008091C100806480933C
:10058000C1008091C10080688093C10010921C045A
:1005900081E080931D047894CF91DF911F910F919A
:1005A000EF90CF90AF909F908F907F906F905F90E3
:1005B0004F903F902F9008951F93182F8A3019F471
:1005C0008DE00E94DC02812F0E94F6020E940A0246
:1005D00080E090E01F91089584ED93E00E94F6037F
:1005E000089584ED93E00E94FC030895682F8CEC3D
:1005F00093E00E94E80308958CEC93E00E94F603D8
:10060000089580E88093610083E0809361001092F8
:10061000700088E08093B60088EC8093B30010925D
:100620006E0081E0809381008093B0002091B6003D
:100630008091B60090E08470907030E0217030704E
:10064000822B932B892B91F74FEF51E0F89446BB07
:1006500047BB10928500109284001092B200B99BA3
:10066000FECF109281007894B09917C090918400C9
:1006700080918500382F20E0B901690F711DCB01F1
:1006800078E18B36970724F080916600815008C08E
:10069000885E974114F081E006C0809166008F5F0C
:1006A0008093660080E050938100882379F208955A
:1006B0000E94010320E820BF87E080937F008FEF36
:1006C00085B98EB9E1E6F0E0208392E09083109244
:1006D000C5008CE08093C4009093C000E1ECF0E092
:1006E00080818861808386E08093C20080E580936A
:1006F0006C002CBB2DBB08950895DC0113964D9121
:100700005C91149712968C91129790E0019748177C
:10071000590718F020E030E003C09A012F5F3F4FE7
:1007200015968D919C9116972817390711F480E042
:100730000895ED91FC911197E40FF51F60831496D5
:100740003C932E93139717968C9117978F5F17965C
:100750008C9381E00895FC01423058F0009749F0F5
:100760006115710531F07183608342830E94040436
:10077000089580E00895DC0115962D913C9116971F
:1007800013968D919C9114978217930711F4E0E0D2
:100790001DC0ED91FC911197E20FF31FE0811296BD
:1007A0008C91129790E001972817390718F080E094
:1007B00090E002C0C901019616969C938E931597FE
:1007C00017968C911797815017968C938E2F0895BA
:1007D0001F939C0180911C048823E1F71FB7F894B4
:1007E000C9010E947D031FBF1F910895FC018FB7AF
:1007F000F8948FBF878108951F931FB7F8940E94C4
:10080000BB031FBF1F910895FC01009711F480E006
:100810000895148213821682158217824281808184
:10082000918160E070E050E00E943A0481E0089518
:10083000A1E21A2EAA1BBB1BFD010DC0AA1FBB1FE4
:10084000EE1FFF1FA217B307E407F50720F0A21B56
:10085000B30BE40BF50B661F771F881F991F1A94C3
:1008600069F760957095809590959B01AC01BD01ED
:10087000CF010895DC0101C06D9341505040E0F775
:1008800008959C01AB018091200490912104B9014D
:100890000E944B040895ABE0B0E0E1E5F4E00C9475
:1008A000C8063C012B015A01FC0117821682838184
:1008B00081FD03C06FEF7FEFC6C19AE0892E1E0154
:1008C0000894211C311CF3012381F20123FD859141
:1008D00023FF81912F01882309F4B2C1853239F4B5
:1008E00023FD859123FF81912F01853229F490E02A
:1008F000B3010E943E06E7CF982FFF24EE249924EF
:10090000FFE1FF15D0F09B3269F09C3228F4903261
:1009100059F0933291F40EC09D3249F0903369F44E
:1009200041E024C052E0F52A84E0F82A28C098E08B
:10093000F92A25C0E0E1FE2A22C0F7FC29C0892F50
:1009400080538A3070F4F6FE05C0989C902C1124D8
:10095000980E15C0E89CE02C1124E80EF0E2FF2A66
:100960000EC09E3229F4F6FC6BC140E4F42A07C0A5
:100970009C3619F450E8F52A02C0983649F4F20181
:1009800023FD959123FF91912F01992309F0B8CF71
:10099000892F8554833018F08052833038F444E036
:1009A00050E0A40EB51E5FE359830FC0933631F0BB
:1009B000933779F0933509F056C020C0F501808156
:1009C000898342E050E0A40EB51E610101E010E011
:1009D00012C0F501C080D180F6FC03C06FEF7FEF3D
:1009E00002C0692D70E042E050E0A40EB51EC601C1
:1009F0000E9433068C015FE7F52214C0F501C08028
:100A0000D180F6FC03C06FEF7FEF02C0692D70E06C
:100A100042E050E0A40EB51EC6010E9428068C01DB
:100A200050E8F52AF3FE07C01AC080E290E0B30157
:100A30000E943E06EA948E2D90E008171907A8F34D
:100A40000EC0F601F7FC8591F7FE81916F0190E0F1
:100A5000B3010E943E06E110EA94015010400115D6
:100A6000110579F7EAC0943611F0993669F5F7FE69
:100A700008C0F501208131814281538184E090E0FA
:100A80000AC0F501808191819C01442737FD409582
:100A9000542F82E090E0A80EB91E9FE6F92257FF7E
:100AA00009C050954095309521953F4F4F4F5F4F6E
:100AB000E0E8FE2ACA01B901A1012AE030E00E9463
:100AC0006A06D82ED21840C0953729F41F2D1F7EF4
:100AD0002AE030E01DC01F2D197F9F3661F090374E
:100AE00020F4983509F0ACC00FC0903739F0983732
:100AF00009F0A6C004C028E030E00AC0106114FD6F
:100B0000146020E130E004C014FD166020E132E002
:100B100017FF08C0F501608171818281938144E0F3
:100B200050E008C0F50180819181BC0180E090E037
:100B300042E050E0A40EB51EA1010E946A06D82E24
:100B4000D2188FE7F82EF122F6FE0BC05EEFF522E9
:100B5000D91438F4F4FE07C0F2FC05C08FEEF82279
:100B600002C01D2D01C0192DF4FE0DC0FE01ED0DBA
:100B7000F11D8081803319F499EEF92208C01F5FBE
:100B8000F2FE05C003C08F2D867809F01F5F0F2D80
:100B9000F3FC14C0F0FE0FC01E1510F09D2C0BC00E
:100BA0009D2C9E0C911A1E2D06C080E290E0B30190
:100BB0000E943E061F5F1E15C0F304C01E1510F4F0
:100BC000E11A01C0EE2404FF0FC080E390E0B301FE
:100BD0000E943E0602FF1DC001FD03C088E790E0B1
:100BE0000EC088E590E00BC0802F867891F001FF61
:100BF00002C08BE201C080E2F7FC8DE290E0B3011D
:100C00000E943E0606C080E390E0B3010E943E06CB
:100C10009A94D914C0F3DA94F101ED0DF11D80819D
:100C200090E0B3010E943E06DD20A9F706C080E2F5
:100C300090E0B3010E943E06EA94EE20C1F743CE55
:100C4000F30166817781CB012B96E2E10C94E406F7
:100C5000FC010590615070400110D8F78095909587
:100C60008E0F9F1F0895FC0161507040019001108C
:100C7000D8F7809590958E0F9F1F08950F931F931F
:100C8000CF93DF938C01EB018B8181FF1BC082FF2F
:100C90000DC02E813F818C819D812817390764F416
:100CA000E881F9810193F983E88306C0E885F98535
:100CB000802F0995892B31F48E819F8101969F8326
:100CC0008E8302C00FEF1FEFC801DF91CF911F91FC
:100CD0000F910895FA01AA27283051F1203181F1AE
:100CE000E8946F936E7F6E5F7F4F8F4F9F4FAF4F34
:100CF000B1E03ED0B4E03CD0670F781F891F9A1F47
:100D0000A11D680F791F8A1F911DA11D6A0F711DFA
:100D1000811D911DA11D20D009F468943F912AE006
:100D2000269F11243019305D3193DEF6CF010895EE
:100D3000462F4770405D4193B3E00FD0C9F7F6CF1F
:100D4000462F4F70405D4A3318F0495D31FD4052E7
:100D5000419302D0A9F7EACFB4E0A695979587957D
:100D600077956795BA95C9F700976105710508955C
:100D70009B01AC010A2E0694579547953795279508
:100D8000BA95C9F7620F731F841F951FA01D0895A0
:100D90002F923F924F925F926F927F928F929F928B
:100DA000AF92BF92CF92DF92EF92FF920F931F9379
:100DB000CF93DF93CDB7DEB7CA1BDB0B0FB6F8942A
:100DC000DEBF0FBECDBF09942A88398848885F846A
:100DD0006E847D848C849B84AA84B984C884DF80DB
:100DE000EE80FD800C811B81AA81B981CE0FD11DBF
:100DF0000FB6F894DEBF0FBECDBFED010895F89495
:020E0000FFCF22
:100E020053657269616C2074657374657220303148
:100E1200340A0073657269616C5F6F75742054687F
:100E22006520717569636B2062726F776E20666FE1
:100E320078206A756D706564206F766572207468BB
:100E420065206C617A7920646F672E007365726920
:100E5200616C5F6F75742054686520717569636B8E
:100E62002062726F776E20666F78206A756D70658A
:100E720064206F76657220746865206C617A7920CF
:100E8200646F672E0A003173657269616C5F6F75FA
:100E9200742054686520717569636B2062726F7784
:100EA2006E20666F78206A756D706564206F766556
:100EB2007220746865206C617A7920646F672E0AEB
:100EC200003273657269616C5F6F75742054686576
:100ED20020717569636B2062726F776E20666F781E
:100EE200206A756D706564206F766572207468651E
:100EF200206C617A7920646F672E0A003373657201
:100F020069616C5F6F7574205468652071756963DF
:100F12006B2062726F776E20666F78206A756D70D3
:100F22006564206F76657220746865206C617A79D9
:100F320020646F672E0A003473657269616C5F6F9B
:100F420075742054686520717569636B2062726FD5
:100F5200776E20666F78206A756D706564206F7693
:100F6200657220746865206C617A7920646F672EDF
:100F72000A003573657269616C5F6F75742054681D
:100F82006520717569636B2062726F776E20666F80
:100F920078206A756D706564206F7665722074685A
:100FA20065206C617A7920646F672E0A005465733C
:100FB20074206368617261637465723A2025630A02
:100FC20000546573742068657861646563696D6156
:100FD2006C20696E74656765723A2025780A005440
:100FE2006573742031362D62697420686578616496
:100FF2006563696D616C20696E74656765723A201C
:1010020025780A00596F75722064617465206F66D5
:101012002062697274682069733A0A4461793A20DD
:101022002564200A4D6F6E74683A202573200A5990
:101032006561723A2025642E004A756C79000000C1
:0C104200000200000000DC0200000000C2
:00000001FF
