:100000000C94AA000C94C7000C94C7000C94C70071
:100010000C94C7000C94C7000C94C7000C94C70044
:100020000C94C7000C94C7000C94C7000C94C70034
:100030000C94C7000C94C7000C94C7000C94C70024
:100040000C94C7000C94C7000C94C7000C94C70014
:100050000C94C7000C94C7000C94C70043686173EC
:1000600065724C6967687473202D2000312E33301F
:10007000200D00427574746572666C79200065729B
:10008000726F725F657965732E0D0072616E646FB9
:100090006D5F657965732E0D00626C696E6B696EBC
:1000A0005F657965732E0D00766962726F5F6579A1
:1000B0006573322E0D00766962726F5F65796573C4
:1000C000312E0D00616E745F65796573322E0D00FF
:1000D000616E745F65796573312E0D007361775FB2
:1000E00065796573322E0D007361775F657965738D
:1000F000312E0D0077616C6C5F65796573322E0D62
:100100000077616C6C5F65796573312E0D006379E2
:100110006C6F6E5F65796573342E0D0063796C6F5B
:100120006E5F65796573342E0D0063796C6F6E5F59
:1001300065796573332E0D0063796C6F6E5F657939
:100140006573322E0D0063796C6F6E5F6579657330
:100150002E0D000011241FBECFEFD4E0DEBFCDBFB7
:1001600012E0A0E0B1E0ECECF9E102C005900D92E4
:10017000AA3DB107D9F712E0AAEDB2E001C01D9285
:10018000AE3DB107E1F70E9455040C94E40C0C94C9
:1001900000008091DC029091DD02282F2F702093C7
:1001A000DB02282F20782093000190E08877907060
:1001B00024E0959587952A95E1F729E130E0AC0197
:1001C000429FC001439F900D529F900D1124865F66
:1001D0008093DA0208958CE590E00E947C0583E725
:1001E00090E00E947C058CE690E00E947C050895DA
:1001F0000E945C050E94340508956F927F928F9251
:100200009F92AF92BF92CF92DF92EF92FF920F93A5
:100210001F93CF93DF93C62FD0E021974E01880C18
:10022000991C880E991E39E1632E712C58C080915B
:100230000001F40120813181882311F0C90103C03C
:10024000C901809590950E94BC059093DD02809332
:10025000DC026091DA0270E080E090E00E948209A6
:100260005B016C0120E030E04AE753E40E94A40700
:100270007B018C0120E030E040E85FE30E94FE0853
:1002800088231CF461E070E022C0C801B70120E0BF
:100290003FEF4FE757E40E949E081816A4F4C601EA
:1002A000B50120E030E040E251E40E94A4070E9442
:1002B000CE0505C0C3010197F1F76150704061158B
:1002C0007105C1F707C0C801B7010E94CE05CB0177
:1002D0000197F1F721978EEF9FEF880E991E9FEF00
:1002E000CF3FD90709F0A3CFDF91CF911F910F9195
:1002F000FF90EF90DF90CF90BF90AF909F908F9046
:100300007F906F900895DF93CF9300D000D000D0FE
:10031000CDB7DEB780ED90E00E947C05DE0111963E
:10032000E7E0F1E086E001900D928150E1F7CE0127
:10033000019663E00E94FD0026960FB6F894DEBF9A
:100340000FBECDBFCF91DF9108954F925F926F9214
:100350007F928F929F92AF92BF92CF92DF92EF9255
:10036000FF920F931F93CF93DF934C01C0E0D0E037
:10037000662E772459E1452E512C58C080910001FA
:10038000F40120813181882311F0C90103C0C90122
:10039000809590950E94BC059093DD028093DC02CD
:1003A0006091DA0270E080E090E00E9482095B01D7
:1003B0006C0120E030E04AE753E40E94A4077B018F
:1003C0008C0120E030E040E85FE30E94FE088823D3
:1003D0001CF461E070E022C0C801B70120E03FEFEB
:1003E0004FE757E40E949E081816A4F4C601B50111
:1003F00020E030E040E251E40E94A4070E94CE05D4
:1004000005C0C2010197F1F7615070406115710597
:10041000C1F707C0C801B7010E94CE05CB01019703
:10042000F1F7219682E090E0880E991EC615D70557
:100430000CF4A4CFDF91CF911F910F91FF90EF901B
:10044000DF90CF90BF90AF909F908F907F906F90F4
:100450005F904F900895DF93CF9300D000D000D0ED
:10046000CDB7DEB784EC90E00E947C05DE011196EA
:10047000E1E0F1E086E001900D928150E1F7CE01DC
:10048000019663E00E94A50126960FB6F894DEBFA0
:100490000FBECDBFCF91DF910895FF920F931F93B1
:1004A0008C01F62E0E94A501C8016F2D0E94FD004F
:1004B0001F910F91FF900895DF93CF9300D000D04C
:1004C000CDB7DEB78EE790E00E947C058CE39CE31D
:1004D0009A8389831C821B82CE01019660E00E9470
:1004E0004D020F900F900F900F90CF91DF910895D4
:1004F000DF93CF9300D000D0CDB7DEB78BE890E08C
:100500000E947C050E94410C9A8389830E94410CC1
:100510009C838B83CE01019662E00E944D020F9076
:100520000F900F900F90CF91DF910895DF93CF93AD
:1005300000D000D0CDB7DEB789E990E00E947C05FD
:100540001A8219828FEF9FEF9C838B83CE010196D5
:1005500062E00E944D020F900F900F900F90CF918C
:10056000DF910895DF93CF9300D000D0CDB7DEB7F1
:1005700088EA90E00E947C058CEC9CEC9A8389834D
:1005800083E393E39C838B83CE01019662E00E9418
:100590004D020F900F900F900F90CF91DF91089523
:1005A000DF93CF9300D000D0CDB7DEB786EB90E0DD
:1005B0000E947C058AEA9AEA9A83898385E595E513
:1005C0009C838B83CE01019662E00E944D020F90C6
:1005D0000F900F900F90CF91DF910895DF93CF93FD
:1005E00000D000D000D0CDB7DEB78CED90E00E94F7
:1005F0007C05DE011196EDE0F1E086E001900D92C0
:100600008150E1F7CE01019663E00E944D022696EB
:100610000FB6F894DEBF0FBECDBFCF91DF91089526
:10062000DF93CF93CDB7DEB72C970FB6F894DEBF2C
:100630000FBECDBF88EE90E00E947C05DE011196D2
:10064000E3E1F1E08CE001900D928150E1F7CE0101
:10065000019663E00E944D022C960FB6F894DEBF1F
:100660000FBECDBFCF91DF910895DF93CF93CDB76C
:10067000DEB762970FB6F894DEBF0FBECDBF84EF32
:1006800090E00E947C05DE011196EFE1F1E082E14D
:1006900001900D928150E1F7CE01019669E00E9430
:1006A0004D0262960FB6F894DEBF0FBECDBFCF915C
:1006B000DF910895DF93CF93CDB7DEB760970FB684
:1006C000F894DEBF0FBECDBF81E091E00E947C05B3
:1006D000DE011196E1E3F1E080E101900D9281509D
:1006E000E1F7CE01019668E00E944D0260960FB6D8
:1006F000F894DEBF0FBECDBFCF91DF910895DF9399
:10070000CF93CDB7DEB768970FB6F894DEBF0FBEB4
:10071000CDBF8EE091E00E947C05DE011196E1E400
:10072000F1E088E101900D928150E1F7CE01019650
:100730006CE00E944D0268960FB6F894DEBF0FBEC3
:10074000CDBFCF91DF910895DF93CF93CDB7DEB7C3
:100750006A970FB6F894DEBF0FBECDBF8CE191E073
:100760000E947C05DE011196E9E5F1E08AE1019045
:100770000D928150E1F7CE0101966EE00E944D028C
:100780006A960FB6F894DEBF0FBECDBFCF91DF9152
:100790000895DF93CF93CDB7DEB76C970FB6F8947B
:1007A000DEBF0FBECDBF8AE291E00E947C05DE0174
:1007B0001196E3E7F1E08CE101900D928150E1F7B1
:1007C000CE0101966DE00E944D026C960FB6F89432
:1007D000DEBF0FBECDBFCF91DF910895DF93CF93E2
:1007E000CDB7DEB76E970FB6F894DEBF0FBECDBFA4
:1007F00088E391E00E947C05DE011196EFE8F1E0CC
:100800008EE101900D928150E1F7CE0101966FE0EB
:100810000E944D026E960FB6F894DEBF0FBECDBF9C
:10082000CF91DF910895DF93CF93CDB7DEB7A09737
:100830000FB6F894DEBF0FBECDBF86E491E00E94F4
:100840007C05DE011196EDEAF1E080E201900D9267
:100850008150E1F7CE01019660E10E944D02A09621
:100860000FB6F894DEBF0FBECDBFCF91DF910895D4
:100870000E9413040E94EE030E94C9030E94A40375
:100880000E945A030E9435030E9410030E94EE0248
:100890000E9483010E942B020E94D0020E94B20299
:1008A0000E9496020E9478020895CF93DF930E94DF
:1008B000F8000E94EB000E94AA0580EC90E0909363
:1008C000DD028093DC02C9E1D0E08091DC029091EE
:1008D000DD02282F2F702093DB02282F2078209311
:1008E000000190E08877907064E0959587956A950F
:1008F000E1F79C012C9FC0012D9F900D3C9F900D16
:100900001124865F8093DA028091DB028730B9F18F
:10091000883070F4833039F1843028F48130E9F084
:100920008230F0F417C0853021F1863028F51EC0E2
:100930008B3089F18C3028F4893039F18A3040F5D8
:1009400021C08D3071F18D3048F18E3069F18F30DA
:1009500089F52DC00E941304B8CF0E94EE03B5CFD5
:100960000E94C903B2CF0E94A403AFCF0E947F03AD
:10097000ACCF0E945A03A9CF0E943503A6CF0E9494
:100980001003A3CF0E94EE02A0CF0E9483019DCF4F
:100990000E942B029ACF0E94D00297CF0E94B202EF
:1009A00094CF0E94960291CF0E9478028ECF0E942F
:1009B00038048BCF0E945C0288CF80E8809361006E
:1009C00083E0809361001092700088E08093B6000D
:1009D00088EC8093B30010926E0081E080938100D8
:1009E0008093B0002091B6008091B60090E08470B2
:1009F000907030E021703070822B932B892B91F70F
:100A00004FEF51E0F89446BB47BB1092850010921F
:100A100084001092B200B99BFECF109281007894AE
:100A2000B09917C09091840080918500382F20E004
:100A3000B901690F711DCB0178E18B36970724F05E
:100A400080916600815008C0885E974114F081E073
:100A500006C0809166008F5F8093660080E05093AF
:100A60008100882379F208950E94DD0490E890BF08
:100A700087E080937F008FEF85B98EB9E1E6F0E0E3
:100A8000908392E090831092C5008CE08093C40024
:100A90009093C00088E18093C10086E08093C200FB
:100AA00081E085BF95BF789480E580936C0080E8F5
:100AB0008CBB8DBB089508951092C50082E0809391
:100AC000C40088E18093C1000895982FA895809173
:100AD000C00085FFFCCF9093C6000895982FA8957D
:100AE0008091C00085FFFCCF913011F481E301C0FB
:100AF00080E38093C6000895BC0120E030E009C087
:100B0000A8958091C00085FFFCCF4093C6002F5F61
:100B10003F4FFB01E20FF31F4491442319F02035AE
:100B2000310571F70895AC0120E030E009C0A895C7
:100B30008091C00085FFFCCFE093C6002F5F3F4F40
:100B4000FA01E20FF31FE081EE2319F020353105A1
:100B500071F7089585B18F6085B984B1876084B9D4
:100B6000239881E58CBD0895289A8EBD0DB407FEAB
:100B7000FDCF8EB528980895289A9EBD0DB407FE26
:100B8000FDCF9EB58EBD0DB407FEFDCF8EB5289866
:100B9000382F20E0290F311DC9010895EF92FF92EF
:100BA0000F931F937B018C0120E030E040E05FE475
:100BB0000E94CE0888238CF0C801B70120E030E005
:100BC00040E05FE40E9446070E942E099B01AC01B1
:100BD000205030404040504806C0C801B7010E9434
:100BE0002E099B01AC01B901CA011F910F91FF9021
:100BF000EF900895A0E0B0E0E0E0F6E00C94510C36
:100C0000DC012B01FA019C91923008F439C1EB010F
:100C10008881823008F433C1943069F4843009F05B
:100C20002FC111969C9111978981981709F428C1B9
:100C3000ADECB1E025C1843009F421C18230A9F4C2
:100C4000923009F01DC19A01AD0188E0EA010990D6
:100C5000AE01E90109929E018150C1F7E20189814B
:100C600011969C918923818308C1923009F407C1B0
:100C700012962D903C901397EB018A819B811496DC
:100C8000AD90BD90CD90DC901797EC80FD800E81EB
:100C90001F819101281B390BB90137FF04C066275A
:100CA0007727621B730B603271050CF061C012165E
:100CB00013066CF537014801062E04C096948794FC
:100CC000779467940A94D2F721E030E040E050E056
:100CD00004C0220F331F441F551F6A95D2F72150BD
:100CE0003040404050402E213F21402351232115C8
:100CF00031054105510521F021E030E040E050E0B0
:100D000079018A01E628F728082919293CC0232BF4
:100D1000D1F1260E371E35014601062E04C09694E9
:100D20008794779467940A94D2F721E030E040E00A
:100D300050E004C0220F331F441F551F6A95D2F79D
:100D400021503040404050402A213B214C215D2120
:100D5000211531054105510521F021E030E040E049
:100D600050E059016A01A628B728C828D9280BC025
:100D7000821593052CF01C01AA24BB24650103C035
:100D8000EE24FF24870111969C91D20111968C913B
:100D9000981709F445C0992339F0A80197012A1939
:100DA0003B094C095D0906C0A60195012E193F09B2
:100DB000400B510B57FD08C01182338222822483DD
:100DC0003583468357831DC081E08183338222822D
:100DD00088279927DC01821B930BA40BB50B848316
:100DE0009583A683B7830DC0220F331F441F551F61
:100DF000248335834683578382819381019793832C
:100E000082832481358146815781DA01C9010197A6
:100E1000A109B1098F5F9F4FAF4FBF4328F30BC0AC
:100E2000918333822282EA0CFB1C0C1D1D1DE4827F
:100E3000F5820683178383E0808324813581468190
:100E4000578157FF1AC0C901AA2797FDA095BA2F4D
:100E500081709070A070B070569547953795279522
:100E6000822B932BA42BB52B84839583A683B783E6
:100E700082819381019693838283DF0101C0D20135
:100E8000CD01CDB7DEB7E2E10C946D0CA0E2B0E08D
:100E9000ECE4F7E00C945D0C69837A838B839C838C
:100EA0002D833E834F835887E9E0EE2EF12CEC0E24
:100EB000FD1ECE010196B7010E941F0B8E010F5E31
:100EC0001F4FCE010596B8010E941F0B8A8991E041
:100ED00089278A8BC701B801AE01475E5F4F0E9428
:100EE000FA050E944A0AA096E6E00C94790CA0E26A
:100EF000B0E0EDE7F7E00C945D0C69837A838B83B7
:100F00009C832D833E834F835887F9E0EF2EF12C8D
:100F1000EC0EFD1ECE010196B7010E941F0B8E0143
:100F20000F5E1F4FCE010596B8010E941F0BC7012F
:100F3000B801AE01475E5F4F0E94FA050E944A0A5F
:100F4000A096E6E00C94790CA0E2B0E0EAEAF7E0C3
:100F50000C94510C69837A838B839C832D833E830D
:100F60004F835887CE010196BE01675F7F4F0E9475
:100F70001F0BCE010596BE016F5E7F4F0E941F0BB7
:100F80009985923088F089898230C8F0943019F4BC
:100F9000823051F404C0843029F4923081F48DEC15
:100FA00091E0C6C0923049F420E09A858A8998136E
:100FB00021E02A87CE010996BBC0823049F420E0A7
:100FC0009A858A89981321E02A8BCE014196B0C078
:100FD0002D843E844F8458886D887E888F88988CB5
:100FE000EE24FF248701AA24BB24650140E050E0E1
:100FF00060E070E0E0E0F0E0C10181709070892B6A
:10100000E9F0E60CF71C081D191D9A01AB012A0D29
:101010003B1D4C1D5D1D80E090E0A0E0B0E0E614BB
:10102000F7040805190520F481E090E0A0E0B0E0A5
:10103000BA01A901480F591F6A1F7B1FAA0CBB1CCC
:10104000CC1CDD1C97FE08C081E090E0A0E0B0E081
:10105000A82AB92ACA2ADB2A3196E032F10549F0DA
:10106000660C771C881C991C5694479437942794D7
:10107000C3CFFA85EA892B893C898B859C85280F0B
:10108000391F2E5F3F4F17C0CA0181709070892BA6
:1010900061F016950795F794E79480E090E0A0E062
:1010A000B0E8E82AF92A0A2B1B2B76956795579505
:1010B00047952F5F3F4F77FDE7CF0CC0440F551F7B
:1010C000661F771F17FD4160EE0CFF1C001F111FEC
:1010D00021503040403090E0590790E0690790E49B
:1010E000790760F32B8F3C8FDB01CA018F779070FB
:1010F000A070B07080349105A105B10561F447FD81
:101100000AC0E114F1040105110529F0405C5F4FAC
:101110006F4F7F4F40781A8EFE1711F081E08A8F53
:101120004D8F5E8F6F8F78A383E0898FCE014996B4
:101130000E944A0AA096E2E10C946D0CA8E1B0E08E
:10114000E4EAF8E00C945D0C69837A838B839C83DA
:101150002D833E834F83588789E0E82EF12CEC0ED7
:10116000FD1ECE010196B7010E941F0B8E010F5E7E
:101170001F4FCE010596B8010E941F0B8985823052
:1011800040F08989823028F0C701B8010E94970B8E
:1011900001C08FEF6896E6E00C94790CA8E1B0E00E
:1011A000E4EDF8E00C945D0C69837A838B839C8377
:1011B0002D833E834F83588789E0E82EF12CEC0E77
:1011C000FD1ECE010196B7010E941F0B8E010F5E1E
:1011D0001F4FCE010596B8010E941F0B89858230F2
:1011E00040F08989823028F0C701B8010E94970B2E
:1011F00001C08FEF6896E6E00C94790CA8E1B0E0AE
:10120000E4E0F9E00C945D0C69837A838B839C8322
:101210002D833E834F83588789E0E82EF12CEC0E16
:10122000FD1ECE010196B7010E941F0B8E010F5EBD
:101230001F4FCE010596B8010E941F0B8985823091
:1012400040F08989823028F0C701B8010E94970BCD
:1012500001C081E06896E6E00C94790CACE0B0E067
:10126000E4E3F9E00C94610C69837A838B839C83BB
:10127000CE010196BE016B5F7F4F0E941F0B8D81D7
:10128000823061F1823050F1843021F48E818823E4
:1012900051F12EC02F81388537FD20C06E812F314E
:1012A00031051CF06623F9F023C08EE190E0821B2B
:1012B000930B29853A854B855C8504C056954795E7
:1012C000379527958A95D2F76623B1F050954095CA
:1012D000309521953F4F4F4F5F4F0EC020E030E0DB
:1012E00040E050E009C02FEF3FEF4FEF5FE704C051
:1012F00020E030E040E050E8B901CA012C96E2E07D
:101300000C947D0CA8E0B0E0E8E8F9E00C94590CEE
:101310007B018C01611571058105910519F482E04D
:10132000898360C083E089838EE1C82ED12CDC8262
:10133000CB82ED82FE820F831887C801B7010E941D
:10134000FB09FC013197F7FF3BC0222733272E1BF7
:101350003F0B57016801022E04C0D694C794B7947E
:10136000A7940A94D2F740E050E060E070E081E09A
:1013700090E0A0E0B0E004C0880F991FAA1FBB1F37
:101380002A95D2F70197A109B1098E219F21A023A7
:10139000B1230097A105B10521F041E050E060E0E4
:1013A00070E04A295B296C297D294D835E836F8318
:1013B00078878EE190E08E1B9F0B9C838B8312C0FD
:1013C000309781F00E2E04C0EE0CFF1C001F111F81
:1013D0000A94D2F7ED82FE820F831887CE1ADF0AB5
:1013E000DC82CB821A82CE0101960E944A0A28969C
:1013F000EAE00C94750CEF92FF920F931F937B0120
:101400008C0180E0E81680E0F80681E0080780E0C3
:10141000180788F48FEFE816F1040105110531F083
:1014200028F088E090E0A0E0B0E017C080E090E015
:10143000A0E0B0E012C080E0E81680E0F80680E0AE
:10144000080781E0180728F088E190E0A0E0B0E00C
:1014500004C080E190E0A0E0B0E020E230E040E0B5
:1014600050E0281B390B4A0B5B0B04C016950795FF
:10147000F794E7948A95D2F7F701EB52FE4F8081FB
:10148000281B310941095109C9011F910F91FF9092
:10149000EF900895DF92EF92FF920F931F93FC015C
:1014A000E480F58006811781D1808081823048F404
:1014B00080E090E0A0E1B0E0E82AF92A0A2B1B2B9B
:1014C000A5C0843009F49FC0823021F4EE24FF24AB
:1014D000870105C0E114F1040105110519F4E0E0EC
:1014E000F0E096C0628173819FEF623879070CF05B
:1014F0005BC022E83FEF261B370B2A3131052CF069
:1015000020E030E040E050E02AC0B801A701022E00
:1015100004C076956795579547950A94D2F781E070
:1015200090E0A0E0B0E004C0880F991FAA1FBB1F85
:101530002A95D2F70197A109B1098E219F21A023F5
:10154000B1230097A105B10521F081E090E0A0E072
:10155000B0E09A01AB01282B392B4A2B5B2BDA0127
:10156000C9018F779070A070B07080349105A1058B
:10157000B10539F427FF09C0205C3F4F4F4F5F4F43
:1015800004C0215C3F4F4F4F5F4FE0E0F0E0203060
:10159000A0E03A07A0E04A07A0E45A0710F0E1E013
:1015A000F0E079018A0127C06038710564F5FB011C
:1015B000E158FF4FD801C7018F779070A070B070CD
:1015C00080349105A105B10539F4E7FE0DC080E432
:1015D00090E0A0E0B0E004C08FE390E0A0E0B0E0D5
:1015E000E80EF91E0A1F1B1F17FF05C01695079569
:1015F000F794E794319687E016950795F794E7946A
:101600008A95D1F705C0EE24FF248701EFEFF0E0C3
:101610006E2F679566276795902F9F77D794DD2467
:10162000D7948E2F8695492F462B582F5D29B701C9
:10163000CA011F910F91FF90EF90DF900895FC0178
:10164000DB01408151812281622F6F7770E0221F80
:101650002227221F9381892F880F822B282F30E089
:10166000991F9927991F11969C9311972115310560
:10167000A9F5411551056105710511F482E037C0E6
:1016800082E89FEF13969C938E9312979A01AB0179
:1016900067E0220F331F441F551F6A95D1F783E07F
:1016A0008C930DC0220F331F441F551F12968D912E
:1016B0009C911397019713969C938E9312972030C9
:1016C00080E0380780E0480780E4580758F3149614
:1016D0002D933D934D935C93179708952F3F3105BC
:1016E00079F4411551056105710519F484E08C9375
:1016F000089564FF03C081E08C9312C01C9210C057
:101700002F57304013963C932E93129783E08C937F
:1017100087E0440F551F661F771F8A95D1F77064C5
:1017200014964D935D936D937C93179708951F9333
:10173000DC01FB019C91923008F447C0808182302B
:1017400008F443C0943051F411961C91843099F5FB
:101750008181682F70E0611B71093FC0843021F0E6
:10176000923031F48230B9F18181882389F12DC022
:1017700011961C9111978230F1F081811817D9F4DC
:1017800012962D913C911397828193818217930732
:1017900094F028173907BCF014968D919D910D9007
:1017A000BC91A02D248135814681578128173907A6
:1017B0004A075B0718F4112341F00AC08217930708
:1017C000A407B50740F4112319F061E070E005C0EB
:1017D0006FEF7FEF02C060E070E0CB011F910895D2
:1017E000A0E0B0E0E6EFFBE00C94590CEC01A8801F
:1017F000B980CA80DB80A114B104C104D10441F4D2
:1018000084E2A82E89EDB82E8BE5C82E87E0D82E6D
:10181000C601B5012DE133EF41E050E00E94A70C75
:1018200027EA31E440E050E00E94880C7B018C0103
:10183000C601B5012DE133EF41E050E00E94A70C55
:10184000CA01B9012CEE34EF4FEF5FEF0E94880C14
:101850006E0D7F1D801F911F97FF04C06150704067
:1018600080409048688379838A839B839B013F777C
:10187000C901CDB7DEB7EAE00C94750C0E94F00BFD
:10188000089585ED92E00E94F00B0895A0E0B0E08D
:101890008093D5029093D602A093D702B093D8023A
:1018A00008952F923F924F925F926F927F928F9204
:1018B0009F92AF92BF92CF92DF92EF92FF920F93DF
:1018C0001F93CF93DF93CDB7DEB7CA1BDB0B0FB6E9
:1018D000F894DEBF0FBECDBF09942A8839884888A6
:1018E0005F846E847D848C849B84AA84B984C8843C
:1018F000DF80EE80FD800C811B81AA81B981CE0F33
:10190000D11D0FB6F894DEBF0FBECDBFED01089517
:10191000629FD001739FF001829FE00DF11D649FD3
:10192000E00DF11D929FF00D839FF00D749FF00D5F
:10193000659FF00D9927729FB00DE11DF91F639F00
:10194000B00DE11DF91FBD01CF011124089597FBD2
:10195000092E05260ED057FD04D014D00AD0001C45
:1019600038F450954095309521953F4F4F4F5F4F3C
:101970000895F6F790958095709561957F4F8F4FFC
:101980009F4F0895A1E21A2EAA1BBB1BFD010DC09B
:10199000AA1FBB1FEE1FFF1FA217B307E407F5071F
:1019A00020F0A21BB30BE40BF50B661F771F881FFB
:1019B000991F1A9469F760957095809590959B0191
:0C19C000AC01BD01CF010895F894FFCFE9
:1019CC00014992922424494992922424496DDBDBEB
:1019DC00B6B66D49929224244949929224244980A6
:1019EC0001C0026006200C18180C20066002C00111
:1019FC0080800140022004100808100420024001DD
:101A0C00801F002E007C00F800F001E002C007806F
:101A1C000F001F002E007C00F80F001E002C007819
:101A2C0000F000E001C0028007000F001E002C0037
:101A3C007800F007000E001C0038007000E000C0B9
:101A4C000180030007000E001C0038007000E0034A
:101A5C000006000C00180030006000C0008001007F
:101A6C00030006000C00180030006000C0010002EA
:101A7C00000400080010002000400080000001005D
:101A8C00020004000800100020004000800000004C
:101A9C00000000000000010202030303030404041D
:101AAC0004040404040505050505050505050505DF
:101ABC0005050505050606060606060606060606BF
:101ACC0006060606060606060606060606060606AA
:101ADC00060606060607070707070707070707078F
:101AEC00070707070707070707070707070707077A
:101AFC00070707070707070707070707070707076A
:101B0C000707070707070707070707070707070759
:101B1C00070707070708080808080808080808083E
:101B2C000808080808080808080808080808080829
:101B3C000808080808080808080808080808080819
:101B4C000808080808080808080808080808080809
:101B5C0008080808080808080808080808080808F9
:101B6C0008080808080808080808080808080808E9
:101B7C0008080808080808080808080808080808D9
:101B8C0008080808080808080808080808080808C9
:0A1B9C000808080808010000000016
:00000001FF
