:100000000C9458000C9475000C9475000C947500B9
:100010000C9475000C9475000C9475000C94E3011D
:100020000C9475000C9475000C9475000C9475007C
:100030000C9475000C9475000C9475000C9475006C
:100040000C9475000C9475000C9475000C9475005C
:100050000C9475000C9475000C9475000C9475004C
:100060000C9475000C9475006E61765F6D656E750D
:10007000007265762030303100656E74725F74787E
:100080007400656E74725F6E756D00766965775F7A
:1000900074787400766965775F6E756D006572734C
:1000A000655F74787400657273655F6E756D0000CE
:1000B00011241FBECFEFD8E0DEBFCDBF11E0A0E01E
:1000C000B1E0ECEFF6E002C005900D92AC30B10764
:1000D000D9F711E0ACE0B1E001C01D92A73EB10735
:1000E000E1F70E94C2020C947C030C9400005A9821
:1000F00087FD5A9A5B9886FD5B9A5C9885FD5C9AB1
:100100005D9884FD5D9A2B9A85E08A95F1F72B988E
:1001100008951F93182F0E947700812F8295807F6A
:100120000E94770088EC90E00197F1F71F91089505
:100130001F93182F2C980E948900143018F0103843
:1001400040F005C080E49FE10197F1F710E81093BB
:1001500000011F91089580910C018B7F80930C0109
:1001600088600E949800089580910C01982F9460F7
:1001700090930C018C600E949800089580910C016E
:100180008E7F80930C0188600E9498000895809172
:100190000C01982F916090930C0189600E94980047
:1001A000089580910C018D7F80930C0188600E94DE
:1001B0009800089580910C01982F926090930C0103
:1001C0008A600E94980008952C9A0E94890080916C
:1001D00000018F5F80930001883821F0883C29F46A
:1001E00080E801C080EC0E94980008951F93182FAA
:1001F00004C080E20E94E40011501123D1F71F9146
:1002000008950F931F93CF93DF938C01C0E0D0E04C
:1002100002C00E94E400F801EC0FFD1F84918823C6
:1002200021F02196C930D105A1F7DF91CF911F911F
:100230000F910895CF93DF93EC0103C00E94E40077
:10024000219688818823D1F7DF91CF91089580E8A6
:100250000E949800089581E00E94980008950F93ED
:100260001F93559A549A539A529A239A249A249AED
:100270002B982C9880E69AEE0197F1F780E30E9484
:10028000770080E190E40197F1F780E30E94770026
:1002900080E991E00197F1F780E30E94770008EC94
:1002A00010E0C8010197F1F780E20E947700C801D1
:1002B0000197F1F788E20E94980088E00E94980078
:1002C00081E00E94980086E00E9498008CE00E94E5
:1002D000980084E080930C0182E080930D0186E019
:1002E0000E9498001F910F9108958091E101089557
:1002F0008091E10184FF09C08091E1018F7E8093AC
:10030000E1011092E10184E008958091E10180FF14
:1003100008C08091E1018E7F8093E1011092E1019C
:100320001EC08091E10181FF09C08091E1018D7FB4
:100330008093E1011092E10181E008958091E10153
:1003400082FF09C08091E1018B7F8093E1011092CF
:10035000E10182E008958091E10183FD02C080E027
:1003600008958091E101877F8093E1011092E1017E
:1003700083E00895259AE0EBF0E08081826080833D
:10038000E1EBF0E08081876080838DE48093B300AF
:10039000E0E7F0E0808182608083B99A78940895E4
:1003A0001092E1011092E6011092E5011092E40131
:1003B00010920F0110929801579820982198229836
:1003C0000E94BA0108951F920F920FB60F92112446
:1003D0008F934E9910C08091E601843120F4809172
:1003E000E6018F5F0FC08091E10181608093E101A0
:1003F0001092E60109C08091E601882329F08091DE
:10040000E60181508093E6011A9910C08091E501C0
:10041000843120F48091E5018F5F0FC08091E1016C
:1004200082608093E1011092E50109C08091E501AD
:10043000882329F08091E50181508093E5014F994F
:1004400010C08091E401843120F48091E4018F5F39
:100450000FC08091E10184608093E1011092E4017A
:1004600009C08091E401882329F08091E401815042
:100470008093E401199910C080910F01843120F418
:1004800080910F018F5F0FC08091E10188608093A0
:10049000E10110920F0109C080910F01882329F01A
:1004A00080910F01815080930F01189910C08091A5
:1004B0009801843120F4809198018F5F0FC0809162
:1004C000E10180618093E1011092980109C080915F
:1004D0009801882329F08091980181508093980198
:1004E0008F910F900FBE0F901F9018950E942B01B7
:1004F00086EA90E00E94010108950E942B018DE997
:1005000090E00E94010108950E942B0184E990E08F
:100510000E94010108950E942B018BE890E00E9447
:10052000010108950E942B0182E890E00E940101E0
:1005300008950E942B0189E790E00E94010108952F
:100540008230A1F0833028F4882351F08130C9F43F
:100550000AC0843089F0843060F0853091F40FC097
:100560000E94990208950E94920208950E948B02AF
:1005700008950E94840208950E947D0208950E94B9
:1005800076020895EF92FF921F93DF93CF93CDB73A
:10059000DEB72A970FB6F894DEBF0FBECDBF0E941C
:1005A0002F010E94D00180E80E94980088E690E028
:1005B0000E94010180EC0E94980081E790E00E9477
:1005C000010180ED97E00E9429030E942B0110E0B9
:1005D0007E010894E11CF11C0E9475018823E1F35F
:1005E0000E947801843021F4812F0E94A00220C053
:1005F000882341F40E94270180E10E94F60081E0F7
:1006000091E009C0813051F40E94270180E10E94ED
:10061000F60086E091E00E941A010AC0823021F4BF
:10062000163030F41F5F04C0833011F411111150E3
:1006300084EF91E00E94290380EC0E949800812FB2
:1006400090E0B7014AE050E00E9437030E941A018F
:10065000C3CF20E030E040EA5FE005C0FA01319707
:10066000F1F72F5F3F4F28173907C0F30895FB01BB
:100670009F01E8944230C4F04532B4F44A3029F482
:1006800097FB1EF4909581959F4F642F77270E94CA
:100690006803805D8A330CF0895D8193CB010097FC
:1006A000A1F716F45DE251931082C9010C9458032E
:1006B000DC01FC01672F71917723E1F7329704C0C9
:1006C0007C916D9370836291AE17BF07C8F3089554
:1006D000AA1BBB1B51E107C0AA1FBB1FA617B70768
:1006E00010F0A61BB70B881F991F5A95A9F7809584
:0C06F0009095BC01CD010895F894FFCF57
:0C06FC00804C465421005247542100005D
:00000001FF
