:100000000C9434000C9451000C9451000C94510049
:100010000C9451000C9451000C9451000C9451001C
:100020000C9451000C9451000C9451000C9451000C
:100030000C9451000C9451000C9451000C945100FC
:100040000C9451000C9451000C94A6010C94D60110
:100050000C9451000C9451000C9451000C945100DC
:100060000C9451000C94510011241FBECFEFD8E026
:10007000DEBFCDBF13E0A0E0B1E0ECE4FDE002C0E4
:1000800005900D92AC30B107D9F713E0ACE0B3E0C6
:1000900001C01D92A53EB107E1F70E9453000C94E8
:1000A000A4060C940000BF92CF92DF92EF92FF92D1
:1000B0000F931F93DF93CF93CDB7DEB7C054D040DB
:1000C0000FB6F894DEBF0FBECDBF60E071EE80E0EA
:1000D00090E00E94080100D080E091E0EDB7FEB70B
:1000E000928381830E94250188E091E0EDB7FEB7FD
:1000F000928381830E94250100D085E491E0EDB7D1
:10010000FEB792838183148213820E9425018FE7B8
:1001100091E0EDB7FEB792838183148213820E942F
:1001200025018AEB91E0EDB7FEB7928381831482BB
:1001300013820E94250185EF91E0EDB7FEB792830F
:100140008183148213820E94250180E392E0EDB73F
:10015000FEB792838183148213820E9425018BE66D
:1001600092E0EDB7FEB792838183148213820E94DE
:10017000250186EA92E0EDB7FEB79283818381E4A0
:1001800090E0948383830E9425018AEB92E0EDB78F
:10019000FEB79283818382E290E0948383830E94FE
:1001A000250188ED92E0EDB7FEB79283818382E26C
:1001B00091E1948383830E9425010F900F900F900B
:1001C0000F906E010894C11CD11C88EE93E00E9430
:1001D000060383E20E94F3020E9405018823A9F32B
:1001E0000E94E902B82E86017601E80EF11C05C0D6
:1001F0000E942201F80181938F010E151F05C1F79E
:10020000C6016B2D0E941403E0CF0E94E9020895FD
:100210008F92AF92CF92EF920F93F89420E034E256
:1002200044EF50E000E0E8E0EE2ECC24C394AA2492
:1002300088240E94130278940F91EF90CF90AF9092
:100240008F9008950E94EE020895EF92FF920F930F
:100250001F93DF93CF93CDB7DEB7FE01399601919F
:100260001191FE2EEF2E0E940103863520F084E1CD
:1002700090E00E940603C8016F2D7E2D0E94E603C8
:10028000CF91DF911F910F91FF90EF90089520E0A3
:1002900030E040EA5FE005C0FA013197F1F72F5FE7
:1002A0003F4F28173907C0F30895EF92FF920F933D
:1002B0001F937B018C0184E0EE0CFF1C001F111FBB
:1002C0008A95D1F7CA01B901A80197010E94C40318
:1002D000215030403093C5002093C4001F910F91EE
:1002E000FF90EF90089581118F5F982F80FF04C0D9
:1002F0008091C200806103C08091C2008F7E809394
:10030000C2008091C20091FF04C08091C20080624F
:1003100003C08091C2008F7D8093C2008091C20093
:1003200008958FB7F8948FBF80919603882341F08A
:1003300080910D03882321F08091C100806203C069
:100340008091C1008F7D8093C10008951F920F920C
:100350000FB60F9211242F933F934F935F936F9398
:100360007F938F939F93AF93BF93EF93FF9380916E
:10037000C0009091C0006091C60084FD06C092FD4F
:1003800004C087E993E00E943103FF91EF91BF9190
:10039000AF919F918F917F916F915F914F913F911D
:1003A0002F910F900FBE0F901F9018951F920F92D4
:1003B0000FB60F9211242F933F934F935F936F9338
:1003C0007F938F939F93AF93BF93EF93FF9380910E
:1003D0009603882331F08FE893E00E946F038093A7
:1003E000C60080919603882341F080910D038823F5
:1003F00021F08091C100806203C08091C1008F7D97
:100400008093C100FF91EF91BF91AF919F918F9128
:100410007F916F915F914F913F912F910F900FBE00
:100420000F901F9018958F92AF92CF92EF920F93EB
:100430001F93DF93CF93CDB7DEB71E2DEC2CEDEFDE
:10044000F2E0F093E203E093E10380920C03E1E039
:10045000E0930D03E0930E03E091C100EF7EE09383
:10046000C100E091C100E77FE093C100E091C100CD
:10047000EF77E093C100E091C100EF7DE093C10010
:10048000E091C2000295000F000F007CEF73E02B9B
:10049000E093C2000E945501812F8550843018F5E9
:1004A000212F30E02550304020FF04C08091C20051
:1004B000826003C08091C2008D7F8093C2008091D2
:1004C000C20021FF04C08091C200846003C08091FB
:1004D000C2008B7F8093C2008091C2008091C100D6
:1004E0008B7F8093C100193079F48091C2008260C3
:1004F0008093C2008091C20084608093C20080918A
:10050000C10084608093C1008E2D8150823070F4D0
:1005100081E0E81621F08091C200886003C08091DC
:10052000C200877F8093C2008091C2008A2D0E9402
:10053000730187E993E06FE973E040E40E945F0391
:100540008FE893E06FE073E040E80E945F038091E2
:10055000C10080688093C1008091C1008062809357
:10056000C1008091C10080618093C1008091C10071
:1005700088608093C1007894CF91DF911F910F9193
:10058000EF90CF90AF908F900895682F8FE893E011
:100590000E94E10208951F93182F8A3019F48DE00C
:1005A0000E94CB020E940103863520F084E190E096
:1005B0000E940603812F0E94F30280E090E01F91C9
:1005C00008951F931FB7F8940E9431031FBF1F9116
:1005D000089587E993E00E949C03089587E993E0DA
:1005E0000E94A20308951F93682F8FE893E00E9452
:1005F000E102182F882311F00E949101812F1F9191
:1006000008958FE893E00E949C03089520E030E075
:1006100040EA5FE005C0FA013197F1F72F5F3F4FE5
:1006200028173907C0F30895EF92FF920F931F9395
:10063000CF93DF937C01C0E0D0E0062F10E007C02D
:10064000F701EC0FFD1F80810E94F3022196C01775
:10065000D107B4F3DF91CF911F910F91FF90EF90ED
:100660000895DC0113964D915C91149712968C912C
:10067000129790E001974817590718F020E030E0F2
:1006800003C09A012F5F3F4F15968D919C9116974D
:100690002817390711F480E00895ED91FC91119726
:1006A000E40FF51F608314963C932E9313971796CF
:1006B0008C9117978F5F17968C9381E00895FC01BA
:1006C000423058F0009749F06115710531F071839F
:1006D000608342830E94AA03089580E00895DC01AC
:1006E00015962D913C91169713968D919C91149788
:1006F0008217930711F4E0E01DC0ED91FC91119772
:10070000E20FF31FE08112968C91129790E001970F
:100710002817390718F080E090E002C0C90101965F
:1007200016969C938E93159717968C9117978150D8
:1007300017968C938E2F0895FC018FB7F8948FBF76
:10074000878108951F931FB7F8940E946F031FBFFE
:100750001F910895DC01009711F480E0089514962C
:100760001C921E92139716961C921E92159717961E
:100770001C921797EC911196FC918AE0DF011D9273
:100780008A95E9F781E00895A1E21A2EAA1BBB1B06
:10079000FD010DC0AA1FBB1FEE1FFF1FA217B3074D
:1007A000E407F50720F0A21BB30BE40BF50B661F63
:1007B000771F881F991F1A9469F760957095809527
:1007C00090959B01AC01BD01CF0108959C01AB0147
:1007D0008091E1039091E203B9010E94F003089532
:1007E000ABE0B0E0E6EFF3E00C946D063C012B01CA
:1007F0005A01FC0117821682838181FD03C06FEFCD
:100800007FEFC6C19AE0892E1E010894211C311C7D
:10081000F3012381F20123FD859123FF81912F01B3
:10082000882309F4B2C1853239F423FD859123FF71
:1008300081912F01853229F490E0B3010E94E305F4
:10084000E7CF982FFF24EE249924FFE1FF15D0F085
:100850009B3269F09C3228F4903259F0933291F433
:100860000EC09D3249F0903369F441E024C052E05B
:10087000F52A84E0F82A28C098E0F92A25C0E0E1AA
:10088000FE2A22C0F7FC29C0892F80538A3070F4D9
:10089000F6FE05C0989C902C1124980E15C0E89C7B
:1008A000E02C1124E80EF0E2FF2A0EC09E3229F45B
:1008B000F6FC6BC140E4F42A07C09C3619F450E8FA
:1008C000F52A02C0983649F4F20123FD959123FFE1
:1008D00091912F01992309F0B8CF892F8554833046
:1008E00018F08052833038F444E050E0A40EB51E76
:1008F0005FE359830FC0933631F0933779F0933526
:1009000009F056C020C0F5018081898342E050E0A3
:10091000A40EB51E610101E010E012C0F501C08017
:10092000D180F6FC03C06FEF7FEF02C0692D70E04D
:1009300042E050E0A40EB51EC6010E94D8058C010D
:100940005FE7F52214C0F501C080D180F6FC03C03A
:100950006FEF7FEF02C0692D70E042E050E0A40E1F
:10096000B51EC6010E94CD058C0150E8F52AF3FEA4
:1009700007C01AC080E290E0B3010E94E305EA9448
:100980008E2D90E008171907A8F30EC0F601F7FCAA
:100990008591F7FE81916F0190E0B3010E94E3051C
:1009A000E110EA94015010400115110579F7EAC0F1
:1009B000943611F0993669F5F7FE08C0F5012081EB
:1009C00031814281538184E090E00AC0F501808149
:1009D00091819C01442737FD4095542F82E090E09F
:1009E000A80EB91E9FE6F92257FF09C05095409501
:1009F000309521953F4F4F4F5F4FE0E8FE2ACA01E7
:100A0000B901A1012AE030E00E940F06D82ED218C9
:100A100040C0953729F41F2D1F7E2AE030E01DC00D
:100A20001F2D197F9F3661F0903720F4983509F01B
:100A3000ACC00FC0903739F0983709F0A6C004C099
:100A400028E030E00AC0106114FD146020E130E0BD
:100A500004C014FD166020E132E017FF08C0F50164
:100A6000608171818281938144E050E008C0F5018A
:100A700080819181BC0180E090E042E050E0A40ED2
:100A8000B51EA1010E940F06D82ED2188FE7F82EAE
:100A9000F122F6FE0BC05EEFF522D91438F4F4FE15
:100AA00007C0F2FC05C08FEEF82202C01D2D01C068
:100AB000192DF4FE0DC0FE01ED0DF11D8081803376
:100AC00019F499EEF92208C01F5FF2FE05C003C0B9
:100AD0008F2D867809F01F5F0F2DF3FC14C0F0FEF8
:100AE0000FC01E1510F09D2C0BC09D2C9E0C911A52
:100AF0001E2D06C080E290E0B3010E94E3051F5F57
:100B00001E15C0F304C01E1510F4E11A01C0EE2436
:100B100004FF0FC080E390E0B3010E94E30502FFF1
:100B20001DC001FD03C088E790E00EC088E590E09D
:100B30000BC0802F867891F001FF02C08BE201C0CC
:100B400080E2F7FC8DE290E0B3010E94E30506C06D
:100B500080E390E0B3010E94E3059A94D914C0F3B6
:100B6000DA94F101ED0DF11D808190E0B3010E9456
:100B7000E305DD20A9F706C080E290E0B3010E9402
:100B8000E305EA94EE20C1F743CEF3016681778155
:100B9000CB012B96E2E10C948906FC010590615093
:100BA00070400110D8F7809590958E0F9F1F089583
:100BB000FC016150704001900110D8F7809590952C
:100BC0008E0F9F1F08950F931F93CF93DF938C0178
:100BD000EB018B8181FF1BC082FF0DC02E813F8105
:100BE0008C819D812817390764F4E881F98101938C
:100BF000F983E88306C0E885F985802F0995892B5C
:100C000031F48E819F8101969F838E8302C00FEF06
:100C10001FEFC801DF91CF911F910F910895FA0145
:100C2000AA27283051F1203181F1E8946F936E7F2B
:100C30006E5F7F4F8F4F9F4FAF4FB1E03ED0B4E01C
:100C40003CD0670F781F891F9A1FA11D680F791F5D
:100C50008A1F911DA11D6A0F711D811D911DA11D6E
:100C600020D009F468943F912AE0269F112430197E
:100C7000305D3193DEF6CF010895462F4770405D19
:100C80004193B3E00FD0C9F7F6CF462F4F70405DC8
:100C90004A3318F0495D31FD4052419302D0A9F723
:100CA000EACFB4E0A6959795879577956795BA951D
:100CB000C9F700976105710508959B01AC010A2EE3
:100CC00006945795479537952795BA95C9F7620FBA
:100CD000731F841F951FA01D08952F923F924F925E
:100CE0005F926F927F928F929F92AF92BF92CF92BC
:100CF000DF92EF92FF920F931F93CF93DF93CDB7C5
:100D0000DEB7CA1BDB0B0FB6F894DEBF0FBECDBF3C
:100D100009942A88398848885F846E847D848C840D
:100D20009B84AA84B984C884DF80EE80FD800C8116
:100D30001B81AA81B981CE0FD11D0FB6F894DEBFF9
:0C0D40000FBECDBFED010895F894FFCF69
:100D4C0048656C6C6F37300073657269616C5F70ED
:100D5C0072696E746C6E2054686520717569636B72
:100D6C002062726F776E20666F78206A756D706581
:100D7C0064206F76657220746865206C617A7920C6
:100D8C00646F672E0073657269616C5F6F75742098
:100D9C0054686520717569636B2062726F776E2081
:100DAC00666F78206A756D706564206F7665722049
:100DBC00746865206C617A7920646F672E0A003143
:100DCC0073657269616C5F6F75742054686520710E
:100DDC007569636B2062726F776E20666F78206A1C
:100DEC00756D706564206F76657220746865206C13
:100DFC00617A7920646F672E0A00327365726961BB
:100E0C006C5F6F75742054686520717569636B2015
:100E1C0062726F776E20666F78206A756D7065648C
:100E2C00206F76657220746865206C617A79206415
:100E3C006F672E0A003373657269616C5F6F75742E
:100E4C002054686520717569636B2062726F776ED0
:100E5C0020666F78206A756D706564206F76657298
:100E6C0020746865206C617A7920646F672E0A00A3
:100E7C003473657269616C5F6F757420546865209A
:100E8C00717569636B2062726F776E20666F782064
:100E9C006A756D706564206F766572207468652064
:100EAC006C617A7920646F672E0A003573657269FC
:100EBC00616C5F6F75742054686520717569636B24
:100ECC002062726F776E20666F78206A756D706520
:100EDC0064206F76657220746865206C617A792065
:100EEC00646F672E0A0054657374206368617261C5
:100EFC00637465723A2025630A0054657374206824
:100F0C00657861646563696D616C20696E74656791
:100F1C0065723A2025780A00546573742031362D99
:100F2C006269742068657861646563696D616C20C1
:100F3C00696E74656765723A2025780A00000000B6
:0C0F4C000200000000CB020000000000CA
:00000001FF
