:100000000C942E000C9438000C9438000C9438009A
:100010000C9438000C9438000C9438000C94380080
:100020000C9438000C9438000C9438000C94380070
:100030000C9438000C9438000C9438000C94380060
:100040000C9438000C9438000C9438000C94380050
:100050000C9438000C9438000C94380011241FBE06
:10006000CFEFD4E0DEBFCDBF0E943A000C94B900C0
:100070000C94000080E090E0089580E88093610097
:1000800083E0809361001092700088E08093B60056
:1000900088EC8093B30010926E0081E08093810021
:1000A0008093B0002091B6008091B60090E08470FB
:1000B000907030E021703070822B932B892B91F758
:1000C0004FEF51E0F89446BB47BB10928500109269
:1000D00084001092B200B99BFECF109281007894F8
:1000E000B09917C09091840080918500382F20E04E
:1000F000B901690F711DCB0178E18B36970724F0A8
:1001000080916600815008C0885E974114F081E0BC
:1001100006C0809166008F5F8093660080E05093F8
:100120008100882379F208950E943D0020E820BFD5
:1001300087E080937F008FEF85B98EB9E1E6F0E02C
:10014000208392E090831092C5008CE08093C400DD
:100150009093C000E1ECF0E080818861808386E0CC
:100160008093C20080E580936C002CBB2DBB08956A
:060170000895F894FFCF92
:00000001FF
