:100000000C94C5000C94E2000C94E2000C94E20005
:100010000C94E2000C94E2000C94E2000C94E200D8
:100020000C94E2000C94E2000C94E2000C94E200C8
:100030000C94E2000C9409050C94E2000C94E2008C
:100040000C94E2000C94E2000C94E2000C94E200A8
:100050000C94E2000C94E2000C94E2006E616E00DD
:10006000696E660073657269616C5F746573742094
:10007000312E31380D00495352206669666F5F702A
:1000800075745F62797465204572726F720D00003D
:10009000407A10F35A00A0724E18090010A5D4E857
:1000A0000000E87648170000E40B54020000CA9AEA
:1000B0003B000000E1F5050000809698000000403C
:1000C000420F000000A08601000000102700000081
:1000D00000E803000000006400000000000A0000C7
:1000E0000000000100000000002C76D888DC674F7B
:1000F0000823DFC1DFAE59E1B1B796E5E3E453C6AB
:100100003AE651997696E8E6C28426EB898C9B62A2
:10011000ED407C6FFCEFBC9C9F40F2BAA56FA5F44C
:1001200090055A2AF75C936B6CF9676DC11BFCE074
:10013000E40D47FEF520E6B500D0ED902E030094C7
:100140003577050080841E080000204E0A0000005C
:10015000C80C333333330F986E12831141EF8D2166
:1001600014893BE65516CFFEE6DB18D1844B381BCD
:10017000F77C1D901DA4BBE424203284725E228192
:1001800000C9F124ECA1E53D270011241FBECFEFEB
:10019000D4E0DEBFCDBF11E0A0E0B1E0ECE0F0E1E3
:1001A00002C005900D92AE30B107D9F711E0AEE074
:1001B000B1E001C01D92AD32B107E1F70E946D04BC
:1001C0000C9404080C940000A1E1B0E0EAEEF0E029
:1001D0000C94CD073C017F876E876A01FC01178272
:1001E0001682838181FD03C06FEF7FEF71C39E0193
:1001F0002F5F3F4F398B288BF3012381EE85FF85DD
:1002000023FD859123FF8191FF87EE87882309F4E1
:100210005CC3853251F4EE85FF8523FD859123FF74
:100220008191FF87EE87853229F490E0B3010E9427
:10023000E706E2CF982F10E0882499241032B0F41A
:100240009B3269F09C3228F4903251F0933271F471
:100250000BC09D3239F0903349F4116028C0126010
:10026000146025C0186023C0106121C017FD2AC08A
:10027000892F80538A3078F416FF06C0FAE09F9EDB
:10028000902C1124980E13C03AE0839E802C1124E8
:10029000880E10620CC09E3221F416FD16C3106445
:1002A00006C09C3611F4106802C0983659F4EE85E9
:1002B000FF8523FD959123FF9191FF87EE87992379
:1002C00009F0BCCF892F8554833020F4812F8061C1
:1002D000905E07C0892F8556833008F0A1C1812F19
:1002E0008F7E86FD02C076E0972E6FE3F62EF82211
:1002F000953619F4F0E4FF2A07C0963619F420E881
:10030000F22A02C091109A94F7FE0BC03BE3391514
:1003100020F427E05CE3B52E0EC0B92CB39427E09F
:100320000AC047E0491528F427E0BB2447E0942E93
:1003300002C0292DBB24C60104969D878C87F60137
:100340006081718182819381AE014F5F5F4F0B2D80
:100350000E94F9056C010981202E332400FF04C09E
:1003600003FD02C01DE209C0F1FE02C01BE205C090
:10037000F2FC02C010E001C010E2C1018C7090706C
:10038000892BB9F1112311F483E001C084E08815B1
:1003900010F088240AC0881AF3FC07C080E290E0BD
:1003A000B3010E94E7068A94C9F7112329F0812F2F
:1003B00090E0B3010E94E70623FE03C00CE510E0C5
:1003C0000EC000E610E00BC0E114F10409F0805209
:1003D00090E0B3010E94E7060F5F1F4F05C0EF2CAE
:1003E000FF24F0E1EF22FF24F8018491882361F7D4
:1003F00014C1F7FE12C0BC0C24FE04C08A818133F4
:1004000009F4BA941B141CF0BB24B3942DC0F8E07B
:10041000FB1550F538E0B32E27C0F6FC25C0892D1A
:1004200090E08C159D054CF02CEFC2162FEFD206F4
:1004300024F030E8F32A01C09A94992049F0E2E0D0
:10044000F0E0EC0FFD1FE90DF11D80818033A1F379
:10045000F7FE0AC0B92CB394892D90E0C816D906CE
:1004600014F0992401C09C18F7FC03C025E030E08B
:1004700009C01C141D041CF021E030E003C09601EB
:100480002F5F3F4F112311F02F5F3F4F992029F02D
:10049000892D90E00196280F391F882D90E02817AC
:1004A000390714F0882401C0821A4F2C5524C20148
:1004B00089709070892B39F008C080E290E0B30118
:1004C0000E94E7068A948820C1F7112329F0812F22
:1004D00090E0B3010E94E70643FE07C008C080E336
:1004E00090E0B3010E94E7068A948820C1F7F7FEE6
:1004F00046C08601D7FE02C000E010E076010894F5
:10050000E11CF11CE01AF10A41E050E04C0F5D1FC4
:10051000E40EF51E26014B185108892D90E0AA24FF
:10052000BB24A81AB90A5FEF0F3F150729F48EE222
:1005300090E0B3010E94E706C016D10634F04016E1
:1005400051061CF4F701808101C080E30150104086
:100550000894E11CF11C0A151B052CF090E0B30176
:100560000E94E706E0CF0C151D0539F49A819633F9
:1005700018F4953311F424FE81E390E04BC08A8196
:10058000813309F00F7E90E0B3010E94E7069920C5
:10059000A1F08EE290E0B3010E94E70612E0E1E0F4
:1005A000F0E0EC0FFD1FE10FF11D1F5F808190E077
:1005B000B3010E94E7069A9491F744FC03C085E6D4
:1005C00090E002C085E490E0B3010E94E706D7FC0A
:1005D00005C0C114D10441F404FF06C0D094C194F5
:1005E000D108D3948DE201C08BE290E0B3010E9468
:1005F000E70680E305C08F5F26EF3FEFC20ED31EF4
:100600003AE0C316D104BCF790E0B3010E94E706BC
:10061000C601C096B3010E94E706CC84DD8452C1B6
:10062000933631F0933799F0933509F059C023C0D0
:10063000F601808189835E010894A11CB11C22E02F
:1006400030E0C20ED31E21E0E22EF12C12C0F601E2
:10065000A080B18016FD03C06FEF7FEF02C0692D4F
:1006600070E022E030E0C20ED31EC5010E94DC061D
:100670007C011F7713C0F601A080B18016FD03C076
:100680006FEF7FEF02C0692D70E022E030E0C20E14
:10069000D31EC5010E94D1067C01106813FF07C05C
:1006A0001BC080E290E0B3010E94E7068A94882D87
:1006B00090E0E816F906A8F30FC0F50117FD859143
:1006C00017FF81915F0190E0B3010E94E70681105E
:1006D0008A940894E108F108E114F10471F7F2C07A
:1006E000943611F0993689F517FF08C0F60120817C
:1006F00031814281538184E090E00AC0F60180811B
:1007000091819C01442737FD4095542F82E090E071
:10071000C80ED91E9FE6F92EF12257FF09C0509549
:100720004095309521953F4F4F4F5F4F90E8F92A04
:10073000CA01B901AE014F5F5F4F2AE030E00E946D
:100740003907E82EE889EE1A41C0953721F41F7E5B
:100750002AE030E01CC0197F9F3661F0903720F40A
:10076000983509F0B2C00FC0903739F0983709F0CA
:10077000ACC004C028E030E00AC0106114FD146071
:1007800020E130E004C014FD166020E132E017FFE4
:1007900008C0F601608171818281938144E050E05C
:1007A00008C0F60180819181BC0180E090E042E0C8
:1007B00050E0C40ED51EAE014F5F5F4F0E94390757
:1007C000E82E5889E51A8FE7F82EF122F6FE0BC0C5
:1007D0008EEFF822E91438F4F4FE07C0F2FC05C0ED
:1007E0009FEEF92202C01E2D01C0192DF4FE0DC08E
:1007F000FE01EE0DF11D8081803319F4E9EEFE2239
:1008000008C01F5FF2FE05C003C08F2D867809F077
:100810001F5F0F2DF3FC14C0F0FE0FC0181510F071
:100820009E2C0BC09E2C980C911A182D06C080E2AD
:1008300090E0B3010E94E7061F5F1815C0F304C0E3
:10084000181510F4811A01C0882404FF0FC080E33A
:1008500090E0B3010E94E70602FF1DC001FD03C046
:1008600088E790E00EC088E590E00BC0802F867886
:1008700091F001FF02C08BE201C080E2F7FC8DE243
:1008800090E0B3010E94E70606C080E390E0B30168
:100890000E94E7069A94E914C0F3EA94E1E0F0E0DC
:1008A000EC0FFD1FEE0DF11D808190E0B3010E9461
:1008B000E706EE2091F706C080E290E0B3010E94C7
:1008C000E7068A948820C1F797CCF3016681778187
:1008D000CB016196E2E10C94E90760E07BE480E003
:1008E00090E00E94900400D000D084E690E0EDB744
:1008F000FEB792838183148213820E94130728E833
:1009000033E10F900F900F900F9049E150E0CA0132
:100910000197F1F721503040D1F728E833E1F7CFC4
:100920000F931F930E94DE040E94D4058EE191E094
:100930006EE071E040E10E944F0500911E011091B0
:100940001F012091200130912101409122015091FD
:1009500023016091240170912501809126010E945C
:10096000B4041F910F9108950F931F93DF93CF93BA
:10097000CDB7DEB729970FB6F894DEBF0FBECDBF57
:1009800009831A832B833C834D835E836F8378872F
:100990008987AEE1B1E0FE01319689E001900D92C8
:1009A0008150E1F781E029960FB6F894DEBF0FBEC3
:1009B000CDBFCF91DF911F910F9108959B01AC01A5
:1009C00080E091E090932A0180932901789464E07B
:1009D000220F331F441F551F6A95D1F760E472E45C
:1009E0008FE090E00E94AB07C901DA010197A109ED
:1009F000B109292F3A2F4B2F55270196A11DB11D63
:100A00002093C50081508093C40088E98093C10081
:100A100008951F920F920FB60F9211242F933F93B8
:100A20004F935F936F937F938F939F93AF93BF93F6
:100A3000EF93FF936091C6008EE191E00E945A050A
:100A4000882359F400D086E790E0EDB7FEB7928393
:100A500081830E9413070F900F90FF91EF91BF9138
:100A6000AF919F918F917F916F915F914F913F9146
:100A70002F910F900FBE0F901F9018951F93182F56
:100A80008A3019F48DE00E943E058091C00085FFF8
:100A9000FCCF1093C60080E090E01F910895FC0108
:100AA00071836083428313821582148217821682B7
:100AB00010860895CF93DF93EC01462F2E813F815E
:100AC0006A817B812617370790F48C819D81820F84
:100AD000931F0E949707E881F981E80FF91F40836F
:100AE0008E819F8101969F838E8381E003C081E088
:100AF000888780E0DF91CF91089580E8809361003E
:100B000083E0809361001092700088E08093B600CB
:100B100088EC8093B30010926E0081E08093810096
:100B20008093B0002091B6008091B60090E0847070
:100B3000907030E021703070822B932B892B91F7CD
:100B40004FEF51E0F89446BB47BB109285001092DE
:100B500084001092B200B99BFECF1092810078946D
:100B6000B09917C09091840080918500382F20E0C3
:100B7000B901690F711DCB0178E18B36970724F01D
:100B800080916600815008C0885E974114F081E032
:100B900006C0809166008F5F8093660080E050936E
:100BA0008100882379F208950E947D0520E820BF06
:100BB00087E080937F008FEF85B98EB9E1E6F0E0A2
:100BC000208392E090831092C5008CE08093C40053
:100BD0009093C000E1ECF0E080818861808386E042
:100BE0008093C20080E580936C002CBB2DBB0895E0
:100BF0000895283008F027E03327DA01990F311DD6
:100C000087FD916000966105710539F432602E5FB1
:100C10003D9330E32A95E1F708959F3F30F0803807
:100C20007105610509F03C5F3C5F3D93913008F030
:100C30008068911DDF93CF931F930F93FF92EF92E4
:100C4000192F987F9695E92F96959695E90FFF278E
:100C5000E751FF4F99273327EE24FF24A701E7012F
:100C600005900894079428F4360FE71EF81E491FD4
:100C7000511D660F771F881F991F0694A1F70590D5
:100C8000079428F4E70EF81E491F561FC11D770F61
:100C9000881F991F661F0694A1F70590079428F4F2
:100CA000F80E491F561FC71FD11D880F991F661FB9
:100CB000771F0694A1F70590079420F4490F561F5B
:100CC000C71FD81F990F661F771F881F0694A9F7A3
:100CD00084911095177041F0D695C7955795479513
:100CE000F794E7941A95C1F7EFE8F0E0689415904F
:100CF000159135916591959105907FE27395E11875
:100D0000F10A430B560BC90BD009C0F7E10CF11ED9
:100D1000431F561FC91FD01D7EF4703311F48A95EE
:100D2000E6CFE894015030F0080F0AF400270217CC
:100D300008F4202F2395022F7A3328F079E37D934E
:100D40002A95E9F710C07D932A9589F60694979520
:100D50006795379517951794E118F10A430B560BD1
:100D6000C90BD00998F023957E9173957A3308F0DA
:100D700070E37C932013B8F77E9170617D9330F01F
:100D8000839571E37D9370E32A95E1F71124EF9049
:100D9000FF900F911F91CF91DF91992787FD90953B
:100DA0000895FC010590615070400110D8F78095BE
:100DB00090958E0F9F1F0895FC0161507040019027
:100DC0000110D8F7809590958E0F9F1F08950F936F
:100DD0001F93CF93DF938C01EB018B8181FF1BC0AD
:100DE00082FF0DC02E813F818C819D81281739079C
:100DF00064F4E881F9810193F983E88306C0E8850A
:100E0000F985802F0995892B31F48E819F81019678
:100E10009F838E8302C00FEF1FEFC801DF91CF9138
:100E20001F910F910895A0E0B0E0E9E1F7E00C9484
:100E3000DD07FE01359661917191A0912901B09174
:100E40002A0113968C911397886013968C93809146
:100E5000290190912A01AF010E94E400E09129014B
:100E6000F0912A012381277F23832096E2E00C94CE
:100E7000F907FA01AA27283051F1203181F1E894CD
:100E80006F936E7F6E5F7F4F8F4F9F4FAF4FB1E07D
:100E90003ED0B4E03CD0670F781F891F9A1FA11D78
:100EA000680F791F8A1F911DA11D6A0F711D811D79
:100EB000911DA11D20D009F468943F912AE0269F3E
:100EC00011243019305D3193DEF6CF010895462F9D
:100ED0004770405D4193B3E00FD0C9F7F6CF462F7E
:100EE0004F70405D4A3318F0495D31FD40524193E7
:100EF00002D0A9F7EACFB4E0A695979587957795A4
:100F00006795BA95C9F700976105710508959B012A
:100F1000AC010A2E06945795479537952795BA95B3
:100F2000C9F7620F731F841F951FA01D0895AA1B88
:100F3000BB1B51E107C0AA1FBB1FA617B70710F0C4
:100F4000A61BB70B881F991F5A95A9F780959095F6
:100F5000BC01CD010895A1E21A2EAA1BBB1BFD0105
:100F60000DC0AA1FBB1FEE1FFF1FA217B307E40788
:100F7000F50720F0A21BB30BE40BF50B661F771FE0
:100F8000881F991F1A9469F76095709580959095C0
:100F90009B01AC01BD01CF0108952F923F924F926A
:100FA0005F926F927F928F929F92AF92BF92CF92F9
:100FB000DF92EF92FF920F931F93CF93DF93CDB702
:100FC000DEB7CA1BDB0B0FB6F894DEBF0FBECDBF7A
:100FD00009942A88398848885F846E847D848C844B
:100FE0009B84AA84B984C884DF80EE80FD800C8154
:100FF0001B81AA81B981CE0FD11D0FB6F894DEBF37
:0C1000000FBECDBFED010895F894FFCFA6
:0E100C0000000002000000003E050000000091
:00000001FF
