:100000000C9434000C9451000C9451000C94510049
:100010000C9451000C9451000C9451000C9451001C
:100020000C9451000C9451000C9451000C9451000C
:100030000C9451000C9451000C9451000C945100FC
:100040000C9451000C9451000C94B6020C94510085
:100050000C94E6020C9451000C9451000C94510045
:100060000C9451000C94510011241FBECFEFD8E026
:10007000DEBFCDBF11E0A0E0B1E0ECE1FFE002C0E7
:1000800005900D92A433B107D9F712E0A4E3B1E0D3
:1000900001C01D92AC30B107E1F70E9453000C94EF
:1000A0008C070C9400002F923F924F925F926F92B8
:1000B0007F928F929F92AF92BF92CF92DF92EF92F8
:1000C000FF920F931F93CF93DF9382E061E00E9432
:1000D0007B0183E061E00E947B0184E061E00E949B
:1000E0007B0185E061E00E947B0186E061E00E9487
:1000F0007B0187E061E00E947B0188E061E00E9473
:100100007B0189E061E00E947B018AE060E00E945F
:100110007B018BE060E00E947B018CE060E00E944C
:100120007B018EE060E00E947B018FE060E00E9436
:100130007B0180E160E00E947B0181E160E00E9440
:100140007B0182E160E00E947B018AE061E00E9425
:10015000EF018BE061E00E94EF018CE061E00E9422
:10016000EF018EE061E00E94EF018FE061E00E940C
:10017000EF0180E161E00E94EF0181E161E00E9416
:10018000EF0182E161E00E94EF0160E071EE80E04A
:1001900090E00E94490200D080E091E0ADB7BEB788
:1001A00012969C938E9311970E94630244245524C7
:1001B0000F900F90F6E12F2EF1E03F2E8AE00E9483
:1001C000CF01682F82E00E94EF018BE00E94CF01F7
:1001D000682F83E00E94EF018CE00E94CF01682F1E
:1001E00084E00E94EF018EE00E94CF01682F85E03D
:1001F0000E94EF018FE00E94CF01682F86E00E94ED
:10020000EF0180E10E94CF01682F87E00E94EF019B
:1002100081E10E94CF01682F88E00E94EF0182E116
:100220000E94CF01682F89E00E94EF018AE00E94BE
:10023000CF013C018BE00E94CF01EC018CE00E94D9
:10024000CF015C018EE00E94CF014C018FE00E9443
:10025000CF016C0180E10E94CF017C0181E10E940D
:10026000CF018C0182E10E94CF01CC0FDD1FAA0CCF
:10027000BB1CAA0CBB1CCA0DDB1DC60DD71D63E041
:10028000880C991C6A95E1F7C80DD91D54E0CC0C77
:10029000DD1C5A95E1F7CC0DDD1D45E0EE0CFF1C91
:1002A0004A95E1F7CE0DDF1D36E0000F111F3A959C
:1002B000E1F7C00FD11F9695982F882797958795BE
:1002C000C80FD91FC415D50509F478CF00D000D0C8
:1002D000EDB7FEB73196ADB7BEB712963C922E92EF
:1002E0001197C283D3830E9463022E010F900F9057
:1002F0000F900F9063CF382F8830C8F4662361F4D5
:100300002AB181E090E002C0880F991F3A95E2F788
:10031000809582238AB908952AB181E090E002C0D5
:10032000880F991F3A95E2F7282B2AB908958E3045
:10033000D0F43850662361F424B181E090E002C02B
:10034000880F991F3A95E2F78095822384B9089522
:1003500024B181E090E002C0880F991F3A95E2F73E
:10036000282B24B908958431C8F43D50662361F4E4
:1003700027B181E090E002C0880F991F3A95E2F71B
:100380008095822387B9089527B181E090E002C06B
:10039000880F991F3A95E2F7282B27B90895482F1F
:1003A000883020F489B1282F30E010C08E3028F436
:1003B00083B1282F30E0485009C0843118F02FEF66
:1003C0003FEF0BC086B1282F30E04E5002C035956C
:1003D00027954A95E2F721703070C9010895382FAA
:1003E0008830D0F4662359F02BB181E090E002C050
:1003F000880F991F3A95E2F7282B2BB90BC02BB128
:1004000081E090E002C0880F991F3A95E2F780954D
:1004100082238BB98BB108958E30D8F4385066237F
:1004200059F025B181E090E002C0880F991F3A95FC
:10043000E2F7282B25B90BC025B181E090E002C07E
:10044000880F991F3A95E2F78095822385B985B187
:100450000895843110F08FEF08953E50662361F0C7
:1004600028B181E090E002C0880F991F3A95E2F729
:10047000282B28B988B1089528B181E090E002C006
:10048000880F991F3A95E2F78095822388B988B141
:1004900008958F92AF92CF92EF920F93F89420E04D
:1004A00034E244EF50E000E0E8E0EE2ECC24C394C8
:1004B000AA2488240E942C0378940F91EF90CF9067
:1004C000AF908F900895DF93CF93CDB7DEB7FE0145
:1004D000359681919191BF010E94CE04CF91DF9119
:1004E000089580E28093C0001092C10086E080935E
:1004F000C2000895EF92FF920F931F937B018C012E
:1005000084E0EE0CFF1C001F111F8A95D1F7CA0171
:10051000B901A80197010E94A504215030403093F1
:10052000C5002093C4001F910F91FF90EF90089594
:1005300081118F5F982F80FF04C08091C20080617D
:1005400003C08091C2008F7E8093C2008091C20060
:1005500091FF04C08091C200806203C08091C200FC
:100560008F7D8093C2008091C20008951F920F92E8
:100570000FB60F9211242F933F934F935F936F9376
:100580007F938F939F93AF93BF93EF93FF9380914C
:10059000C0009091C0006091C60084FD06C092FD2D
:1005A00004C08CEB91E00E941204FF91EF91BF9187
:1005B000AF919F918F917F916F915F914F913F91FB
:1005C0002F910F900FBE0F901F9018951F920F92B2
:1005D0000FB60F9211242F933F934F935F936F9316
:1005E0007F938F939F93AF93BF93EF93FF938091EC
:1005F0000402882369F00E940D04882339F084EBFB
:1006000091E00E9464048093C60005C01092040229
:1006100081E080930502FF91EF91BF91AF919F918F
:100620008F917F916F915F914F913F912F910F909B
:100630000FBE0F901F901895809105028823E1F35B
:1006400081E08093040284EB91E00E946404809333
:10065000C6001092050208952F923F924F925F922A
:100660006F927F928F929F92AF92CF92EF920F9361
:100670001F93DF93CF93CDB7DEB73B014C01190138
:100680002A011E2DEC2CF89486E291E09093090249
:10069000809308028091C100877F8093C100809180
:1006A000C1008F7E8093C1008091C1008F7B8093B9
:1006B000C1008091C1008F778093C1008091C200FA
:1006C0000295000F000F007C8F73802B8093C20077
:1006D000C401B3010E947A02812F8550843018F53D
:1006E000212F30E02550304020FF04C08091C2000F
:1006F000826003C08091C2008D7F8093C200809190
:10070000C20021FF04C08091C200846003C08091B8
:10071000C2008B7F8093C2008091C2008091C10093
:100720008B7F8093C100193079F48091C200826080
:100730008093C2008091C20084608093C200809147
:10074000C10084608093C1008E2D8150823070F48E
:1007500081E0E81621F08091C200886003C080919A
:10076000C200877F8093C2008091C2008A2D0E94C0
:100770009802C401B301A20191010E947A028CEB9C
:1007800091E064EC71E040E40E94400484EB91E06D
:1007900064E371E040E80E9440048091C1008860F9
:1007A0008093C1008091C10080618093C1008091DD
:1007B000C10080648093C1008091C10080688093F3
:1007C000C1001092040281E0809305027894CF91D9
:1007D000DF911F910F91EF90CF90AF909F908F90EE
:1007E0007F906F905F904F903F902F9008951F9350
:1007F000182F8A3019F48DE00E94F703812F0E9490
:1008000007040E941C0380E090E01F910895682F68
:1008100084EB91E00E949104089584EB91E00E94A2
:100820009F040895DC0113964D915C9114971296E4
:100830008C91129790E001974817590718F020E023
:1008400030E003C09A012F5F3F4F15968D919C9128
:1008500016972817390711F480E00895ED91FC915F
:100860001197E40FF51F608314963C932E93139712
:1008700017968C9117978F5F17968C9381E0089548
:10088000FC01423058F0009749F06115710531F0D4
:100890007183608342830E945004089580E008952C
:1008A000FC01009711F480E00895148213821682EF
:1008B0001582178242818081918160E070E050E072
:1008C0000E94C70481E00895DC0115962D913C91AA
:1008D000169713968D919C9114978217930711F494
:1008E000E0E01DC0ED91FC911197E20FF31FE08154
:1008F00012968C91129790E001972817390718F0FB
:1009000080E090E002C0C901019616969C938E93F8
:10091000159717968C911797815017968C938E2F59
:1009200008951F939C01809104028823E1F71FB76B
:10093000F894C9010E9412041FBF1F910895FC0181
:100940008FB7F8948FBF87810895A1E21A2EAA1B52
:10095000BB1BFD010DC0AA1FBB1FEE1FFF1FA2176F
:10096000B307E407F50720F0A21BB30BE40BF50B6C
:10097000661F771F881F991F1A9469F760957095F5
:10098000809590959B01AC01BD01CF010895DC01DC
:1009900001C06D9341505040E0F708959C01AB01B8
:1009A0008091080290910902B9010E94D80408952B
:1009B000ABE0B0E0EEEDF4E00C9455073C012B0108
:1009C0005A01FC0117821682838181FD03C06FEFFB
:1009D0007FEFC6C19AE0892E1E010894211C311CAC
:1009E000F3012381F20123FD859123FF81912F01E2
:1009F000882309F4B2C1853239F423FD859123FFA0
:100A000081912F01853229F490E0B3010E94CB0639
:100A1000E7CF982FFF24EE249924FFE1FF15D0F0B3
:100A20009B3269F09C3228F4903259F0933291F461
:100A30000EC09D3249F0903369F441E024C052E089
:100A4000F52A84E0F82A28C098E0F92A25C0E0E1D8
:100A5000FE2A22C0F7FC29C0892F80538A3070F407
:100A6000F6FE05C0989C902C1124980E15C0E89CA9
:100A7000E02C1124E80EF0E2FF2A0EC09E3229F489
:100A8000F6FC6BC140E4F42A07C09C3619F450E828
:100A9000F52A02C0983649F4F20123FD959123FF0F
:100AA00091912F01992309F0B8CF892F8554833074
:100AB00018F08052833038F444E050E0A40EB51EA4
:100AC0005FE359830FC0933631F0933779F0933554
:100AD00009F056C020C0F5018081898342E050E0D2
:100AE000A40EB51E610101E010E012C0F501C08046
:100AF000D180F6FC03C06FEF7FEF02C0692D70E07C
:100B000042E050E0A40EB51EC6010E94C0068C0152
:100B10005FE7F52214C0F501C080D180F6FC03C068
:100B20006FEF7FEF02C0692D70E042E050E0A40E4D
:100B3000B51EC6010E94B5068C0150E8F52AF3FEE9
:100B400007C01AC080E290E0B3010E94CB06EA948D
:100B50008E2D90E008171907A8F30EC0F601F7FCD8
:100B60008591F7FE81916F0190E0B3010E94CB0661
:100B7000E110EA94015010400115110579F7EAC01F
:100B8000943611F0993669F5F7FE08C0F501208119
:100B900031814281538184E090E00AC0F501808177
:100BA00091819C01442737FD4095542F82E090E0CD
:100BB000A80EB91E9FE6F92257FF09C0509540952F
:100BC000309521953F4F4F4F5F4FE0E8FE2ACA0115
:100BD000B901A1012AE030E00E94F706D82ED21810
:100BE00040C0953729F41F2D1F7E2AE030E01DC03C
:100BF0001F2D197F9F3661F0903720F4983509F04A
:100C0000ACC00FC0903739F0983709F0A6C004C0C7
:100C100028E030E00AC0106114FD146020E130E0EB
:100C200004C014FD166020E132E017FF08C0F50192
:100C3000608171818281938144E050E008C0F501B8
:100C400080819181BC0180E090E042E050E0A40E00
:100C5000B51EA1010E94F706D82ED2188FE7F82EF4
:100C6000F122F6FE0BC05EEFF522D91438F4F4FE43
:100C700007C0F2FC05C08FEEF82202C01D2D01C096
:100C8000192DF4FE0DC0FE01ED0DF11D80818033A4
:100C900019F499EEF92208C01F5FF2FE05C003C0E7
:100CA0008F2D867809F01F5F0F2DF3FC14C0F0FE26
:100CB0000FC01E1510F09D2C0BC09D2C9E0C911A80
:100CC0001E2D06C080E290E0B3010E94CB061F5F9C
:100CD0001E15C0F304C01E1510F4E11A01C0EE2465
:100CE00004FF0FC080E390E0B3010E94CB0602FF37
:100CF0001DC001FD03C088E790E00EC088E590E0CC
:100D00000BC0802F867891F001FF02C08BE201C0FA
:100D100080E2F7FC8DE290E0B3010E94CB0606C0B2
:100D200080E390E0B3010E94CB069A94D914C0F3FB
:100D3000DA94F101ED0DF11D808190E0B3010E9484
:100D4000CB06DD20A9F706C080E290E0B3010E9447
:100D5000CB06EA94EE20C1F743CEF301668177819A
:100D6000CB012B96E2E10C947107FC0105906150D8
:100D700070400110D8F7809590958E0F9F1F0895B1
:100D8000FC016150704001900110D8F7809590955A
:100D90008E0F9F1F08950F931F93CF93DF938C01A6
:100DA000EB018B8181FF1BC082FF0DC02E813F8133
:100DB0008C819D812817390764F4E881F9810193BA
:100DC000F983E88306C0E885F985802F0995892B8A
:100DD00031F48E819F8101969F838E8302C00FEF35
:100DE0001FEFC801DF91CF911F910F910895FA0174
:100DF000AA27283051F1203181F1E8946F936E7F5A
:100E00006E5F7F4F8F4F9F4FAF4FB1E03ED0B4E04A
:100E10003CD0670F781F891F9A1FA11D680F791F8B
:100E20008A1F911DA11D6A0F711D811D911DA11D9C
:100E300020D009F468943F912AE0269F11243019AC
:100E4000305D3193DEF6CF010895462F4770405D47
:100E50004193B3E00FD0C9F7F6CF462F4F70405DF6
:100E60004A3318F0495D31FD4052419302D0A9F751
:100E7000EACFB4E0A6959795879577956795BA954B
:100E8000C9F700976105710508959B01AC010A2E11
:100E900006945795479537952795BA95C9F7620FE8
:100EA000731F841F951FA01D08952F923F924F928C
:100EB0005F926F927F928F929F92AF92BF92CF92EA
:100EC000DF92EF92FF920F931F93CF93DF93CDB7F3
:100ED000DEB7CA1BDB0B0FB6F894DEBF0FBECDBF6B
:100EE00009942A88398848885F846E847D848C843C
:100EF0009B84AA84B984C884DF80EE80FD800C8145
:100F00001B81AA81B981CE0FD11D0FB6F894DEBF27
:0C0F10000FBECDBFED010895F894FFCF97
:100F1C004469676974616C696F2074657374657278
:100F2C00203033370A0044495020382D62697473DD
:100F3C003A2025780A000000000200000000F703A8
:040F4C0000000000A1
:00000001FF
