:100000000C943B000C9458000C9458000C9458002D
:100010000C9458000C9458000C9458000C94580000
:100020000C9458000C9458000C9458000C945800F0
:100030000C9458000C940E010C9458000C94580029
:100040000C9458000C9458000C9458000C945800D0
:100050000C9458000C9458000C94580049535220AA
:100060006669666F5F7075745F627974652045724A
:10007000726F720D000011241FBECFEFD4E0DEBFFF
:10008000CDBF11E0A0E0B1E0E2EAFAE002C00590E5
:100090000D92AE30B107D9F711E0AEE0B1E001C08A
:1000A0001D92AD32B107E1F70E945A000C944F0542
:1000B0000C94000080E090E0089580912401089560
:1000C0000F931F930E94E3000E941A028EE191E0B9
:1000D0006EE071E040E10E948C0100911E011091E0
:1000E0001F01209120013091210140912201509166
:1000F00023016091240170912501809126010E94C5
:10010000B9001F910F9108950895F8941092250158
:1001100010922401109223011092220178940895E4
:100120008EE191E00E9454010895682F8EE191E0E4
:1001300070E00E947B010895EF92FF920F931F934E
:10014000CF93DF937C01C0E0D0E0062F10E007C022
:10015000F701EC0FFD1F80810E94BA012196C017A4
:10016000D107B4F3DF91CF911F910F91FF90EF90E2
:1001700008950F931F93DF93CF93CDB7DEB72997E1
:100180000FB6F894DEBF0FBECDBF09831A832B8351
:100190003C834D835E836F8378878987AEE1B1E0CE
:1001A000FE01319689E001900D928150E1F781E0E6
:1001B00029960FB6F894DEBF0FBECDBFCF91DF9169
:1001C0001F910F9108959B01AC0180E091E0909305
:1001D0002A0180932901789464E0220F331F441F81
:1001E000551F6A95D1F760E472E48FE090E00E94B9
:1001F000F604C901DA010197A109B109292F3A2FA3
:100200004B2F55270196A11DB11D2093C50081508C
:100210008093C40088E98093C10008951F920F92D3
:100220000FB60F9211242F933F934F935F936F93C9
:100230007F938F939F93AF93BF93EF93FF936091BF
:10024000C6008EE191E00E949701882359F400D006
:100250008CE590E0EDB7FEB7928381830E943F0268
:100260000F900F90FF91EF91BF91AF919F918F9160
:100270007F916F915F914F913F912F910F900FBEA2
:100280000F901F9018951F93182F8A3019F48DE046
:100290000E9443018091C00085FFFCCF1093C600EF
:1002A00080E090E01F910895CF93DF93EC018E8161
:1002B0009F81892BC9F08C819D81E881F981E80FAC
:1002C000F91FE08101969D838C836A817B8186176B
:1002D000970720F00E94E2049D838C838E819F818A
:1002E00001979F838E8303C082E08887E0E08E2F92
:1002F000DF91CF910895FC01CB012481358162818A
:100300007381820F931F0E94E2040190F081E02D1F
:10031000E80FF91F80810895FC0171836083428397
:100320001382158214821782168210860895CF9345
:10033000DF93EC01462F2E813F816A817B81261756
:10034000370790F48C819D81820F931F0E94E204F5
:10035000E881F981E80FF91F40838E819F81019622
:100360009F838E8381E003C081E0888780E0DF91F6
:10037000CF910895982FA8958091C00085FFFCCF5C
:100380009093C600089580E88093610083E0809395
:1003900061001092700088E08093B60088EC809332
:1003A000B30010926E0081E0809381008093B000D2
:1003B0002091B6008091B60090E08470907030E09B
:1003C00021703070822B932B892B91F74FEF51E0E6
:1003D000F89446BB47BB109285001092840010929F
:1003E000B200B99BFECF109281007894B09917C0EB
:1003F0009091840080918500382F20E0B901690F29
:10040000711DCB0178E18B36970724F0809166004F
:10041000815008C0885E974114F081E006C0809149
:1004200066008F5F8093660080E050938100882390
:1004300079F208950E94C30120E820BF87E08093ED
:100440007F008FEF85B98EB9E1E6F0E0208392E07E
:1004500090831092C5008CE08093C4009093C000FC
:10046000E1ECF0E080818861808386E08093C200C7
:1004700080E580936C002CBB2DBB08950895A0E00F
:10048000B0E0E5E4F2E00C942805FE0135966191B8
:100490007191A0912901B0912A0113968C91139723
:1004A000886013968C938091290190912A01AF0165
:1004B0000E946502E0912901F0912A012381277FA2
:1004C00023832096E2E00C944405ABE0B0E0EBE639
:1004D000F2E00C9418053C012B015A01FC01178233
:1004E0001682838181FD03C06FEF7FEFC6C19AE062
:1004F000892E1E010894211C311CF3012381F20175
:1005000023FD859123FF81912F01882309F4B2C136
:10051000853239F423FD859123FF81912F018532A6
:1005200029F490E0B3010E945804E7CF982FFF24EC
:10053000EE249924FFE1FF15D0F09B3269F09C3244
:1005400028F4903259F0933291F40EC09D3249F064
:10055000903369F441E024C052E0F52A84E0F82A9F
:1005600028C098E0F92A25C0E0E1FE2A22C0F7FC65
:1005700029C0892F80538A3070F4F6FE05C0989CFC
:10058000902C1124980E15C0E89CE02C1124E80E44
:10059000F0E2FF2A0EC09E3229F4F6FC6BC140E463
:1005A000F42A07C09C3619F450E8F52A02C09836A0
:1005B00049F4F20123FD959123FF91912F01992395
:1005C00009F0B8CF892F8554833018F080528330DA
:1005D00038F444E050E0A40EB51E5FE359830FC029
:1005E000933631F0933779F0933509F056C020C037
:1005F000F5018081898342E050E0A40EB51E6101BF
:1006000001E010E012C0F501C080D180F6FC03C00B
:100610006FEF7FEF02C0692D70E042E050E0A40E62
:10062000B51EC6010E944D048C015FE7F52214C07F
:10063000F501C080D180F6FC03C06FEF7FEF02C0F0
:10064000692D70E042E050E0A40EB51EC6010E9484
:1006500042048C0150E8F52AF3FE07C01AC080E27C
:1006600090E0B3010E945804EA948E2D90E00817A0
:100670001907A8F30EC0F601F7FC8591F7FE8191EA
:100680006F0190E0B3010E945804E110EA94015018
:1006900010400115110579F7EAC0943611F099362A
:1006A00069F5F7FE08C0F50120813181428153814F
:1006B00084E090E00AC0F501808191819C0144278B
:1006C00037FD4095542F82E090E0A80EB91E9FE6BA
:1006D000F92257FF09C050954095309521953F4F1D
:1006E0004F4F5F4FE0E8FE2ACA01B901A1012AE09D
:1006F00030E00E948404D82ED21840C0953729F4E7
:100700001F2D1F7E2AE030E01DC01F2D197F9F3650
:1007100061F0903720F4983509F0ACC00FC09037E5
:1007200039F0983709F0A6C004C028E030E00AC0CC
:10073000106114FD146020E130E004C014FD166067
:1007400020E132E017FF08C0F501608171818281EC
:10075000938144E050E008C0F50180819181BC01A3
:1007600080E090E042E050E0A40EB51EA1010E949E
:100770008404D82ED2188FE7F82EF122F6FE0BC093
:100780005EEFF522D91438F4F4FE07C0F2FC05C080
:100790008FEEF82202C01D2D01C0192DF4FE0DC0F0
:1007A000FE01ED0DF11D8081803319F499EEF922DF
:1007B00008C01F5FF2FE05C003C08F2D867809F0C8
:1007C0001F5F0F2DF3FC14C0F0FE0FC01E1510F0BC
:1007D0009D2C0BC09D2C9E0C911A1E2D06C080E2F4
:1007E00090E0B3010E9458041F5F1E15C0F304C0BF
:1007F0001E1510F4E11A01C0EE2404FF0FC080E3BF
:1008000090E0B3010E94580402FF1DC001FD03C027
:1008100088E790E00EC088E590E00BC0802F8678D6
:1008200091F001FF02C08BE201C080E2F7FC8DE293
:1008300090E0B3010E94580406C080E390E0B30149
:100840000E9458049A94D914C0F3DA94F101ED0D82
:10085000F11D808190E0B3010E945804DD20A9F7CA
:1008600006C080E290E0B3010E945804EA94EE20B2
:10087000C1F743CEF30166817781CB012B96E2E18C
:100880000C943405FC010590615070400110D8F7BC
:10089000809590958E0F9F1F0895FC0161507040C8
:1008A00001900110D8F7809590958E0F9F1F0895A5
:1008B0000F931F93CF93DF938C01EB018B8181FF0B
:1008C0001BC082FF0DC02E813F818C819D81281726
:1008D000390764F4E881F9810193F983E88306C05C
:1008E000E885F985802F0995892B31F48E819F81C8
:1008F00001969F838E8302C00FEF1FEFC801DF9127
:10090000CF911F910F910895FA01AA27283051F134
:10091000203181F1E8946F936E7F6E5F7F4F8F4F30
:100920009F4FAF4FB1E03ED0B4E03CD0670F781F8F
:10093000891F9A1FA11D680F791F8A1F911DA11D74
:100940006A0F711D811D911DA11D20D009F46894AD
:100950003F912AE0269F11243019305D3193DEF655
:10096000CF010895462F4770405D4193B3E00FD00B
:10097000C9F7F6CF462F4F70405D4A3318F0495DF6
:1009800031FD4052419302D0A9F7EACFB4E0A695D9
:100990009795879577956795BA95C9F700976105FB
:1009A000710508959B01AC010A2E06945795479551
:1009B00037952795BA95C9F7620F731F841F951F46
:1009C000A01D0895AA1BBB1B51E107C0AA1FBB1F96
:1009D000A617B70710F0A61BB70B881F991F5A95CB
:1009E000A9F780959095BC01CD010895A1E21A2E3A
:1009F000AA1BBB1BFD010DC0AA1FBB1FEE1FFF1FC3
:100A0000A217B307E407F50720F0A21BB30BE40B12
:100A1000F50B661F771F881F991F1A9469F7609559
:100A20007095809590959B01AC01BD01CF01089513
:100A30002F923F924F925F926F927F928F929F92EE
:100A4000AF92BF92CF92DF92EF92FF920F931F93DC
:100A5000CF93DF93CDB7DEB7CA1BDB0B0FB6F8948D
:100A6000DEBF0FBECDBF09942A88398848885F84CD
:100A70006E847D848C849B84AA84B984C884DF803E
:100A8000EE80FD800C811B81AA81B981CE0FD11D22
:100A90000FB6F894DEBF0FBECDBFED010895F894F8
:020AA000FFCF86
:0E0AA200000000020000000043010000000000
:00000001FF
