:100000000C9434000C9451000C9451000C94510049
:100010000C9451000C9451000C9451000C9451001C
:100020000C9451000C9451000C9451000C9451000C
:100030000C9451000C9451000C9451000C945100FC
:100040000C9451000C9451000C946B020C949B0284
:100050000C9451000C9451000C9451000C945100DC
:100060000C9451000C94510011241FBECFEFD8E026
:10007000DEBFCDBF13E0A0E0B1E0EAE3FFE002C0E5
:1000800005900D92A435B107D9F714E0A4E5B3E0CB
:1000900001C01D92AD32B107E1F70E9453000C94EC
:1000A0009B070C940000BF92CF92DF92EF92FF92D9
:1000B0000F931F93DF93CF93CDB7DEB7C554D040D6
:1000C0000FB6F894DEBF0FBECDBF60E071EE80E0EA
:1000D00090E00E94350100D080E091E0ADB7BEB75E
:1000E00012969C938E9311970E94750489E091E07B
:1000F000EDB7FEB7928381830E94750482E491E09C
:10010000ADB7BEB712969C938E9311970E9475045B
:100110008FE791E0EDB7FEB7928381830E9475046B
:100120008DEB91E0ADB7BEB712969C938E9311976D
:100130000E9475048BEF91E0EDB7FEB79283818347
:100140000E94750489E392E0ADB7BEB712969C9306
:100150008E9311970E94750487E792E0EDB7FEB782
:10016000928381830E94750400D085EB92E0ADB745
:10017000BEB712969C938E93119781E490E01496EB
:100180009C938E9313970E94750489EC92E0EDB7CF
:10019000FEB79283818382E290E0948383830E94FE
:1001A000750487EE92E0ADB7BEB712969C938E931E
:1001B000119782E291E114969C938E9313970E947B
:1001C0007504DE011196E1E4F3E085E001900D9203
:1001D0008150E1F700D000D0EDB7FEB731968CE04A
:1001E00093E0ADB7BEB712969C938E93119785E1BD
:1001F00090E093838283CE010196958384838CEB78
:1002000097E0978386830E947504EDB7FEB7389612
:100210000FB6F894FEBF0FBEEDBF86E0C82ED12CFE
:10022000CC0EDD1E88EE93E00E94500483E20E9413
:1002300012040E9432018823A9F30E94E503B82E1C
:1002400086017601E80EF11C05C00E947204D801F7
:100250008D938D010E151F05C1F7C6016B2D0E94F0
:100260009704E0CF0E94E50308958F92AF92CF925A
:10027000EF920F93F89420E034E244EF50E000E076
:10028000E8E0EE2ECC24C394AA2488240E94D8024D
:1002900078940F91EF90CF90AF908F9008950E9437
:1002A00038040895F8940E94D5030E9406047894B7
:1002B0000895FC0130E0828123E0829FC001112477
:1002C00096958795969587952781281708F031E0B0
:1002D000832F0895DC0113964D915C91149712962B
:1002E0008C91129790E001974817590718F020E079
:1002F00030E003C09A012F5F3F4F15968D919C917E
:1003000016972817390711F480E00895ED91FC91B4
:100310001197E40FF51F608314963C932E93139767
:1003200017968C9117978F5F17968C9381E008959D
:10033000FC0120E08281869586959781891708F0D7
:1003400021E0822F0895FC01423058F0009749F0D7
:100350006115710531F07183608342830E945E04F0
:10036000089580E00895CF93DF93EC01009711F199
:1003700061157105F9F02D813E81DB0111C0E88125
:10038000F981E20FF31F80818C932F5F3F4F8A81A9
:1003900090E02817390710F020E030E01196415026
:1003A0005A2F561B442339F08B819C81281739071B
:1003B00031F701C050E0852FDF91CF910895DC0126
:1003C00015962D913C91169713968D919C911497AB
:1003D0008217930711F4E0E01DC0ED91FC91119795
:1003E000E20FF31FE08112968C91129790E0019733
:1003F0002817390718F080E090E002C0C901019683
:1004000016969C938E93159717968C9117978150FB
:1004100017968C938E2F089520E030E040EA5FE03D
:1004200005C0FA013197F1F72F5F3F4F28173907C1
:10043000C0F30895EF92FF920F931F937B018C01FD
:1004400084E0EE0CFF1C001F111F8A95D1F7CA0132
:10045000B901A80197010E94B404215030403093A3
:10046000C5002093C4001F910F91FF90EF90089555
:1004700081118F5F982F80FF04C08091C20080613E
:1004800003C08091C2008F7E8093C2008091C20021
:1004900091FF04C08091C200806203C08091C200BD
:1004A0008F7D8093C2008091C20008958FB7F89429
:1004B0008FBF8091DE03882341F08091550388230C
:1004C00021F08091C100806203C08091C1008F7DC6
:1004D0008093C10008951F920F920FB60F921124BE
:1004E0002F933F934F935F936F937F938F939F933C
:1004F000AF93BF93EF93FF938091C0009091C000A2
:100500006091C60084FD06C092FD04C08FED93E0AB
:100510000E946A01FF91EF91BF91AF919F918F91DE
:100520007F916F915F914F913F912F910F900FBEEF
:100530000F901F9018951F920F920FB60F921124D3
:100540002F933F934F935F936F937F938F939F93DB
:10055000AF93BF93EF93FF938091DE03882331F035
:1005600087ED93E00E94DF018093C6008091DE0357
:10057000882341F080915503882321F08091C100A8
:10058000806203C08091C1008F7D8093C100FF9184
:10059000EF91BF91AF919F918F917F916F915F91FB
:1005A0004F913F912F910F900FBE0F901F90189574
:1005B0008F92AF92CF92EF920F931F93DF93CF93CF
:1005C000CDB7DEB71E2DEC2CE6E4F3E0F0932A0461
:1005D000E093290480925403E1E0E0935503E09313
:1005E0005603E091C100EF7EE093C100E091C100AD
:1005F000E77FE093C100E091C100EF77E093C10095
:10060000E091C100EF7DE093C100E091C20002954E
:10061000000F000F007CEF73E02BE093C2000E94FC
:100620001A02812F8550843018F5212F30E0255093
:10063000304020FF04C08091C200826003C08091DE
:10064000C2008D7F8093C2008091C20021FF04C050
:100650008091C200846003C08091C2008B7F809330
:10066000C2008091C2008091C1008B7F8093C10045
:10067000193079F48091C20082608093C200809129
:10068000C20084608093C2008091C1008460809326
:10069000C1008E2D8150823070F481E0E81621F087
:1006A0008091C200886003C08091C200877F8093E0
:1006B000C2008091C2008A2D0E9438028FED93E023
:1006C00067EE73E040E40E94A30187ED93E067E5E5
:1006D00073E040E80E94A3018091C100806880938C
:1006E000C1008091C10080628093C1008091C100EF
:1006F00080618093C1008091C10088608093C100B7
:100700007894CF91DF911F910F91EF90CF90AF90A0
:100710008F900895682F87ED93E00E94B7030895A6
:100720001F93182F8A3041F48DE00E94900304C07B
:1007300081E090E00E9450040E9420048635C0F7BA
:10074000812F0E94120480E090E01F9108951F9372
:100750001FB7F8940E945E041FBF1F910895FC010B
:100760008FB7F8948FBF82819781891B08951F935B
:100770001FB7F8940E946A011FBF1F910895FC01E2
:100780008FB7F8948FBF878108951F931FB7F89490
:100790000E94B3011FBF1F9108951F931FB7F894C4
:1007A0000E94DF011FBF1F9108958FED93E00E940B
:1007B000A70308958FED93E00E94AF030895682F7B
:1007C0008FED93E00E94B70308958FED93E00E94B0
:1007D000BF0308959C01462F8FED93E0B9010E945D
:1007E000C50308958FED93E00E94CD030895DF9334
:1007F000CF930F92CDB7DEB7CE01019661E00E9494
:10080000EA0389810F90CF91DF91089587ED93E0FE
:100810000E94A7030E945602089587ED93E00E946C
:10082000AF0308951F93682F87ED93E00E94B703ED
:10083000182F882311F00E945602812F1F910895CE
:1008400087ED93E00E94BF0308959C01462F87ED3A
:1008500093E0B9010E94C50308951F9387ED93E0CB
:100860000E94CD03182F0E945602812F1F910895D8
:1008700080E28093C0001092C10086E08093C200A5
:100880000895DF93CF930F92CDB7DEB7CE010196D7
:1008900061E00E94250489810F90CF91DF91089536
:1008A00020E030E040EA5FE005C0FA013197F1F75F
:1008B0002F5F3F4F28173907C0F30895FC010097B9
:1008C00011F480E008951482138216821582178233
:1008D00042818081918160E070E050E00E94D60406
:1008E00081E008950E94F2030895EF92FF920F9322
:1008F0001F93DF93CF93CDB7DEB7FE0139960191F9
:100900001191FE2EEF2E0E942004863520F084E106
:1009100090E00E945004C8016F2D7E2D0E94DD04DE
:10092000CF91DF911F910F91FF90EF900895EF927B
:10093000FF920F931F93CF93DF937C01C0E0D0E031
:10094000062F10E007C0F701EC0FFD1F80810E9409
:1009500012042196C017D107B4F3DF91CF911F91F4
:100960000F91FF90EF900895A1E21A2EAA1BBB1BD6
:10097000FD010DC0AA1FBB1FEE1FFF1FA217B3076B
:10098000E407F50720F0A21BB30BE40BF50B661F81
:10099000771F881F991F1A9469F760957095809545
:1009A00090959B01AC01BD01CF010895DC0101C010
:1009B0006D9341505040E0F708959C01AB01809148
:1009C000290490912A04B9010E94E7040895ABE03C
:1009D000B0E0EDEEF4E00C9464073C012B015A0109
:1009E000FC0117821682838181FD03C06FEF7FEFC8
:1009F000C6C19AE0892E1E010894211C311CF30106
:100A00002381F20123FD859123FF81912F0188230A
:100A100009F4B2C1853239F423FD859123FF819118
:100A20002F01853229F490E0B3010E94DA06E7CF66
:100A3000982FFF24EE249924FFE1FF15D0F09B327C
:100A400069F09C3228F4903259F0933291F40EC040
:100A50009D3249F0903369F441E024C052E0F52A18
:100A600084E0F82A28C098E0F92A25C0E0E1FE2AAF
:100A700022C0F7FC29C0892F80538A3070F4F6FE1B
:100A800005C0989C902C1124980E15C0E89CE02C71
:100A90001124E80EF0E2FF2A0EC09E3229F4F6FC83
:100AA0006BC140E4F42A07C09C3619F450E8F52ADB
:100AB00002C0983649F4F20123FD959123FF9191EC
:100AC0002F01992309F0B8CF892F8554833018F06E
:100AD0008052833038F444E050E0A40EB51E5FE34A
:100AE00059830FC0933631F0933779F0933509F07D
:100AF00056C020C0F5018081898342E050E0A40EF9
:100B0000B51E610101E010E012C0F501C080D18086
:100B1000F6FC03C06FEF7FEF02C0692D70E042E08A
:100B200050E0A40EB51EC6010E94CF068C015FE7FF
:100B3000F52214C0F501C080D180F6FC03C06FEF30
:100B40007FEF02C0692D70E042E050E0A40EB51EB8
:100B5000C6010E94C4068C0150E8F52AF3FE07C0C6
:100B60001AC080E290E0B3010E94DA06EA948E2D6A
:100B700090E008171907A8F30EC0F601F7FC85915D
:100B8000F7FE81916F0190E0B3010E94DA06E11057
:100B9000EA94015010400115110579F7EAC0943626
:100BA00011F0993669F5F7FE08C0F5012081318111
:100BB0004281538184E090E00AC0F50180819181F7
:100BC0009C01442737FD4095542F82E090E0A80E09
:100BD000B91E9FE6F92257FF09C050954095309500
:100BE00021953F4F4F4F5F4FE0E8FE2ACA01B90100
:100BF000A1012AE030E00E940607D82ED21840C09A
:100C0000953729F41F2D1F7E2AE030E01DC01F2DCF
:100C1000197F9F3661F0903720F4983509F0ACC009
:100C20000FC0903739F0983709F0A6C004C028E00B
:100C300030E00AC0106114FD146020E130E004C00F
:100C400014FD166020E132E017FF08C0F501608155
:100C500071818281938144E050E008C0F501808178
:100C60009181BC0180E090E042E050E0A40EB51E0E
:100C7000A1010E940607D82ED2188FE7F82EF12284
:100C8000F6FE0BC05EEFF522D91438F4F4FE07C06F
:100C9000F2FC05C08FEEF82202C01D2D01C0192DF7
:100CA000F4FE0DC0FE01ED0DF11D8081803319F4BD
:100CB00099EEF92208C01F5FF2FE05C003C08F2D18
:100CC000867809F01F5F0F2DF3FC14C0F0FE0FC0F3
:100CD0001E1510F09D2C0BC09D2C9E0C911A1E2DE4
:100CE00006C080E290E0B3010E94DA061F5F1E1585
:100CF000C0F304C01E1510F4E11A01C0EE2404FF75
:100D00000FC080E390E0B3010E94DA0602FF1DC02D
:100D100001FD03C088E790E00EC088E590E00BC0BD
:100D2000802F867891F001FF02C08BE201C080E243
:100D3000F7FC8DE290E0B3010E94DA0606C080E382
:100D400090E0B3010E94DA069A94D914C0F3DA94C1
:100D5000F101ED0DF11D808190E0B3010E94DA06F2
:100D6000DD20A9F706C080E290E0B3010E94DA0618
:100D7000EA94EE20C1F743CEF30166817781CB017F
:100D80002B96E2E10C948007FC01059061507040C5
:100D90000110D8F7809590958E0F9F1F0895FC0144
:100DA0006150704001900110D8F7809590958E0F9A
:100DB0009F1F08950F931F93CF93DF938C01EB0137
:100DC0008B8181FF1BC082FF0DC02E813F818C81F2
:100DD0009D812817390764F4E881F9810193F9832B
:100DE000E88306C0E885F985802F0995892B31F4C1
:100DF0008E819F8101969F838E8302C00FEF1FEF2C
:100E0000C801DF91CF911F910F910895FA01AA2790
:100E1000283051F1203181F1E8946F936E7F6E5F3D
:100E20007F4F8F4F9F4FAF4FB1E03ED0B4E03CD0EB
:100E3000670F781F891F9A1FA11D680F791F8A1FCE
:100E4000911DA11D6A0F711D811D911DA11D20D035
:100E500009F468943F912AE0269F11243019305DEF
:100E60003193DEF6CF010895462F4770405D4193E0
:100E7000B3E00FD0C9F7F6CF462F4F70405D4A332D
:100E800018F0495D31FD4052419302D0A9F7EACFF5
:100E9000B4E0A6959795879577956795BA95C9F724
:100EA00000976105710508959B01AC010A2E069417
:100EB0005795479537952795BA95C9F7620F731FD0
:100EC000841F951FA01D08952F923F924F925F920D
:100ED0006F927F928F929F92AF92BF92CF92DF924A
:100EE000EF92FF920F931F93CF93DF93CDB7DEB7AF
:100EF000CA1BDB0B0FB6F894DEBF0FBECDBF099443
:100F00002A88398848885F846E847D848C849B8499
:100F1000AA84B984C884DF80EE80FD800C811B81A7
:100F2000AA81B981CE0FD11D0FB6F894DEBF0FBED6
:0A0F3000CDBFED010895F894FFCF46
:100F3A0048656C6C6F37310A0073657269616C5F62
:100F4A006F75742054686520717569636B206272CD
:100F5A006F776E20666F78206A756D706564206F92
:100F6A0076657220746865206C617A7920646F678F
:100F7A002E0073657269616C5F7072696E746620A7
:100F8A0054686520717569636B2062726F776E2091
:100F9A00666F78206A756D706564206F7665722059
:100FAA00746865206C617A7920646F672E0A003153
:100FBA0073657269616C5F7072696E7466205468D9
:100FCA006520717569636B2062726F776E20666F38
:100FDA0078206A756D706564206F76657220746812
:100FEA0065206C617A7920646F672E0A0032736516
:100FFA007269616C5F7072696E74662054686520EC
:10100A00717569636B2062726F776E20666F7820E4
:10101A006A756D706564206F7665722074686520E4
:10102A006C617A7920646F672E0A0033736572697E
:10103A00616C5F7072696E746620546865207175A0
:10104A0069636B2062726F776E20666F78206A75AB
:10105A006D706564206F76657220746865206C61B6
:10106A007A7920646F672E0A003473657269616C3D
:10107A005F7072696E746620546865207175696361
:10108A006B2062726F776E20666F78206A756D705A
:10109A006564206F76657220746865206C617A7960
:1010AA0020646F672E0A003573657269616C5F7020
:1010BA0072696E74662054686520717569636B2065
:1010CA0062726F776E20666F78206A756D706564DC
:1010DA00206F76657220746865206C617A79206465
:1010EA006F672E0A005465737420636861726163C6
:1010FA007465723A2025630A005465737420686522
:10110A007861646563696D616C20696E7465676591
:10111A00723A2025780A00546573742031362D629C
:10112A0069742068657861646563696D616C2069BA
:10113A006E74656765723A2025780A00596F757270
:10114A002064617465206F66206269727468206920
:10115A00733A0A4461793A202564200A4D6F6E7405
:10116A00683A202573200A596561723A2025642E4F
:10117A00004A756C7900000000020000000090032C
:04118A000000000061
:00000001FF
