:100000000C9462000C947F000C947F000C947F0091
:100010000C947F000C947F000C947F000C947F0064
:100020000C947F000C947F000C947F000C947F0054
:100030000C947F000C94F2000C947F000C947F00D1
:100040000C947F000C947F000C947F000C947F0034
:100050000C947F000C947F000C947F007573617288
:100060007420554E4B4E4F574E204552524F520D15
:10007000007573617274204255464645525F53497C
:100080005A45204552524F520D00757361727420CB
:100090004255464645525F4E554C4C5F504F494E77
:1000A000544552204552524F520D0049535220663A
:1000B00069666F5F7075745F6279746520457272EE
:1000C0006F720D0011241FBECFEFD4E0DEBFCDBF95
:1000D00011E0A0E0B1E0EEE2F9E002C005900D927F
:1000E000AE30B107D9F711E0AEE0B1E001C01D922A
:1000F000AD31B107E1F70E9481000C9495040C9496
:10010000000080E090E00895882319F0813049F4E0
:1001100004C000D08AE890E007C000D081E790E0FA
:1001200003C000D08CE590E0EDB7FEB792838183E9
:100130000E9485010F900F9008950F931F93DF93F6
:10014000CF93CDB7DEB729970FB6F894DEBF0FBEB9
:10015000CDBF09831A832B833C834D835E836F83DA
:1001600078878987AEE0B1E0FE01319689E00190A1
:100170000D928150E1F781E029960FB6F894DEBF29
:100180000FBECDBFCF91DF911F910F9108959B01BD
:10019000AC0180E091E090931A018093190178946A
:1001A00064E0220F331F441F551F6A95D1F760E4A6
:1001B00072E48FE090E00E943C04C901DA010197EB
:1001C000A109B109292F3A2F4B2F55270196A11DBF
:1001D000B11D2093C50081508093C40088E98093AD
:1001E000C10008951F920F920FB60F9211242F9302
:1001F0003F934F935F936F937F938F939F93AF93AF
:10020000BF93EF93FF936091C6008EE091E00E9450
:100210006201882359F400D08BEA90E0EDB7FEB775
:10022000928381830E9485010F900F90FF91EF913F
:10023000BF91AF919F918F917F916F915F914F91FE
:100240003F912F910F900FBE0F901F9018951F9305
:10025000182F8A3019F48DE00E9427018091C00088
:1002600085FFFCCF1093C60080E090E01F910895B9
:10027000A8958091C00087FFFCCF8091C6000895AB
:10028000982FA8958091C00085FFFCCF9093C60061
:1002900008950F931F93CF93DF938C01C0E0D0E0BC
:1002A00003C00E9440012196F801EC0FFD1F8491CC
:1002B000882319F0C035D105A1F7DF91CF911F91A7
:1002C0000F910895CF93DF93EC01462F2E813F814C
:1002D0006A817B812617370790F48C819D81820F7C
:1002E000931F0E942804E881F981E80FF91F4083D9
:1002F0008E819F8101969F838E8381E003C081E080
:10030000888780E0DF91CF910895A0E0B0E0EBE82E
:10031000F1E00C946E04FE01359661917191A0910B
:100320001901B0911A0113968C9113978860139656
:100330008C938091190190911A01AF010E94AB0139
:10034000E0911901F0911A012381277F23832096E0
:10035000E2E00C948A04ABE0B0E0E1EBF1E00C9455
:100360005E043C012B015A01FC0117821682838135
:1003700081FD03C06FEF7FEFC6C19AE0892E1E0199
:100380000894211C311CF3012381F20123FD859186
:1003900023FF81912F01882309F4B2C1853239F4FA
:1003A00023FD859123FF81912F01853229F490E06F
:1003B000B3010E949E03E7CF982FFF24EE249924D7
:1003C000FFE1FF15D0F09B3269F09C3228F49032A7
:1003D00059F0933291F40EC09D3249F0903369F494
:1003E00041E024C052E0F52A84E0F82A28C098E0D1
:1003F000F92A25C0E0E1FE2A22C0F7FC29C0892F96
:1004000080538A3070F4F6FE05C0989C902C11241D
:10041000980E15C0E89CE02C1124E80EF0E2FF2AAB
:100420000EC09E3229F4F6FC6BC140E4F42A07C0EA
:100430009C3619F450E8F52A02C0983649F4F201C6
:1004400023FD959123FF91912F01992309F0B8CFB6
:10045000892F8554833018F08052833038F444E07B
:1004600050E0A40EB51E5FE359830FC0933631F000
:10047000933779F0933509F056C020C0F50180819B
:10048000898342E050E0A40EB51E610101E010E056
:1004900012C0F501C080D180F6FC03C06FEF7FEF82
:1004A00002C0692D70E042E050E0A40EB51EC60106
:1004B0000E9493038C015FE7F52214C0F501C08010
:1004C000D180F6FC03C06FEF7FEF02C0692D70E0B2
:1004D00042E050E0A40EB51EC6010E9488038C01C4
:1004E00050E8F52AF3FE07C01AC080E290E0B3019D
:1004F0000E949E03EA948E2D90E008171907A8F336
:100500000EC0F601F7FC8591F7FE81916F0190E036
:10051000B3010E949E03E110EA94015010400115BE
:10052000110579F7EAC0943611F0993669F5F7FEAE
:1005300008C0F501208131814281538184E090E03F
:100540000AC0F501808191819C01442737FD4095C7
:10055000542F82E090E0A80EB91E9FE6F92257FFC3
:1005600009C050954095309521953F4F4F4F5F4FB3
:10057000E0E8FE2ACA01B901A1012AE030E00E94A8
:10058000CA03D82ED21840C0953729F41F2D1F7EDC
:100590002AE030E01DC01F2D197F9F3661F0903793
:1005A00020F4983509F0ACC00FC0903739F0983777
:1005B00009F0A6C004C028E030E00AC0106114FDB4
:1005C000146020E130E004C014FD166020E132E048
:1005D00017FF08C0F501608171818281938144E039
:1005E00050E008C0F50180819181BC0180E090E07D
:1005F00042E050E0A40EB51EA1010E94CA03D82E0D
:10060000D2188FE7F82EF122F6FE0BC05EEFF5222E
:10061000D91438F4F4FE07C0F2FC05C08FEEF822BE
:1006200002C01D2D01C0192DF4FE0DC0FE01ED0DFF
:10063000F11D8081803319F499EEF92208C01F5F03
:10064000F2FE05C003C08F2D867809F01F5F0F2DC5
:10065000F3FC14C0F0FE0FC01E1510F09D2C0BC053
:100660009D2C9E0C911A1E2D06C080E290E0B301D5
:100670000E949E031F5F1E15C0F304C01E1510F4D8
:10068000E11A01C0EE2404FF0FC080E390E0B30143
:100690000E949E0302FF1DC001FD03C088E790E099
:1006A0000EC088E590E00BC0802F867891F001FFA6
:1006B00002C08BE201C080E2F7FC8DE290E0B30162
:1006C0000E949E0306C080E390E0B3010E949E0357
:1006D0009A94D914C0F3DA94F101ED0DF11D8081E3
:1006E00090E0B3010E949E03DD20A9F706C080E2DE
:1006F00090E0B3010E949E03EA94EE20C1F743CE3E
:10070000F30166817781CB012B96E2E10C947A04A8
:10071000FC010590615070400110D8F780959095CC
:100720008E0F9F1F0895FC016150704001900110D1
:10073000D8F7809590958E0F9F1F08950F931F9364
:10074000CF93DF938C01EB018B8181FF1BC082FF74
:100750000DC02E813F818C819D812817390764F45B
:10076000E881F9810193F983E88306C0E885F9857A
:10077000802F0995892B31F48E819F8101969F836B
:100780008E8302C00FEF1FEFC801DF91CF911F9141
:100790000F910895FA01AA27283051F1203181F1F3
:1007A000E8946F936E7F6E5F7F4F8F4F9F4FAF4F79
:1007B000B1E03ED0B4E03CD0670F781F891F9A1F8C
:1007C000A11D680F791F8A1F911DA11D6A0F711D40
:1007D000811D911DA11D20D009F468943F912AE04C
:1007E000269F11243019305D3193DEF6CF01089534
:1007F000462F4770405D4193B3E00FD0C9F7F6CF65
:10080000462F4F70405D4A3318F0495D31FD40522C
:10081000419302D0A9F7EACFB4E0A69597958795C2
:1008200077956795BA95C9F70097610571050895A1
:100830009B01AC010A2E069457954795379527954D
:10084000BA95C9F7620F731F841F951FA01D0895E5
:10085000AA1BBB1B51E107C0AA1FBB1FA617B707E6
:1008600010F0A61BB70B881F991F5A95A9F7809502
:100870009095BC01CD010895A1E21A2EAA1BBB1BC5
:10088000FD010DC0AA1FBB1FEE1FFF1FA217B3075C
:10089000E407F50720F0A21BB30BE40BF50B661F72
:1008A000771F881F991F1A9469F760957095809536
:1008B00090959B01AC01BD01CF0108952F923F920D
:1008C0004F925F926F927F928F929F92AF92BF9260
:1008D000CF92DF92EF92FF920F931F93CF93DF930C
:1008E000CDB7DEB7CA1BDB0B0FB6F894DEBF0FBE69
:1008F000CDBF09942A88398848885F846E847D84B6
:100900008C849B84AA84B984C884DF80EE80FD80B7
:100910000C811B81AA81B981CE0FD11D0FB6F8942D
:0E092000DEBF0FBECDBFED010895F894FFCFEE
:0E092E00000000020000000027010000000091
:00000001FF
