:100000000C9434000C9451000C9451000C94510049
:100010000C9451000C9451000C9451000C9451001C
:100020000C9451000C9451000C9451000C9451000C
:100030000C9451000C9451000C9451000C945100FC
:100040000C9451000C9451000C94AA040C9451008F
:100050000C94DA040C9451000C9451000C9451004F
:100060000C9451000C94510011241FBECFEFD8E026
:10007000DEBFCDBF11E0A0E0B1E0E4E0F3E102C0FB
:1000800005900D92A433B107D9F712E0A4E3B1E0D3
:1000900001C01D92AC30B107E1F70E9453000C94EF
:1000A00080090C9400002F923F925F926F927F9292
:1000B0008F929F92AF92BF92CF92DF92EF92FF9278
:1000C0000F931F93CF93DF938BB162E041E00E94C7
:1000D0008D028BB163E041E00E948D028BB164E040
:1000E00041E00E948D028BB165E041E00E948D02EB
:1000F0008BB166E041E00E948D028BB167E041E088
:100100000E948D0285B160E041E00E948D0285B1C0
:1001100061E041E00E948D0285B162E040E00E9412
:100120008D0285B163E040E00E948D0285B164E0FC
:1001300040E00E948D0288B160E040E00E948D02A4
:1001400088B161E040E00E948D0288B162E040E049
:100150000E948D0288B163E040E00E948D0288B168
:1001600064E040E00E948D0285B162E00E94670376
:1001700085B163E00E94670385B164E00E94670374
:1001800088B160E00E94670388B161E00E94670364
:1001900088B162E00E94670388B163E00E94670350
:1001A00088B164E00E94670360E071EE80E090E057
:1001B0000E943D0400D080E091E0ADB7BEB712963A
:1001C0009C938E9311970E945704222433240F90FE
:1001D0000F901BB185B162E00E94E602482F812F8B
:1001E00062E00E94E0031BB185B163E00E94E60279
:1001F000482F812F63E00E94E0031BB185B164E0CA
:100200000E94E602482F812F64E00E94E0031BB1A8
:1002100088B160E00E94E602482F812F65E00E94CD
:10022000E0031BB188B161E00E94E602482F812FF4
:1002300066E00E94E0031BB188B162E00E94E60222
:10024000482F812F67E00E94E00315B188B163E079
:100250000E94E602482F812F60E00E94E00315B162
:1002600088B164E00E94E602482F812F61E00E947D
:10027000E0038AE00E941102682E8BE00E941102C6
:10028000582E8CE00E941102082F8EE00E9411026D
:10029000E82E8FE00E941102C82E80E10E94110218
:1002A000A82E81E10E941102882E82E10E94110293
:1002B000C52DDD27C7FDD095CC0FDD1F112707FD0C
:1002C0001095000F111F000F111FC00FD11F7724B1
:1002D00067FC7094C60DD71DFF24E7FCF09463E023
:1002E000EE0CFF1C6A95E1F7CE0DDF1DDD24C7FC87
:1002F000D09454E0CC0CDD1C5A95E1F7CC0DDD1DFB
:10030000BB24A7FCB09445E0AA0CBB1C4A95E1F7BE
:10031000CA0DDB1D992487FC909436E0880C991C4B
:100320003A95E1F7C80DD91D992787FD90959695C7
:10033000982F882797958795C80FD91FC215D30581
:1003400009F447CF00D000D0EDB7FEB7319686E173
:1003500091E0ADB7BEB712969C938E931197C2836E
:10036000D3830E9457041E010F900F900F900F909F
:1003700030CF382F8830C8F4662361F42AB181E089
:1003800090E002C0880F991F3A95E2F7809582238A
:100390008AB939C02AB181E090E002C0880F991F64
:1003A0003A95E2F7282B2AB92EC08E30D0F4385077
:1003B000662361F424B181E090E002C0880F991FA8
:1003C0003A95E2F78095822384B91DC024B181E07B
:1003D00090E002C0880F991F3A95E2F7282B24B9C4
:1003E00012C0843110F08FEF08953D50662369F4F8
:1003F00027B181E090E002C0880F991F3A95E2F79B
:100400008095822387B981E0089527B181E090E04B
:1004100002C0880F991F3A95E2F7282B27B981E08F
:100420000895282F883018F489B190E005C08E30E7
:1004300050F483B190E0285002C0959587952A9595
:10044000E2F781700895843110F08FEF089586B13E
:1004500090E02E5002C0959587952A95E2F781701D
:100460000895382F8830D0F4662359F02BB181E0FD
:1004700090E002C0880F991F3A95E2F7282B2BB91C
:100480000BC02BB181E090E002C0880F991F3A9514
:10049000E2F7809582238BB98BB12FC08E30D8F4D0
:1004A0003850662359F025B181E090E002C0880FF2
:1004B000991F3A95E2F7282B25B90BC025B181E0A9
:1004C00090E002C0880F991F3A95E2F78095822349
:1004D00085B985B112C0843110F08FEF08953E5078
:1004E000662369F028B181E090E002C0880F991F6F
:1004F0003A95E2F7282B28B988B181E0089528B110
:1005000081E090E002C0880F991F3A95E2F780954C
:10051000822388B988B181E00895982F8BB198170C
:10052000C9F4442361F42AB181E090E002C0880F4D
:10053000991F6A95E2F7809582238AB939C02AB15A
:1005400081E090E002C0880F991F6A95E2F7282B9E
:100550002AB92EC085B19817C9F4442361F424B197
:1005600081E090E002C0880F991F6A95E2F78095BC
:10057000822384B91DC024B181E090E002C0880FBD
:10058000991F6A95E2F7282B24B912C088B19817F1
:1005900011F08FEF0895442369F427B181E090E0D2
:1005A00002C0880F991F6A95E2F78095822387B968
:1005B00081E0089527B181E090E002C0880F991F83
:1005C0006A95E2F7282B27B981E00895982F8BB11F
:1005D000981711F489B104C085B1981749F483B113
:1005E00090E002C0959587956A95E2F7817008952D
:1005F00088B1981711F08FEF089586B190E002C08E
:10060000959587956A95E2F781700895982F8BB13B
:10061000981759F42BB181E090E002C0880F991F20
:100620006A95E2F7282B2BB90DC085B1981761F4B4
:1006300025B181E090E002C0880F991F6A95E2F72A
:10064000282B25B981E0089588B1981711F08FEF14
:10065000089528B181E090E002C0880F991F6A9543
:10066000E2F7282B28B981E00895982F8BB19817CD
:1006700061F42BB181E090E002C0880F991F6A9568
:10068000E2F7809582238BB90EC085B1981769F483
:1006900025B181E090E002C0880F991F6A95E2F7CA
:1006A0008095822385B981E0089588B1981711F06B
:1006B0008FEF089528B181E090E002C0880F991F64
:1006C0006A95E2F78095822388B981E00895982F92
:1006D0008BB1981781F43AB181E090E002C0880FA5
:1006E000991F6A95E2F7282F209523232AB92BB169
:1006F000822B8BB912C085B1981789F434B181E08F
:1007000090E002C0880F991F6A95E2F7282F209584
:10071000232324B925B1822B85B981E0089588B1BE
:10072000981711F08FEF089537B181E090E002C083
:10073000880F991F6A95E2F7282F2095232327B960
:1007400028B1822B88B981E00895982F8BB1981732
:1007500079F48AB121E030E002C0220F331F6A959C
:10076000E2F7209582238AB98BB128232BB911C0D7
:1007700085B1981781F484B121E030E002C0220FE6
:10078000331F6A95E2F72095822384B985B1282327
:1007900025B981E0089588B1981711F08FEF089579
:1007A00087B121E030E002C0220F331F6A95E2F7E3
:1007B0002095822387B988B1282328B981E008953C
:1007C000982F8BB19817D1F4442359F02BB181E0C5
:1007D00090E002C0880F991F6A95E2F7282B2BB989
:1007E0000BC02BB181E090E002C0880F991F6A9581
:1007F000E2F7809582238BB98BB12FC085B1981712
:10080000D1F4442359F025B181E090E002C0880F73
:10081000991F6A95E2F7282B25B90BC025B181E015
:1008200090E002C0880F991F6A95E2F780958223B5
:1008300085B985B112C088B1981711F08FEF08956E
:10084000442369F028B181E090E002C0880F991F2D
:100850006A95E2F7282B28B988B181E0089528B17C
:1008600081E090E002C0880F991F6A95E2F78095B9
:10087000822388B988B181E008958F92AF92CF9298
:10088000EF920F93F89420E034E244EF50E000E060
:10089000E8E0EE2ECC24C394AA2488240E942005EC
:1008A00078940F91EF90CF90AF908F900895DF9351
:1008B000CF93CDB7DEB7FE01359681919191BF01FF
:1008C0000E94C206CF91DF91089580E28093C0001C
:1008D0001092C10086E08093C2000895EF92FF92CB
:1008E0000F931F937B018C0184E0EE0CFF1C001F13
:1008F000111F8A95D1F7CA01B901A80197010E9479
:100900009906215030403093C5002093C4001F91B8
:100910000F91FF90EF90089581118F5F982F80FFC6
:1009200004C08091C200806103C08091C2008F7EAC
:100930008093C2008091C20091FF04C08091C200E8
:10094000806203C08091C2008F7D8093C20080913D
:10095000C20008951F920F920FB60F9211242F9389
:100960003F934F935F936F937F938F939F93AF9337
:10097000BF93EF93FF938091C0009091C00060916E
:10098000C60084FD06C092FD04C08CEB91E00E947D
:100990000606FF91EF91BF91AF919F918F917F914B
:1009A0006F915F914F913F912F910F900FBE0F90DC
:1009B0001F9018951F920F920FB60F9211242F932C
:1009C0003F934F935F936F937F938F939F93AF93D7
:1009D000BF93EF93FF9380910402882369F00E94F4
:1009E0000106882339F084EB91E00E945806809339
:1009F000C60005C01092040281E080930502FF91B9
:100A0000EF91BF91AF919F918F917F916F915F9186
:100A10004F913F912F910F900FBE0F901F901895FF
:100A2000809105028823E1F381E08093040284EB46
:100A300091E00E9458068093C60010920502089526
:100A40002F923F924F925F926F927F928F929F92DE
:100A5000AF92CF92EF920F931F93DF93CF93CDB7C7
:100A6000DEB73B014C0119012A011E2DEC2CF89434
:100A700086E291E090930902809308028091C10080
:100A8000877F8093C1008091C1008F7E8093C100D9
:100A90008091C1008F7B8093C1008091C1008F77CE
:100AA0008093C1008091C2000295000F000F007C6E
:100AB0008F73802B8093C200C401B3010E946E0427
:100AC000812F8550843018F5212F30E0255030409B
:100AD00020FF04C08091C200826003C08091C200E8
:100AE0008D7F8093C2008091C20021FF04C080915D
:100AF000C200846003C08091C2008B7F8093C200DB
:100B00008091C2008091C1008B7F8093C100193019
:100B100079F48091C20082608093C2008091C2000B
:100B200084608093C2008091C10084608093C10082
:100B30008E2D8150823070F481E0E81621F0809192
:100B4000C200886003C08091C200877F8093C2008A
:100B50008091C2008A2D0E948C04C401B301A201BD
:100B600091010E946E048CEB91E064EC71E040E432
:100B70000E94340684EB91E064E371E040E80E9457
:100B800034068091C10088608093C1008091C100CB
:100B900080618093C1008091C10080648093C10016
:100BA0008091C10080688093C1001092040281E0AE
:100BB000809305027894CF91DF911F910F91EF9070
:100BC000CF90AF909F908F907F906F905F904F905D
:100BD0003F902F9008951F93182F8A3019F48DE0BD
:100BE0000E94EB05812F0E94FB050E94100580E00A
:100BF00090E01F910895682F84EB91E00E94850694
:100C0000089584EB91E00E9493060895DC01139609
:100C10004D915C91149712968C91129790E00197E8
:100C20004817590718F020E030E003C09A012F5F01
:100C30003F4F15968D919C9116972817390711F4FF
:100C400080E00895ED91FC911197E40FF51F60830A
:100C500014963C932E93139717968C9117978F5F4A
:100C600017968C9381E00895FC01423058F000976C
:100C700049F06115710531F07183608342830E94F0
:100C80004406089580E00895FC01009711F480E087
:100C90000895148213821682158217824281808100
:100CA000918160E070E050E00E94BB0681E0089511
:100CB000DC0115962D913C91169713968D919C9180
:100CC00014978217930711F4E0E01DC0ED91FC9199
:100CD0001197E20FF31FE08112968C91129790E02A
:100CE00001972817390718F080E090E002C0C90189
:100CF000019616969C938E93159717968C9117973D
:100D0000815017968C938E2F08951F939C0180918C
:100D100004028823E1F71FB7F894C9010E94060670
:100D20001FBF1F910895FC018FB7F8948FBF878173
:100D30000895A1E21A2EAA1BBB1BFD010DC0AA1F1C
:100D4000BB1FEE1FFF1FA217B307E407F50720F034
:100D5000A21BB30BE40BF50B661F771F881F991FAF
:100D60001A9469F760957095809590959B01AC01F8
:100D7000BD01CF010895DC0101C06D934150504089
:100D8000E0F708959C01AB0180910802909109025F
:100D9000B9010E94CC060895ABE0B0E0E2EDF6E0C8
:100DA0000C9449093C012B015A01FC01178216825F
:100DB000838181FD03C06FEF7FEFC6C19AE0892E6A
:100DC0001E010894211C311CF3012381F20123FD33
:100DD000859123FF81912F01882309F4B2C18532C7
:100DE00039F423FD859123FF81912F01853229F468
:100DF00090E0B3010E94BF08E7CF982FFF24EE24B4
:100E00009924FFE1FF15D0F09B3269F09C3228F461
:100E1000903259F0933291F40EC09D3249F09033E4
:100E200069F441E024C052E0F52A84E0F82A28C0A1
:100E300098E0F92A25C0E0E1FE2A22C0F7FC29C08B
:100E4000892F80538A3070F4F6FE05C0989C902C50
:100E50001124980E15C0E89CE02C1124E80EF0E255
:100E6000FF2A0EC09E3229F4F6FC6BC140E4F42A3E
:100E700007C09C3619F450E8F52A02C0983649F4A8
:100E8000F20123FD959123FF91912F01992309F000
:100E9000B8CF892F8554833018F08052833038F4CE
:100EA00044E050E0A40EB51E5FE359830FC09336B3
:100EB00031F0933779F0933509F056C020C0F50131
:100EC0008081898342E050E0A40EB51E610101E0FB
:100ED00010E012C0F501C080D180F6FC03C06FEFB6
:100EE0007FEF02C0692D70E042E050E0A40EB51E15
:100EF000C6010E94B4088C015FE7F52214C0F50119
:100F0000C080D180F6FC03C06FEF7FEF02C0692D77
:100F100070E042E050E0A40EB51EC6010E94A90890
:100F20008C0150E8F52AF3FE07C01AC080E290E079
:100F3000B3010E94BF08EA948E2D90E008171907AC
:100F4000A8F30EC0F601F7FC8591F7FE81916F01C1
:100F500090E0B3010E94BF08E110EA9401501040F4
:100F60000115110579F7EAC0943611F0993669F543
:100F7000F7FE08C0F501208131814281538184E070
:100F800090E00AC0F501808191819C01442737FDE2
:100F90004095542F82E090E0A80EB91E9FE6F922FA
:100FA00057FF09C050954095309521953F4F4F4FC1
:100FB0005F4FE0E8FE2ACA01B901A1012AE030E052
:100FC0000E94EB08D82ED21840C0953729F41F2D67
:100FD0001F7E2AE030E01DC01F2D197F9F3661F073
:100FE000903720F4983509F0ACC00FC0903739F035
:100FF000983709F0A6C004C028E030E00AC01061AC
:1010000014FD146020E130E004C014FD166020E1FE
:1010100032E017FF08C0F501608171818281938100
:1010200044E050E008C0F50180819181BC0180E07E
:1010300090E042E050E0A40EB51EA1010E94EB0832
:10104000D82ED2188FE7F82EF122F6FE0BC05EEFF5
:10105000F522D91438F4F4FE07C0F2FC05C08FEE77
:10106000F82202C01D2D01C0192DF4FE0DC0FE0195
:10107000ED0DF11D8081803319F499EEF92208C03D
:101080001F5FF2FE05C003C08F2D867809F01F5F39
:101090000F2DF3FC14C0F0FE0FC01E1510F09D2C98
:1010A0000BC09D2C9E0C911A1E2D06C080E290E074
:1010B000B3010E94BF081F5F1E15C0F304C01E15B8
:1010C00010F4E11A01C0EE2404FF0FC080E390E0A9
:1010D000B3010E94BF0802FF1DC001FD03C088E7E5
:1010E00090E00EC088E590E00BC0802F867891F0EC
:1010F00001FF02C08BE201C080E2F7FC8DE290E0CC
:10110000B3010E94BF0806C080E390E0B3010E94D3
:10111000BF089A94D914C0F3DA94F101ED0DF11DD2
:10112000808190E0B3010E94BF08DD20A9F706C0CE
:1011300080E290E0B3010E94BF08EA94EE20C1F77C
:1011400043CEF30166817781CB012B96E2E10C94CB
:101150006509FC010590615070400110D8F7809539
:1011600090958E0F9F1F0895FC0161507040019073
:101170000110D8F7809590958E0F9F1F08950F93BB
:101180001F93CF93DF938C01EB018B8181FF1BC0F9
:1011900082FF0DC02E813F818C819D8128173907E8
:1011A00064F4E881F9810193F983E88306C0E88556
:1011B000F985802F0995892B31F48E819F810196C5
:1011C0009F838E8302C00FEF1FEFC801DF91CF9185
:1011D0001F910F910895FA01AA27283051F120316B
:1011E00081F1E8946F936E7F6E5F7F4F8F4F9F4FBB
:1011F000AF4FB1E03ED0B4E03CD0670F781F891FFD
:101200009A1FA11D680F791F8A1F911DA11D6A0FCA
:10121000711D811D911DA11D20D009F468943F917D
:101220002AE0269F11243019305D3193DEF6CF017C
:101230000895462F4770405D4193B3E00FD0C9F742
:10124000F6CF462F4F70405D4A3318F0495D31FDAF
:101250004052419302D0A9F7EACFB4E0A695979502
:10126000879577956795BA95C9F7009761057105D8
:1012700008959B01AC010A2E069457954795379522
:101280002795BA95C9F7620F731F841F951FA01D7C
:1012900008952F923F924F925F926F927F928F921A
:1012A0009F92AF92BF92CF92DF92EF92FF920F93F5
:1012B0001F93CF93DF93CDB7DEB7CA1BDB0B0FB6FF
:1012C000F894DEBF0FBECDBF09942A8839884888BC
:1012D0005F846E847D848C849B84AA84B984C88452
:1012E000DF80EE80FD800C811B81AA81B981CE0F49
:1012F000D11D0FB6F894DEBF0FBECDBFED0108952E
:04130000F894FFCF8F
:101304004469676974616C696F207465737465728C
:10131400203036320A0044495020382D62697473F3
:101324003A2025780A000000000200000000EB05C6
:0413340000000000B5
:00000001FF
