:100000000C9434000C9451000C9451000C94510049
:100010000C9451000C9451000C9451000C9451001C
:100020000C9451000C9451000C9451000C9451000C
:100030000C9451000C9451000C9451000C945100FC
:100040000C9451000C9451000C9486010C945100B6
:100050000C94B6010C9451000C9451000C94510076
:100060000C9451000C94510011241FBECFEFD8E026
:10007000DEBFCDBF11E0A0E0B1E0E2EBFCE002C0EA
:1000800005900D92A435B107D9F712E0A4E5B1E0CF
:1000900001C01D92AC36B107E1F70E9401010C943A
:1000A00057060C940000EF92FF920F931F93CF938B
:1000B000DF93182F092F61307105B1F1623071059E
:1000C00009F45FC0672B09F095C000D080E091E093
:1000D000ADB7BEB712969C938E9311970E9487037B
:1000E000812F902FEC010F900F9023E1E22E21E061
:1000F000F22E8E01005C1F4F00D000D0EDB7FEB78E
:100100003196ADB7BEB71296FC92EE9211978991D7
:10011000828313820E9487030F900F900F900F909D
:10012000C017D10749F762C000D087E191E0EDB771
:10013000FEB7928381830E948703812F902FEC0169
:100140000F900F9099E2E92E91E0F92E8E01005C5C
:100150001F4F00D000D0ADB7BEB71296FC92EE9202
:1001600011978991999114969C938E9313970E945D
:1001700087030F900F900F900F90C017D10749F78A
:1001800035C000D08DE291E0EDB7FEB79283818358
:100190000E948703812F902FEC010F900F9080E435
:1001A000E82E81E0F82E8E01005C1F4F00D000D0B9
:1001B00000D0ADB7BEB71296FC92EE92119789911E
:1001C0009991A991B991EDB7FEB783839483A583E3
:1001D000B6830E9487038DB79EB706960FB6F89434
:1001E0009EBF0FBE8DBFC017D10701F78AE090E018
:1001F0000E949C03DF91CF911F910F91FF90EF9090
:10020000089560E071EE80E090E00E94450120E0FA
:1002100030E0F901EC5DFD4F822F8F5D80832F5F11
:100220003F4F20343105A9F784E292E060E070E0AE
:100230000E945300E4E2F2E08AE090E0819391931F
:10024000019622E0E436F207C9F784E292E061E029
:1002500070E00E945300E4E2F2E087E896EDA2E14C
:10026000B0E081939193A193B1930196A11DB11D2B
:1002700022E0E436F207A9F784E292E062E070E05F
:100280000E94530080E090E008958F92AF92CF9249
:10029000EF920F93F89420E034E244EF50E000E056
:1002A000E8E0EE2ECC24C394AA2488240E94FC010A
:1002B00078940F91EF90CF90AF908F90089580E257
:1002C0008093C0001092C10086E08093C200089520
:1002D000EF92FF920F931F937B018C0184E0EE0C51
:1002E000FF1C001F111F8A95D1F7CA01B901A8018F
:1002F00097010E945E03215030403093C500209347
:10030000C4001F910F91FF90EF9008951F920F92DC
:100310000FB60F9211242F933F934F935F936F93D8
:100320007F938F939F93AF93BF93EF93FF938091AE
:10033000C0009091C0006091C60084FD06C094FD8D
:1003400004C08CED91E00E94CB02FF91EF91BF9130
:10035000AF919F918F917F916F915F914F913F915D
:100360002F910F900FBE0F901F9018951F920F9214
:100370000FB60F9211242F933F934F935F936F9378
:100380007F938F939F93AF93BF93EF93FF9380914E
:100390006402882369F00E94C602882339F084ED44
:1003A00091E00E941D038093C60005C01092640274
:1003B00081E080936502FF91EF91BF91AF919F9192
:1003C0008F917F916F915F914F913F912F910F90FE
:1003D0000FBE0F901F901895809165028823E1F35E
:1003E00081E08093640284ED91E00E941D0380937C
:1003F000C6001092650208954F925F926F927F92AD
:100400008F929F92AF92BF92CF92EF920F931F93D2
:10041000DF93CF93CDB7DEB74B015C0129013A01E1
:100420001E2D0C2DF89485E491E090936902809341
:1004300068028091C100877F8093C1008091C100D4
:100440008F7E8093C1008091C1008F7B8093C1001B
:100450008091C1008F778093C100C501B4010E94D3
:1004600068018E2D8550843018F52E2D30E02550F2
:10047000304021FF04C08091C200846003C080919D
:10048000C2008B7F8093C2008091C20022FF04C013
:100490008091C200806103C08091C2008F7E8093F2
:1004A000C2008091C2008091C1008F7E8093C10004
:1004B000193079F48091C20084608093C2008091E9
:1004C000C20080618093C2008091C10080618093EE
:1004D000C100802F8150823030F48091C20080931F
:1004E000C2008091C200C501B401A30192010E9423
:1004F00068018CED91E064EE71E040E40E94F90245
:1005000084ED91E064E571E040E80E94F902809199
:10051000C10088608093C1008091C1008061809398
:10052000C1008091C10080648093C1008091C100AE
:1005300080688093C1001092640281E0809365021C
:100540007894CF91DF911F910F91EF90CF90BF9052
:10055000AF909F908F907F906F905F904F90089595
:100560001F93182F8A3019F48DE00E94B002812F5A
:100570000E94C0020E94EC0180E090E01F9108956B
:10058000682F84ED91E00E944A03089584ED91E084
:100590000E9458030895DC0113964D915C911497C5
:1005A00012968C91129790E001974817590718F00E
:1005B00020E030E003C09A012F5F3F4F15968D91E8
:1005C0009C9116972817390711F480E00895ED9152
:1005D000FC911197E40FF51F608314963C932E93C2
:1005E000139717968C9117978F5F17968C9381E0CE
:1005F0000895FC01423058F0009749F061157105EB
:1006000031F07183608342830E940903089580E082
:100610000895FC01009711F480E00895148213827C
:1006200016821582178242818081918160E070E09C
:1006300050E00E94800381E00895DC0115962D9121
:100640003C91169713968D919C911497821793075E
:1006500011F4E0E01DC0ED91FC911197E20FF31F42
:10066000E08112968C91129790E001972817390734
:1006700018F080E090E002C0C901019616969C93A4
:100680008E93159717968C911797815017968C9388
:100690008E2F08951F939C01809164028823E1F7B7
:1006A0001FB7F894C9010E94CB021FBF1F91089584
:1006B000FC018FB7F8948FBF87810895A1E21A2EAD
:1006C000AA1BBB1BFD010DC0AA1FBB1FEE1FFF1FF6
:1006D000A217B307E407F50720F0A21BB30BE40B46
:1006E000F50B661F771F881F991F1A9469F760958D
:1006F0007095809590959B01AC01BD01CF01089547
:10070000DC0101C06D9341505040E0F70895A0E036
:10071000B0E0EDE8F3E00C943006FE01359661910F
:1007200071918091680290916902AF010E94A303C8
:100730002096E2E00C944C06609168027091690288
:100740000E9496050895ABE0B0E0E9EAF3E00C946E
:1007500020063C012B015A01FC011782168283817D
:1007600081FD03C06FEF7FEFC6C19AE0892E1E01A5
:100770000894211C311CF3012381F20123FD859192
:1007800023FF81912F01882309F4B2C1853239F406
:1007900023FD859123FF81912F01853229F490E07B
:1007A000B3010E949605E7CF982FFF24EE249924E9
:1007B000FFE1FF15D0F09B3269F09C3228F49032B3
:1007C00059F0933291F40EC09D3249F0903369F4A0
:1007D00041E024C052E0F52A84E0F82A28C098E0DD
:1007E000F92A25C0E0E1FE2A22C0F7FC29C0892FA2
:1007F00080538A3070F4F6FE05C0989C902C11242A
:10080000980E15C0E89CE02C1124E80EF0E2FF2AB7
:100810000EC09E3229F4F6FC6BC140E4F42A07C0F6
:100820009C3619F450E8F52A02C0983649F4F201D2
:1008300023FD959123FF91912F01992309F0B8CFC2
:10084000892F8554833018F08052833038F444E087
:1008500050E0A40EB51E5FE359830FC0933631F00C
:10086000933779F0933509F056C020C0F5018081A7
:10087000898342E050E0A40EB51E610101E010E062
:1008800012C0F501C080D180F6FC03C06FEF7FEF8E
:1008900002C0692D70E042E050E0A40EB51EC60112
:1008A0000E948B058C015FE7F52214C0F501C08022
:1008B000D180F6FC03C06FEF7FEF02C0692D70E0BE
:1008C00042E050E0A40EB51EC6010E9480058C01D6
:1008D00050E8F52AF3FE07C01AC080E290E0B301A9
:1008E0000E949605EA948E2D90E008171907A8F348
:1008F0000EC0F601F7FC8591F7FE81916F0190E043
:10090000B3010E949605E110EA94015010400115D0
:10091000110579F7EAC0943611F0993669F5F7FEBA
:1009200008C0F501208131814281538184E090E04B
:100930000AC0F501808191819C01442737FD4095D3
:10094000542F82E090E0A80EB91E9FE6F92257FFCF
:1009500009C050954095309521953F4F4F4F5F4FBF
:10096000E0E8FE2ACA01B901A1012AE030E00E94B4
:10097000C205D82ED21840C0953729F41F2D1F7EEE
:100980002AE030E01DC01F2D197F9F3661F090379F
:1009900020F4983509F0ACC00FC0903739F0983783
:1009A00009F0A6C004C028E030E00AC0106114FDC0
:1009B000146020E130E004C014FD166020E132E054
:1009C00017FF08C0F501608171818281938144E045
:1009D00050E008C0F50180819181BC0180E090E089
:1009E00042E050E0A40EB51EA1010E94C205D82E1F
:1009F000D2188FE7F82EF122F6FE0BC05EEFF5223B
:100A0000D91438F4F4FE07C0F2FC05C08FEEF822CA
:100A100002C01D2D01C0192DF4FE0DC0FE01ED0D0B
:100A2000F11D8081803319F499EEF92208C01F5F0F
:100A3000F2FE05C003C08F2D867809F01F5F0F2DD1
:100A4000F3FC14C0F0FE0FC01E1510F09D2C0BC05F
:100A50009D2C9E0C911A1E2D06C080E290E0B301E1
:100A60000E9496051F5F1E15C0F304C01E1510F4EA
:100A7000E11A01C0EE2404FF0FC080E390E0B3014F
:100A80000E94960502FF1DC001FD03C088E790E0AB
:100A90000EC088E590E00BC0802F867891F001FFB2
:100AA00002C08BE201C080E2F7FC8DE290E0B3016E
:100AB0000E94960506C080E390E0B3010E9496056F
:100AC0009A94D914C0F3DA94F101ED0DF11D8081EF
:100AD00090E0B3010E949605DD20A9F706C080E2F0
:100AE00090E0B3010E949605EA94EE20C1F743CE50
:100AF000F30166817781CB012B96E2E10C943C06F1
:100B0000FC010590615070400110D8F780959095D8
:100B10008E0F9F1F0895FC016150704001900110DD
:100B2000D8F7809590958E0F9F1F08950F931F9370
:100B3000CF93DF938C01EB018B8181FF1BC082FF80
:100B40000DC02E813F818C819D812817390764F467
:100B5000E881F9810193F983E88306C0E885F98586
:100B6000802F0995892B31F48E819F8101969F8377
:100B70008E8302C00FEF1FEFC801DF91CF911F914D
:100B80000F910895FA01AA27283051F1203181F1FF
:100B9000E8946F936E7F6E5F7F4F8F4F9F4FAF4F85
:100BA000B1E03ED0B4E03CD0670F781F891F9A1F98
:100BB000A11D680F791F8A1F911DA11D6A0F711D4C
:100BC000811D911DA11D20D009F468943F912AE058
:100BD000269F11243019305D3193DEF6CF01089540
:100BE000462F4770405D4193B3E00FD0C9F7F6CF71
:100BF000462F4F70405D4A3318F0495D31FD405239
:100C0000419302D0A9F7EACFB4E0A69597958795CE
:100C100077956795BA95C9F70097610571050895AD
:100C20009B01AC010A2E0694579547953795279559
:100C3000BA95C9F7620F731F841F951FA01D0895F1
:100C40002F923F924F925F926F927F928F929F92DC
:100C5000AF92BF92CF92DF92EF92FF920F931F93CA
:100C6000CF93DF93CDB7DEB7CA1BDB0B0FB6F8947B
:100C7000DEBF0FBECDBF09942A88398848885F84BB
:100C80006E847D848C849B84AA84B984C884DF802C
:100C9000EE80FD800C811B81AA81B981CE0FD11D10
:100CA0000FB6F894DEBF0FBECDBFED010895F894E6
:020CB000FFCF74
:100CB20053686F7720636861722061727261793A5A
:100CC2000A200025632C0053686F7720696E742018
:100CD20061727261793A0A200025642C0053686FB0
:100CE20077206C6F6E672061727261793A0A200018
:100CF200256C642C000000000200000000B002001D
:040D020000000000ED
:00000001FF
