:100000000C94A4010C94C1010C94C1010C94C10185
:100010000C94C1010C94C1010C94C1010C94C10158
:100020000C94C1010C94C1010C94C1010C94C10148
:100030000C94C1010C94C1010C94C1010C94C10138
:100040000C94C1010C94C1010C9412040C94C101D4
:100050000C9442040C94C1010C94C1010C94C10194
:100060000C94C1010C94C101000135020901240264
:10007000120113021B0102022401F1012D01E00112
:100080003601CF013F01C301000000000A434F4D7C
:100090004D414E44202D2044415441545950452057
:1000A0002D2053554D4D4152590A434F4D4D414E10
:1000B0004431202D2075696E7431365F742064617F
:1000C0007461202D204272696566206465736372D5
:1000D000697074696F6E206F662074686520636F45
:1000E0006D6D616E640A434F4D4D414E4432202D7B
:1000F0002075696E7431365F742064617461202DDF
:100100002042726965662064657363726970746900
:100110006F6E206F662074686520636F6D6D616E11
:10012000640A434F4D4D414E4433202D2075696E76
:100130007431365F742064617461202D20427269CD
:100140006566206465736372697074696F6E206F91
:10015000662074686520636F6D6D616E640A434F3D
:100160004D4D414E4434202D2075696E7431365FFB
:10017000742064617461202D204272696566206478
:1001800065736372697074696F6E206F662074683E
:100190006520636F6D6D616E640A434F4D4D414E36
:1001A0004435202D2075696E7431365F74202D2002
:1001B00064617461202D20427269656620646573F4
:1001C0006372697074696F6E206F66207468652051
:1001D000636F6D6D616E640A48454C50202D206E32
:1001E0006F2064617461202D20446973706C6179A3
:1001F000207468652068656C70206C6973740A00EF
:100200004552524F5220696E2070617273655F6370
:100210006F6D6D616E6428293A206E6F74206120C5
:100220006E756D626572202D206E6F742064696733
:1002300069743A2025630A004552524F5220696E74
:100240002070617273655F636F6D6D616E642829E4
:100250003A206E6F74206120636F6D6D616E642053
:100260002D206E6F7420616C7068612E0A004552FB
:10027000524F523A2063616C6C5F636F6D6D616EBB
:1002800064202D206E6F74206120636F6D6D616E30
:10029000643A2025730A00636F6D6D616E643620C9
:1002A0002D2064617461203D2025750A00636F6D07
:1002B0006D616E6435202D2064617461203D2025C0
:1002C000750A00636F6D6D616E6434202D2064616A
:1002D0007461203D2025750A00636F6D6D616E6449
:1002E00033202D2064617461203D2025750A006350
:1002F0006F6D6D616E6432202D2064617461203DEC
:100300002025750A00636F6D6D616E6431202D20AC
:1003100064617461203D2025750A00636F6D6D6115
:100320006E6430202D2064617461203D2025750AA3
:1003300000636F6D6D616E645F6C696E655F6465AF
:100340006D6F203032380A0011241FBECFEFD8E085
:10035000DEBFCDBF11E0A0E0B1E0E0EDF2E102C010
:1003600005900D92A235B107D9F712E0A2E5B1E0F0
:1003700001C01D92AA32B107E1F70E9487030C94D5
:1003800066090C94000000D08CE890E0EDB7FEB751
:10039000928381830E948C060F900F90089500D065
:1003A00000D027E932E0EDB7FEB732832183948392
:1003B00083830E948C060F900F900F900F900895EA
:1003C00000D000D02DEA32E0EDB7FEB732832183B2
:1003D000948383830E948C060F900F900F900F9050
:1003E000089500D000D023EC32E0EDB7FEB73283A1
:1003F0002183948383830E948C060F900F900F902B
:100400000F90089500D000D029ED32E0EDB7FEB78F
:1004100032832183948383830E948C060F900F90F4
:100420000F900F90089500D000D02FEE32E0EDB77E
:10043000FEB732832183948383830E948C060F90BE
:100440000F900F900F90089500D000D025E033E07A
:10045000EDB7FEB732832183948383830E948C0699
:100460000F900F900F900F90089500D000D02BE1C7
:1004700033E0EDB7FEB732832183948383830E94F8
:100480008C060F900F900F900F900895CF92DF92EF
:10049000EF92FF920F931F93CF93DF937C016B0139
:1004A00000E0C0E0D0E015C0B7010E9474060097DC
:1004B00079F4FE01EE0FFF1FEE0FFF1FE659FF4F0D
:1004C00005911491C6010E943006F801099501E0DA
:1004D0002196FE01EE0FFF1FEE0FFF1FE859FF4FA1
:1004E00085919491009701F7002311F081E011C0EC
:1004F00000D000D08EE692E0EDB7FEB79283818304
:10050000F482E3820E948C0680E00F900F900F909F
:100510000F90DF91CF911F910F91FF90EF90DF909F
:10052000CF9008952F923F924F925F926F927F9259
:100530008F929F92AF92BF92CF92DF92EF92FF92F3
:100540000F931F93DF93CF93CDB7DEB7CE57D04035
:100550000FB6F894DEBF0FBECDBF8E01035C1F4FF8
:10056000C80162EE71E00E947D0688249924EE2481
:10057000FF24CC24DD24EF961FAF0EAFEF973E0192
:100580000894611C711C35E1232E312C2C0E3D1E6C
:1005900029E2422E512C4C0E5D1E8DC0EDE3F0E0A1
:1005A000EC0FFD1FE80DF91D80818C3241F0F30145
:1005B000EE0DFF1D80830894E11CF11C79C0E60C50
:1005C000F71CD7011C925101AC0CBD1CEE24FF247A
:1005D000F301EE0DFF1D0081003211F1802F90E03C
:1005E0000E944E06892B71F0F50101935F0108947A
:1005F000C11CD11C0894E11CF11CF4E1EF16F104BC
:1006000039F756C000D088E392E0ADB7BEB7129676
:100610009C938E9311970E948C060F900F905DC053
:10062000C20CD31CF60110820894E11CF11CD3010A
:10063000AE0DBF1DCC24DD242C91222359F1822F35
:1006400090E0C0970A9780F4F201EC0DFD1D208325
:100650000894E11CF11C0894C11CD11C1196F4E112
:10066000CF16D10449F724C000D000D0EDB7FEB7B3
:10067000319680E092E0ADB7BEB712969C938E9310
:100680001197228313820E948C060F900F900F9077
:100690000F9023C0C40CD51CF6011082C101B20119
:1006A0000E9446028823C9F0EE24FF24CC24DD24D6
:1006B0000894811C911CEF96EEADFFADEF97019071
:1006C0000020E9F73197EF968EAD9FADEF97E81BCD
:1006D000F90B8E169F0608F461CFC258DF4F0FB694
:1006E000F894DEBF0FBECDBFCF91DF911F910F9168
:1006F000FF90EF90DF90CF90BF90AF909F908F9042
:100700007F906F905F904F903F902F90089560E0A2
:1007100071EE80E090E00E94AE0300D081E393E0B0
:10072000EDB7FEB7928381830E948C060F900F90E5
:100730000E94C8038823E1F382EE91E061E270E059
:100740000E9469060097A1F30E9492020E94A903E9
:10075000EFCF8AED91E00E94630508958F92AF92EA
:10076000CF92EF920F93F89420E034E244EF50E000
:1007700000E0E8E0EE2ECC24C394AA2488240E9452
:10078000880478940F91EF90CF90AF908F90089558
:100790000E946B05811181E0089580E28093C00082
:1007A0001092C10086E08093C2000895EF92FF92FC
:1007B0000F931F937B018C0184E0EE0CFF1C001F44
:1007C000111F8A95D1F7CA01B901A80197010E94AA
:1007D0000E06215030403093C5002093C4001F9175
:1007E0000F91FF90EF90089581118F5F982F80FFF8
:1007F00004C08091C200806103C08091C2008F7EDE
:100800008093C2008091C20091FF04C08091C20019
:10081000806203C08091C2008F7D8093C20080916E
:10082000C20008951F920F920FB60F9211242F93BA
:100830003F934F935F936F937F938F939F93AF9368
:10084000BF93EF93FF938091C0009091C00060919F
:10085000C60084FD06C092FD04C08AED91E00E94AE
:100860007B05FF91EF91BF91AF919F918F917F9108
:100870006F915F914F913F912F910F900FBE0F900D
:100880001F9018951F920F920FB60F9211242F935D
:100890003F934F935F936F937F938F939F93AF9308
:1008A000BF93EF93FF9380912202882369F00E9407
:1008B0007605882339F082ED91E00E94CD05809382
:1008C000C60005C01092220281E080932302FF91AE
:1008D000EF91BF91AF919F918F917F916F915F91B8
:1008E0004F913F912F910F900FBE0F901F90189531
:1008F000809123028823E1F381E08093220282ED3C
:1009000091E00E94CD058093C600109223020895C5
:100910002F923F924F925F926F927F928F929F920F
:10092000AF92CF92EF920F931F93DF93CF93CDB7F8
:10093000DEB73B014C0119012A011E2DEC2CF89465
:1009400084E491E090932702809326028091C10075
:10095000877F8093C1008091C1008F7E8093C1000A
:100960008091C1008F7B8093C1008091C1008F77FF
:100970008093C1008091C2000295000F000F007C9F
:100980008F73802B8093C200C401B3010E94D603F1
:10099000812F8550843018F5212F30E025503040CC
:1009A00020FF04C08091C200826003C08091C20019
:1009B0008D7F8093C2008091C20021FF04C080918E
:1009C000C200846003C08091C2008B7F8093C2000C
:1009D0008091C2008091C1008B7F8093C10019304B
:1009E00079F48091C20082608093C2008091C2003D
:1009F00084608093C2008091C10084608093C100B4
:100A00008E2D8150823070F481E0E81621F08091C3
:100A1000C200886003C08091C200877F8093C200BB
:100A20008091C2008A2D0E94F403C401B301A20187
:100A300091010E94D6038AED91E062EE71E040E4FC
:100A40000E94A90582ED91E062E571E040E80E9414
:100A5000A9058091C10088608093C1008091C10088
:100A600080618093C1008091C10080648093C10047
:100A70008091C10080688093C1001092220281E0C1
:100A8000809323027894CF91DF911F910F91EF9083
:100A9000CF90AF909F908F907F906F905F904F908E
:100AA0003F902F9008951F93182F8A3019F48DE0EE
:100AB0000E945305812F0E9470050E94780480E0F7
:100AC00090E01F9108951F931FB7F8940E94B905F5
:100AD0001FBF1F9108958AED91E00E9408060895B6
:100AE000682F82ED91E00E94FA05089582ED91E071
:100AF0000E9408060895DC0113964D915C911497AD
:100B000012968C91129790E001974817590718F0A8
:100B100020E030E003C09A012F5F3F4F15968D9182
:100B20009C9116972817390711F480E00895ED91EC
:100B3000FC911197E40FF51F608314963C932E935C
:100B4000139717968C9117978F5F17968C9381E068
:100B50000895FC01423058F0009749F06115710585
:100B600031F07183608342830E94B905089580E06B
:100B70000895FC01009711F480E008951482138217
:100B800016821582178242818081918160E070E037
:100B900050E00E94620681E00895DC0115962D91D7
:100BA0003C91169713968D919C91149782179307F9
:100BB00011F4E0E01DC0ED91FC911197E20FF31FDD
:100BC000E08112968C91129790E0019728173907CF
:100BD00018F080E090E002C0C901019616969C933F
:100BE0008E93159717968C911797815017968C9323
:100BF0008E2F08951F939C01809122028823E1F794
:100C00001FB7F894C9010E947B051FBF1F9108956B
:100C1000FC018FB7F8948FBF87810895A1E21A2E47
:100C2000AA1BBB1BFD010DC0AA1FBB1FEE1FFF1F90
:100C3000A217B307E407F50720F0A21BB30BE40BE0
:100C4000F50B661F771F881F991F1A9469F7609527
:100C50007095809590959B01AC01BD01CF010895E1
:100C6000FC0188279927E89421912032E9F3293063
:100C700010F02E30C8F32B3241F02D3239F4689445
:100C800004C00E948406820F911D219120532A30B6
:100C9000C0F31EF4909581959F4F0895911106C061
:100CA00080538A5010F0865C06C0089599278827E3
:100CB000089585FDFBCF80629111F8CF81568A514E
:100CC000E0F70895DC0101C06D9341505040E0F71A
:100CD0000895FC018191861721F08823D9F799277F
:100CE00008953197CF010895FB01DC018D910190AA
:100CF00080190110D9F3990B0895FB01DC010190D3
:100D00000D920020E1F708957AE0979F902D879F3C
:100D1000802D910D11240895A0E0B0E0E2E9F6E005
:100D20000C943F09FE01359661917191A0912602C4
:100D3000B091270213968C911397886013968C9329
:100D40008091260290912702AF010E94B206E091A5
:100D50002602F09127022381277F23832096E2E059
:100D60000C945B09ABE0B0E0E8EBF6E00C942F09E3
:100D70003C012B015A01FC0117821682838181FDFF
:100D800003C06FEF7FEFC6C19AE0892E1E01089461
:100D9000211C311CF3012381F20123FD859123FFE6
:100DA00081912F01882309F4B2C1853239F423FDE2
:100DB000859123FF81912F01853229F490E0B301C1
:100DC0000E94A508E7CF982FFF24EE249924FFE185
:100DD000FF15D0F09B3269F09C3228F4903259F024
:100DE000933291F40EC09D3249F0903369F441E0A2
:100DF00024C052E0F52A84E0F82A28C098E0F92AB5
:100E000025C0E0E1FE2A22C0F7FC29C0892F8053CB
:100E10008A3070F4F6FE05C0989C902C1124980E30
:100E200015C0E89CE02C1124E80EF0E2FF2A0EC069
:100E30009E3229F4F6FC6BC140E4F42A07C09C36CC
:100E400019F450E8F52A02C0983649F4F20123FD5E
:100E5000959123FF91912F01992309F0B8CF892F04
:100E60008554833018F08052833038F444E050E0E9
:100E7000A40EB51E5FE359830FC0933631F093374C
:100E800079F0933509F056C020C0F501808189833F
:100E900042E050E0A40EB51E610101E010E012C076
:100EA000F501C080D180F6FC03C06FEF7FEF02C078
:100EB000692D70E042E050E0A40EB51EC6010E940C
:100EC0009A088C015FE7F52214C0F501C080D1803B
:100ED000F6FC03C06FEF7FEF02C0692D70E042E0C7
:100EE00050E0A40EB51EC6010E948F088C0150E888
:100EF000F52AF3FE07C01AC080E290E0B3010E9419
:100F0000A508EA948E2D90E008171907A8F30EC0E3
:100F1000F601F7FC8591F7FE81916F0190E0B30136
:100F20000E94A508E110EA94015010400115110536
:100F300079F7EAC0943611F0993669F5F7FE08C0E2
:100F4000F501208131814281538184E090E00AC023
:100F5000F501808191819C01442737FD4095542FF4
:100F600082E090E0A80EB91E9FE6F92257FF09C063
:100F700050954095309521953F4F4F4F5F4FE0E89A
:100F8000FE2ACA01B901A1012AE030E00E94D1087D
:100F9000D82ED21840C0953729F41F2D1F7E2AE085
:100FA00030E01DC01F2D197F9F3661F0903720F46F
:100FB000983509F0ACC00FC0903739F0983709F078
:100FC000A6C004C028E030E00AC0106114FD14601F
:100FD00020E130E004C014FD166020E132E017FF8C
:100FE00008C0F501608171818281938144E050E005
:100FF00008C0F50180819181BC0180E090E042E071
:1010000050E0A40EB51EA1010E94D108D82ED2181E
:101010008FE7F82EF122F6FE0BC05EEFF522D91411
:1010200038F4F4FE07C0F2FC05C08FEEF82202C0CF
:101030001D2D01C0192DF4FE0DC0FE01ED0DF11D99
:101040008081803319F499EEF92208C01F5FF2FE07
:1010500005C003C08F2D867809F01F5F0F2DF3FCAC
:1010600014C0F0FE0FC01E1510F09D2C0BC09D2C5F
:101070009E0C911A1E2D06C080E290E0B3010E94E2
:10108000A5081F5F1E15C0F304C01E1510F4E11A59
:1010900001C0EE2404FF0FC080E390E0B3010E9482
:1010A000A50802FF1DC001FD03C088E790E00EC047
:1010B00088E590E00BC0802F867891F001FF02C098
:1010C0008BE201C080E2F7FC8DE290E0B3010E9468
:1010D000A50806C080E390E0B3010E94A5089A9499
:1010E000D914C0F3DA94F101ED0DF11D808190E087
:1010F000B3010E94A508DD20A9F706C080E290E0B8
:10110000B3010E94A508EA94EE20C1F743CEF30193
:1011100066817781CB012B96E2E10C944B09FC01AF
:101120000590615070400110D8F7809590958E0F12
:101130009F1F0895FC016150704001900110D8F785
:10114000809590958E0F9F1F08950F931F93CF93B7
:10115000DF938C01EB018B8181FF1BC082FF0DC0EF
:101160002E813F818C819D812817390764F4E881A5
:10117000F9810193F983E88306C0E885F985802F1A
:101180000995892B31F48E819F8101969F838E83EF
:1011900002C00FEF1FEFC801DF91CF911F910F9198
:1011A0000895FA01AA27283051F1203181F1E894FD
:1011B0006F936E7F6E5F7F4F8F4F9F4FAF4FB1E04A
:1011C0003ED0B4E03CD0670F781F891F9A1FA11D45
:1011D000680F791F8A1F911DA11D6A0F711D811D46
:1011E000911DA11D20D009F468943F912AE0269F0B
:1011F00011243019305D3193DEF6CF010895462F6A
:101200004770405D4193B3E00FD0C9F7F6CF462F4A
:101210004F70405D4A3318F0495D31FD40524193B3
:1012200002D0A9F7EACFB4E0A69597958795779570
:101230006795BA95C9F700976105710508959B01F7
:10124000AC010A2E06945795479537952795BA9580
:10125000C9F7620F731F841F951FA01D08952F9259
:101260003F924F925F926F927F928F929F92AF9236
:10127000BF92CF92DF92EF92FF920F931F93CF9383
:10128000DF93CDB7DEB7CA1BDB0B0FB6F894DEBF1A
:101290000FBECDBF09942A88398848885F846E8440
:1012A0007D848C849B84AA84B984C884DF80EE808A
:1012B000FD800C811B81AA81B981CE0FD11D0FB693
:1012C000F894DEBF0FBECDBFED010895F894FFCFB7
:1012D000434F4D4D414E443000434F4D4D414E44E0
:1012E0003100434F4D4D414E443200434F4D4D412F
:1012F0004E443300434F4D4D414E443400434F4D17
:101300004D414E443500434F4D4D414E443600480B
:10131000454C500000000002000000005305000092
:021320000000CB
:00000001FF
