:107C000011E0A0E0B1E001C01D92A238B107E1F798
:107C100011242AC0EF92FF920F931F93CF93DF930B
:107C2000A895EE24FF248701C0E0D0E010C080E4D6
:107C3000E81682E4F8068FE0080780E0180710F0E5
:107C4000FE0109950894E11CF11C011D111D809194
:107C5000C00087FFECCF8091C600DF91CF911F91CC
:107C60000F91FF90EF9008952F923F924F925F9265
:107C70006F927F928F929F92AF92BF92CF92DF923C
:107C8000EF92FF920F931F93CF93DF9380E1809346
:107C9000C40088E18093C1008091C2008A60809313
:107CA000C2004DE0342E3FE4232E06C0EA0CFB1C3C
:107CB000F0920101E09200010E940A3E082F8435F3
:107CC00009F46CC08535A0F4853409F464C18634A8
:107CD00030F48134A1F1823409F065C1E4C080350B
:107CE000F9F0833509F489C08C3409F05CC118C0FF
:107CF000873609F4D8C0883648F4823609F4BBC008
:107D00008536B9F1813609F04EC110C0833709F4C8
:107D10004DC0843709F461C0803709F044C1A2C066
:107D2000A8958091C00085FFFCCF3AC1A8958091AD
:107D3000C00085FFFCCF49E54093C600BDCF0E943F
:107D40000A3E182F80930001109201010E940A3E02
:107D5000912E882490E088299929880F991F909363
:107D6000010180930001A8958091C00085FFFCCFA0
:107D700017C1E0E0F0E053E050935700E89507B6F4
:107D800000FCFDCFE058FF4F8CE7E030F80799F793
:107D9000A8958091C00085FFFCCF02C10E940A3ED9
:107DA000A8958091C00085FFFCCFFAC0A89580916E
:107DB000C00085FFFCCF99E09093C600A895809104
:107DC000C00085FFFCCFA6E9A093C600A8958091CE
:107DD000C00085FFFCCFBEE163C0A8958091C000C4
:107DE00085FFFCCFE3E7E093C600A8958091C00033
:107DF00085FFFCCF1092C6005FCFA8958091C00090
:107E000085FFFCCFF1E4F093C600A8958091C000F7
:107E100085FFFCCF46E54093C600A8958091C00041
:107E200085FFFCCF52E55093C600A8958091C00015
:107E300085FFFCCF82E48093C600A8958091C000A6
:107E400085FFFCCF2092C600A8958091C00085FFD9
:107E5000FCCF2092C600A8958091C00085FFFCCF82
:107E600084E5AAC0A8958091C00085FFFCCF93E56A
:107E70009093C60021CFA8958091C00085FFFCCFCC
:107E8000A9E5A093C600A8958091C00085FFFCCF0E
:107E90001092C600A8958091C00085FFFCCFB0E885
:107EA000B093C60009CF0E940A3E182F0E940A3ED6
:107EB000712E6624E82EFF24E628F7280E940A3E49
:107EC000A0900001B0900101023409F053C082E09B
:107ED000C82E81E0D82EE60100E010E00E151F0547
:107EE00020F40E940A3E888302C0EFEFE8830F5F10
:107EF0001F4F21960038110589F7E0910001F0919C
:107F0000010143E040935700E89507B600FCFDCF20
:107F100020E030E016C0D6018C9111965C9044248C
:107F2000A201480F511DCA0151E00C0150935700A6
:107F3000E89511242E5F3F4F329682E090E0C80E04
:107F4000D91E2E153F0538F3F0930101E09300018F
:107F500045E0F50140935700E89507B600FCFDCFDA
:107F600051E150935700E895A8958091C00085FF96
:107F7000FCCF16C09701F5019491A8958091C0009F
:107F800085FFFCCF9093C6002150304031962115DB
:107F9000310591F78BCEA8958091C00085FFFCCF6D
:107FA0003092C60089CE0B3109F486CEA895809117
:0E7FB000C00085FFFCCF8FE38093C6007DCE1E
:0400000300007C007D
:00000001FF
