:1078000011E0A0E0B1E001C01D92A238B107E1F79C
:107810001124C0C0982FA895E0ECF0E0808185FF8E
:10782000FDCF9093C6000895CF92DF92EF92FF9222
:107830000F931F93CF93DF93A895EE24FF24870126
:10784000C0ECD0E0CC24DD2410C080E4E81682E453
:10785000F8068FE0080780E0180710F0F601099598
:107860000894E11CF11C011D111D888188236CF70F
:107870008091C600DF91CF911F910F91FF90EF9003
:10788000DF90CF9008950895AF92BF92CF92DF928C
:10789000EF92FF920F931F93CF93DF93E1E6F0E017
:1078A00080E8808383E080831092700088E080937A
:1078B000B60088EC8093B30010926E0081E0809354
:1078C00081008093B000E6EBF0E02081808190E0C1
:1078D0008470907030E021703070822B932B892B54
:1078E000A1F788EE93E00E94433CC6E3D0E0DD249C
:1078F000DA94E7E3F0E005E810E064E870E00F2ECA
:10790000F2EBEF2EFF24F02D41E850E00F2EF6E6CB
:10791000AF2EBB24F02DCC24C394F894D882D0820F
:10792000D8011C92DB011C92D7011C92808181FF3F
:10793000FDCFDA011C927894888180FD16C0DB01AE
:107940009C91D8018C91382F20E0D901A90FB11D4D
:10795000CD01B8E18B369B072CF0D5018C9181507D
:107960008C9307C0885E97413CF4D5018C918F5F62
:107970008C93DA01CC92D1CF81E080938100DF91AA
:10798000CF911F910F91FF90EF90DF90CF90BF901C
:10799000AF9008952F923F924F925F926F927F9295
:1079A0008F929F92AF92BF92CF92DF92EF92FF920F
:1079B0000F931F93DF93CF9300D000D000D0CDB7AB
:1079C000DEB704EC10E080E1D8018C930F2EF1ECCF
:1079D000EF2EFF24F02D0F2EF8E1DF2EF02DF70112
:1079E000D0820E94443C90E890BF87E080937F0063
:1079F0008FEF85B98EB9E1E6F0E0908392E0908355
:107A00001092C5008CE0D8018C939093C000F701D0
:107A1000D08286E08093C200E5E5F0E081E08083DB
:107A20009083789480E580936C0080E88CBB8DBB5C
:107A300082E091E08B839C8366246A940F2EF3E0AE
:107A40007F2EF02D0F2EF7E5CF2EDD24F02D0E9496
:107A5000143C082F843509F461C08535A0F48534C1
:107A600009F421C1863430F4813469F1823409F09B
:107A70001EC18FC08035F9F0833509F466C08C349F
:107A800009F015C118C0873609F483C0883648F458
:107A9000823609F474C0853671F1813609F007C168
:107AA0000EC0833709F440C0843709F447C08037DB
:107AB00009F0FDC060C08DE00E940A3CC8CF89E596
:107AC0000E940A3CC4CF0E94143C182F80930001EE
:107AD000109201010E94143C312E222490E0822950
:107AE0009329880F991F90930101809300018DE0E5
:107AF0000E940A3CACCFE0E0F0E070925700E895BD
:107B0000D6018C9180FDFCCFE058FF4FBCE3E03004
:107B1000FB0799F78DE00E940A3C99CF0E94143C24
:107B20008DE00E940A3C93CF85E00E940A3C84E9E4
:107B30000E940A3C8EE10E940A3C89CF89E70E949C
:107B40000A3C80E00E940A3C82CF81E40E940A3C09
:107B500086E50E940A3C82E50E940A3C82E40E947B
:107B60000A3C8FE40E940A3C8FE40E940A3C84E5B0
:107B70000E940A3C6CCF83E50E940A3C68CF89E5ED
:107B80000E940A3C80E00E940A3C80E80E940A3C75
:107B90005ECF0E94143C182F0E94143C1A83198255
:107BA00090E0A980BA80A82AB92A0E94143C023425
:107BB00009F064C040900001509001010F2EF2E0E6
:107BC000EF2EF1E0FF2EF02D8B819C819E838D8323
:107BD00000E010E00A151B0530F40E94143CED8112
:107BE000FE81808303C0AD81BE816C920F5F1F4F09
:107BF000ED81FE813196FE83ED830038110551F74A
:107C0000E0910001F091010170925700E895D601D2
:107C10008C9180FDFCCFA114B104F9F020E030E09C
:107C2000D7018C9111969C908824A401480F511D76
:107C3000CA0151E00C0150935700E8951124329687
:107C40002E5F3F4F82E090E0E80EF91E2A153B05BB
:107C500038F3F0930101E093000145E0F201409315
:107C60005700E895D6018C9180FDFCCFB1E1B0932F
:107C70005700E8958DE00E940A3CE9CEE0910001B2
:107C8000F0910101CF0101969093010180930001D1
:107C9000E4918E2F0E940A3C0894A108B108A11417
:107CA000B10461F7D4CE8DE00E940A3CD0CE0B31F6
:0C7CB00009F4CDCE8FE30E940A3CC9CE3F
:040000030000780081
:00000001FF
